:020000040800F2
:1000000000800020C9310008ED2C0008F32C000806
:10001000F92C0008FF2C0008052D00080000000046
:100020000000000000000000000000000B2D000890
:10003000192D000800000000272D0008352D0008AC
:100040001932000819320008193200081932000864
:100050001932000819320008193200081932000854
:100060001932000819320008193200081932000844
:100070001932000819320008193200081932000834
:100080001932000800000000DD30000819320008B5
:100090001932000819320008193200081932000814
:1000A000F93000080D310008213100083D31000809
:1000B00051310008193200081932000819320008BD
:1000C00019320008193200081932000819320008E4
:1000D0001932000865310008193200081932000889
:1000E0007931000819320008193200081932000865
:1000F0001932000819320008193200080000000007
:100100000000000019320008000000001932000849
:100110001932000800000000893100081932000877
:100120001932000819320008193200081932000883
:100130001932000800000000000000001932000819
:100140001932000819320008000000000000000009
:10015000000000000000000000000000000000009F
:10016000000000000000000000000000193200083C
:10017000193200080000000000000000000000002C
:10018000000000001932000800000000000000001C
:10019000000000000000000000000000000000005F
:1001A00000000000000000001932000819320008A9
:1001B0001932000819320008193200080000000046
:1001C00000000000193200080000000000000000DC
:0801D000193200081932000881
:1001D80010B5054C237833B9044B13B10448AFF379
:1001E80000800123237010BD2800002000000000BB
:1001F8009CB6000808B5034B1BB103490348AFF38D
:10020800008008BD000000002C0000209CB60008FB
:1002180070B54FF0FF0C4CF4E06C1CEA11541DBF94
:100228001CEA135594EA0C0F95EA0C0F00F0DEF85F
:100238002C4481EA030621EA4C5123EA4C5350EA44
:10024800013518BF52EA033541F4801143F4801395
:1002580038D0A0FB02CE4FF00005E1FB02E506F026
:100268000042E0FB03E54FF00006E1FB03569CF07B
:10027800000F18BF4EF0010EA4F1FF04B6F5007F81
:1002880064F5407404D25FEA4E0E6D4146EB0606F3
:1002980042EAC62141EA55514FEAC52040EA5E507C
:1002A8004FEACE2EB4F1FD0C88BFBCF5E06F1ED826
:1002B800BEF1004F08BF5FEA500E50F1000041EB5D
:1002C800045170BD06F0004646EA010140EA02000A
:1002D80081EA0301B4EB5C04C2BFD4EB0C0541EA2C
:1002E800045170BD41F480114FF0000E013C00F341
:1002F800AB8014F1360FDEBF002001F0004170BD65
:10030800C4F10004203C35DA0C341BDC04F114047D
:10031800C4F1200500FA05F320FA04F001FA05F209
:1003280040EA020001F0004221F0004110EBD370D6
:1003380021FA04F642EB06015EEA430E08BF20EA02
:10034800D37070BDC4F10C04C4F1200500FA04F3A5
:1003580020FA05F001FA04F240EA020001F0004137
:1003680010EBD37041F100015EEA430E08BF20EAAA
:10037800D37070BDC4F1200500FA05F24EEA020EF2
:1003880020FA04F301FA05F243EA020321FA04F021
:1003980001F0004121FA04F220EA020000EBD370D8
:1003A8005EEA430E08BF20EAD37070BD94F0000FD8
:1003B8000FD101F00046400041EB010111F4801F0C
:1003C80008BF013CF7D041EA060195F0000F18BFBD
:1003D800704703F00046520043EB030313F4801FF9
:1003E80008BF013DF7D043EA0603704794EA0C0FB3
:1003F8000CEA135518BF95EA0C0F0CD050EA4106C9
:1004080018BF52EA4306D1D181EA030101F0004145
:100418004FF0000070BD50EA410606BF104619466D
:1004280052EA430619D094EA0C0F02D150EA013679
:1004380013D195EA0C0F05D152EA03361CBF1046BA
:1004480019460AD181EA030101F0004141F0FE4159
:1004580041F470014FF0000070BD41F0FE4141F4DD
:10046800780170BD81F0004102E000BF83F00043D5
:1004780030B54FEA41044FEA430594EA050F08BF37
:1004880090EA020F1FBF54EA000C55EA020C7FEAFB
:10049800645C7FEA655C00F0E2804FEA5454D4EB78
:1004A8005555B8BF6D420CDD2C4480EA020281EA42
:1004B800030382EA000083EA010180EA020281EA7A
:1004C8000303362D88BF30BD11F0004F4FEA0131CC
:1004D8004FF4801C4CEA113102D0404261EB4101DB
:1004E80013F0004F4FEA03334CEA133302D0524261
:1004F80063EB430394EA050F00F0A780A4F101041D
:10050800D5F1200E0DDB02FA0EFC22FA05F2801856
:1005180041F1000103FA0EF2801843FA05F359413C
:100528000EE0A5F120050EF1200E012A03FA0EFCBB
:1005380028BF4CF0020C43FA05F3C01851EBE371E5
:1005480001F0004507D54FF0000EDCF1000C7EEB02
:1005580000006EEB0101B1F5801F1BD3B1F5001F40
:100568000CD349085FEA30004FEA3C0C04F101045F
:100578004FEA445212F5800F80F09A80BCF1004F88
:1005880008BF5FEA500C50F1000041EB045141EA0A
:10059800050130BD5FEA4C0C404141EB0101013CD3
:1005A80028BFB1F5801FE9D291F0000F04BF0146C2
:1005B8000020B1FA81F308BF2033A3F10B03B3F194
:1005C80020020CDA0C3208DD02F1140CC2F10C0224
:1005D80001FA0CF021FA02F10CE002F11402D8BF82
:1005E800C2F1200C01FA02F120FA0CFCDCBF41EA4E
:1005F8000C019040E41AA2BF01EB0451294330BD1D
:100608006FEA04041F3C1CDA0C340EDC04F11404F9
:10061800C4F1200220FA04F001FA02F340EA0300D0
:1006280021FA04F345EA030130BDC4F10C04C4F116
:10063800200220FA02F001FA04F340EA03002946F6
:1006480030BD21FA04F0294630BD94F0000F83F440
:10065800801306BF81F480110134013D4EE77FEA23
:10066800645C18BF7FEA655C29D094EA050F08BF6F
:1006780090EA020F05D054EA000C04BF1946104650
:1006880030BD91EA030F1EBF0021002030BD5FEA94
:10069800545C05D14000494128BF41F0004130BDBC
:1006A80014F580043CBF01F5801130BD01F0004510
:1006B80045F0FE4141F470014FF0000030BD7FEA83
:1006C800645C1ABF194610467FEA655C1CBF0B467E
:1006D800024650EA013406BF52EA033591EA030F95
:1006E80041F4002130BD00BF90F0000F04BF00218D
:1006F800704730B54FF4806404F132044FF00005C0
:100708004FF0000150E700BF90F0000F04BF002138
:10071800704730B54FF4806404F1320410F000459E
:1007280048BF40424FF000013EE700BF42004FEA99
:10073800E2014FEA31014FEA02701FBF12F07F4316
:1007480093F07F4F81F06051704732F07F4208BFCD
:10075800704793F07F4F04BF41F40021704730B5D4
:100768004FF4607401F0004521F000411CE700BF20
:1007780050EA010208BF704730B54FF000050AE0A3
:1007880050EA010208BF704730B511F0004502D5A4
:10079800404261EB41014FF4806404F132045FEAA6
:1007A800915C3FF4D8AE4FF003025FEADC0C18BF4F
:1007B80003325FEADC0C18BF033202EBDC02C2F141
:1007C800200300FA03FC20FA02F001FA03FE40EAD3
:1007D8000E0021FA02F11444BDE600BF4FEA4102BF
:1007E80012F5001215D211D56FF47873B3EB62527B
:1007F80012D94FEAC12343F0004343EA505311F0A2
:10080800004F23FA02F018BF404270474FF0000033
:10081800704750EA013005D111F0004008BF6FF071
:10082800004070474FF00000704700BF4A0011D2E7
:1008380012F5001211D20DD56FF47873B3EB625232
:100848000ED44FEAC12343F0004343EA505323FA3E
:1008580002F070474FF00000704750EA013002D1B3
:100868004FF0FF3070474FF00000704753B94AB956
:10087800002908BF00281CBF4FF0FF314FF0FF30A0
:1008880000F070B9ADF1080C6DE904CE00F006F87F
:10089800DDF804E0DDE9022304B070472DE9F047F4
:1008A800089E0D4604460F46002B4AD18A429446BC
:1008B80065D9B2FA82F343B102FA03FCC3F120020C
:1008C8009F4020FA02F217439C404FEA1C4E1FFA41
:1008D8008CF5B7FBFEF1220C0EFB117742EA0742BA
:1008E80001FB05F090420AD91CEB020201F1FF3727
:1008F80080F01C81904240F2198102396244121A38
:10090800A4B2B2FBFEF00EFB102244EA024400FB44
:1009180005F5A5420AD91CEB040400F1FF3280F06A
:100928000781A54240F204816444023840EA01404C
:10093800641B00211EB1DC400023C6E90043BDE86A
:10094800F0878B4208D9002E00F0ED800021C6E91F
:1009580000050846BDE8F087B3FA83F1002949D1BC
:10096800AB4202D3824200F2F880841A65EB03029C
:1009780001201746002EE2D0C6E90047DFE702B99A
:10098800FFDEB2FA82F3002B40F090808A1A4FEA19
:100998001C471FFA8CFE0121B2FBF7F507FB152057
:1009A800220C42EA00420EFB05F0904208D91CEBEB
:1009B800020205F1FF3802D2904200F2CB80454690
:1009C800121AA4B2B2FBF7F007FB102244EA024461
:1009D8000EFB00FEA64508D91CEB040400F1FF320B
:1009E80002D2A64500F2BB801046A4EB0E0440EAF2
:1009F80005409FE7C1F120078B4022FA07FC4CEA2B
:100A0800030C05FA01F420FA07F3FD404FEA1C49EC
:100A18002343B5FBF9F81FFA8CFE09FB18551C0C8B
:100A280044EA054408FB0EF5A54202FA01F200FA71
:100A380001F00BD91CEB040408F1FF3A80F0888020
:100A4800A54240F28580A8F102086444641B9DB267
:100A5800B4FBF9F309FB134445EA044403FB0EFE17
:100A6800A64508D91CEB040403F1FF356CD2A64552
:100A78006AD9023B644443EA0843A3FB0295A4EB0A
:100A88000E04AC42C846AE4656D353D056B1B0EB6E
:100A9800080264EB0E0404FA07F7CA40CC40174377
:100AA800C6E9007418460021BDE8F087C3F12001AB
:100AB80002FA03FC20FA01F225FA01F19D402A43CB
:100AC8004FEA1C471FFA8CFEB1FBF7F007FB101525
:100AD800110C41EA054100FB0EF58D4204FA03F4BE
:100AE80008D91CEB010100F1FF382FD28D422DD916
:100AF80002386144491B92B2B1FBF7F507FB1511A7
:100B080042EA014205FB0EF1914208D91CEB0202B0
:100B180005F1FF3816D2914214D9023D6244521AA7
:100B280045EA004138E73146304608E73946E6E607
:100B38001046FBE64845A9D2B9EB020865EB0C0E56
:100B4800013BA3E74546EAE72B4694E74046D1E751
:100B5800D0467BE7023D624432E708460AE7644430
:100B6800023842E7704700BF80B485B000AFF86034
:100B78007B600B467B8113463B813A897B89D31A7C
:100B88009BB21AB2FB681A80FB685B68FA68B2F914
:100B980000201A44FB685A60FB685B68204A93424D
:100BA80002DDFB681E4A5A60FB685B681D4A934277
:100BB80002DAFB681B4A5A60FB689B891A46FB6885
:100BC800B3F9003003FB02F2FB68DB891946FB68C6
:100BD8005B6801FB03F31A44FB689A60FB689B6837
:100BE800114A934202DDFB680F4A9A60FB689B68D2
:100BF8000E4A934202DAFB680C4A9A60FB689B68CB
:100C08000B4A82FB03121213DB17D31A1BB21A46C4
:100C18007B681A6000BF1437BD465DF8047B7047D7
:100C280040420F00C0BDF0FF80969800806967FFC2
:100C3800AD8BDB680000000080B582B000AF224BAE
:100C48001B889AB2214B9BB213449BB2FB80B7F925
:100C58000630002B17DAB7F9063003F58043013365
:100C68001846FFF751FD16A3D3E90023FFF7D0FA82
:100C780002460B4610461946FFF7D8FD03469AB2BE
:100C8800134B1A8017E0104B1B889BB21A460F4B68
:100C980013441846FFF738FD09A3D3E90023FFF7EB
:100CA800B7FA02460B4610461946FFF7BFFD034642
:100CB8009AB2074B1A8000BF0837BD4680BD00BFF7
:100CC800A4703D0AD7A3B03F480000208AFDFFFF6B
:100CD8004A00002080B400AF0C4B1B78DBB2012B1C
:100CE8000ED10B4B1B889AB20A4B5A630A4B1B88CE
:100CF8009AB2084B9A63094B1B889AB2054BDA6380
:100D080000BFBD465DF8047B704700BF00000020AF
:100D18008A000020002C01408C0000208E0000205A
:100D280080B487B000AFBA601A460346FB810B4611
:100D3800BB811346FB80BA89FB89D31A9BB2BB825D
:100D4800BA89FB89D31A002BB8BF5B42142B41DD4B
:100D5800BA89FB899A4208D9FB88102B05D1FA89F0
:100D6800BB89D31A9BB2FB822DE0BA89FB899A42D0
:100D78000CD2FB88102B09D1FA89BB89D31A9BB2F4
:100D8800A3F58043013B9BB2FB821CE0BA89FB8937
:100D98009A420CD9FB88002B09D1FA89BB89D31A4E
:100DA8009BB203F5804301339BB2FB820BE0BA8907
:100DB800FB899A4207D2FB88002B04D1FA89BB89A8
:100DC800D31A9BB2FB82BB681A68B7F916301A446B
:100DD800BB681A60B7F9163018461C37BD465DF86F
:100DE800047B704700000000B0B58CB000AFF8601D
:100DF800B9607A603B60F868FFF786FCB2A3D3E974
:100E08000023FFF705FA02460B4614461D46B8684C
:100E1800FFF77AFC02460B4620462946FFF726FBD9
:100E280002460B46104619464FF00002A84BFFF742
:100E3800EFF902460B4610461946FFF7CFFC03466A
:100E4800BB62BB687B62FB685B421846FFF75CFCD1
:100E58009DA3D3E90023FFF7DBF902460B461446AE
:100E68001D46B868FFF750FC02460B462046294647
:100E7800FFF7FCFA02460B46104619464FF00002EF
:100E8800934BFFF7C5F902460B4610461946FFF784
:100E9800A5FC03463B62BB6A002B09DD7B6A002B7D
:100EA80006DD3B6A002B03DA012387F82F303FE089
:100EB8007B6A002B09DD3B6A002B06DABB6A002B34
:100EC80003DA022387F82F3032E07B6A002B09DD32
:100ED8003B6A002B06DDBB6A002B03DA032387F885
:100EE8002F3025E07B6A002B09DA3B6A002B06DDF0
:100EF800BB6A002B03DA042387F82F3018E07B6ADB
:100F0800002B09DA3B6A002B06DDBB6A002B03DDE8
:100F1800052387F82F300BE07B6A002B08DA3B6A41
:100F2800002B05DABB6A002B02DD062387F82F3079
:100F380097F82F30013B052B00F2388201A252F8B6
:100F480023F000BF650F000819100008DD10000825
:100F58009111000849120008FD120008BB6AFB61E4
:100F68007B6ABB61FB69C3F10102BB69D31A7B6170
:100F7800FA69BB6913441846FFF7C6FB04460D46D9
:100F88007869FFF7C1FB4FF00002514BFFF740F9BA
:100F980002460B4620462946FFF76AFA02460B46E8
:100FA80010461946FFF71AFC03461AB27B681A80E6
:100FB800B869FFF7A9FB04460D467869FFF7A4FB5B
:100FC8004FF00002424BFFF723F902460B4620463A
:100FD8002946FFF74DFA02460B4610461946FFF719
:100FE800FDFB03461AB23B681A807869FFF78CFB51
:100FF8004FF00002364BFFF70BF902460B4610463E
:101008001946FFF7EBFB03461AB23B6C1A80CDE199
:101018003B6A5B42FB61BB6A5B42BB61FB69C3F134
:101028000102BB69D31A7B61F869FFF76DFB0446BF
:101038000D467869FFF768FB4FF00002244BFFF775
:10104800E7F802460B4620462946FFF711FA024602
:101058000B4610461946FFF7C1FB03461AB27B68D8
:101068001A80FA69BB6913441846FFF74DFB04461A
:101078000D467869FFF748FB4FF00002144BFFF765
:10108800C7F802460B4620462946FFF7F1F9024603
:101098000B4610461946FFF7A1FB03461AB23B68F8
:1010A8001A807869FFF730FB4FF00002084BFFF712
:1010B800AFF802460B4610461946FFF78FFB03466A
:1010C8001AB23B6C1A8071E1AE47E17A14AEFB3F6D
:1010D8000000E03F7B6AFB613B6ABB61FB69C3F1CF
:1010E8000102BB69D31A7B617869FFF70DFB4FF0EA
:1010F8000002B04BFFF78CF802460B461046194623
:10110800FFF76CFB03461AB27B681A80FA69BB6961
:1011180013441846FFF7F8FA04460D467869FFF7B6
:10112800F3FA4FF00002A34BFFF772F802460B46A2
:1011380020462946FFF79CF902460B4610461946F9
:10114800FFF74CFB03461AB23B681A80B869FFF7F1
:10115800DBFA04460D467869FFF7D6FA4FF000022D
:10116800944BFFF755F802460B4620462946FFF7F1
:101178007FF902460B4610461946FFF72FFB034638
:101188001AB23B6C1A8011E1BB6A5B42FB617B6A55
:101198005B42BB61FB69C3F10102BB69D31A7B6186
:1011A8007869FFF7B1FA4FF00002824BFFF730F889
:1011B80002460B4610461946FFF710FB03461AB2C3
:1011C8007B681A80F869FFF79FFA04460D4678692C
:1011D800FFF79AFA4FF00002764BFFF719F802462C
:1011E8000B4620462946FFF743F902460B461046B0
:1011F8001946FFF7F3FA03461AB23B681A80FA69F0
:10120800BB6913441846FFF77FFA04460D46786910
:10121800FFF77AFA4FF00002664BFEF7F9FF024635
:101228000B4620462946FFF723F902460B4610468F
:101238001946FFF7D3FA03461AB23B6C1A80B5E099
:101248003B6AFB61BB6ABB61FB69C3F10102BB6915
:10125800D31A7B61B869FFF757FA04460D467869D7
:10126800FFF752FA4FF00002524BFEF7D1FF024649
:101278000B4620462946FFF7FBF802460B46104668
:101288001946FFF7ABFA03461AB27B681A807869E9
:10129800FFF73AFA4FF00002464BFEF7B9FF024655
:1012A8000B4610461946FFF799FA03461AB23B68EF
:1012B8001A80FA69BB6913441846FFF725FA0446F1
:1012C8000D467869FFF720FA4FF00002394BFEF718
:1012D8009FFF02460B4620462946FFF7C9F80246FB
:1012E8000B4610461946FFF779FA03461AB23B6CCB
:1012F8001A805BE07B6A5B42FB613B6A5B42BB61D5
:10130800FB69C3F10102BB69D31A7B61FA69BB6946
:1013180013441846FFF7F8F904460D467869FFF7B5
:10132800F3F94FF00002234BFEF772FF02460B461B
:1013380020462946FFF79CF802460B4610461946F8
:10134800FFF74CFA03461AB27B681A807869FFF7F0
:10135800DBF94FF00002174BFEF75AFF02460B4627
:1013680010461946FFF73AFA03461AB23B681A8044
:10137800F869FFF7C9F904460D467869FFF7C4F91B
:101388004FF000020B4BFEF743FF02460B46204688
:101398002946FFF76DF802460B4610461946FFF737
:1013A8001DFA03461AB23B6C1A8000BF00BF3037E3
:1013B800BD46B0BD0000E03F80B485B000AFF86026
:1013C800B9607A603B607A68BB68D21AFB681A60B9
:1013D800FB685A68FB681B681A44FB685A60FB681C
:1013E8001A68344B1B68D21AFB689A60FB685B6802
:1013F800314A934202DDFB682F4A5A60FB685B68FA
:101408002E4A934202DAFB682C4A5A60FB6893ED35
:10141800047AFB681B6807EE903AF8EEE77A27EE45
:10142800277AFB68D3ED056AFB685B6807EE903A9C
:10143800F8EEE77A66EEA77A37EE277AFB68D3EDFF
:10144800066AFB689B6807EE903AF8EEE77A66EE64
:10145800A77A77EE277AFDEEE77A17EE902AFB68EF
:10146800DA60FB68DB68164A934202DDFB68144ABF
:10147800DA60FB68DB68134A934202DAFB68114AB8
:10148800DA60FB681B680B4A1360FB68DB680E4A6E
:1014980082FB03125213DB17D31A0C4A13600B4B4F
:1014A8001A683B681A6000BF1437BD465DF8047BB4
:1014B800704700BFA000002080969800806967FFF1
:1014C80080F0FA02800F05FD89B5F814A400002009
:1014D80080B500AF624B42F210729A81604BC8220D
:1014E800DA81604B42F210729A815E4BC822DA812F
:1014F80001F08FFE00F0DEF800F0F0FC00F026F9B5
:1015080000F0D6FA00F012FB00F040FC00F074FC8A
:1015180000F0D2F900F04CFA00F0E4FB00F034FAE5
:1015280000F090FC00F07EFA4F4806F011F9002117
:101538004E4807F0DDF804214C4807F0D9F8082197
:101548004A4807F0D5F80C21484807F0D1F800219F
:10155800464808F075FB0421444808F071FB08214F
:10156800424808F06DFB0021414807F0B3FA042116
:101578003F4807F0AFFA012001F0BCFE3D4B1B8845
:101588009AB23D4B1A80002204213C4805F0CCF861
:10159800022301223849344806F085F90122042142
:1015A800364805F0C1F8344B00221A800022042185
:1015B800324805F0B9F80223012231492A4806F0D9
:1015C800E0FA012204212D4805F0AEF82C4B1B88C7
:1015D8009BB2C3F30D039AB22A4B114619802A4BCA
:1015E8001A80274B00221A80284803F067FA284BF4
:1015F800284A1A61264B4FF07E525A61244B264ADC
:101608009A61264B1B889BB2012B19D1244B1B884E
:101618001BB21B121BB2DAB2224B5A70204B1B882A
:101628001BB2DAB21F4B9A701E4B55221A70012357
:1016380003221C491C4808F0E8FD184B00221A80B8
:101648004FF080431B689BB203F010039AB2174B0C
:101658001A80164B1B889AB2154B1A80D1E700BF27
:101668002826002050260020200200208402002086
:10167800D00200200400002008000020000C0048D0
:10168800480400204800002044040020A80000204E
:101698008026002000409C4600D856482626002078
:1016A8007C00002014000020B40300201E26002027
:1016B8001C26002080B594B000AF07F1180338222B
:1016C8000021184609F0BAFF3B1D00221A605A6033
:1016D8009A60DA601A61002005F062F80223BB61A3
:1016E8004FF480737B624023BB6202237B63022337
:1016F800BB630423FB6355233B6402237B640223FF
:10170800BB640223FB6407F11803184605F0FCF8D4
:101718000346002B01D000F055FF0F237B60032305
:10172800BB600023FB6000233B6100237B613B1D02
:101738000421184605F000FC0346002B01D000F0F8
:1017480041FF00BF5037BD4680BD000080B592B054
:1017580000AF07F13C0300221A605A609A603B46CA
:101768003C220021184609F069FF4E4B4FF0A04279
:101778001A604C4B4FF400225A604A4B00229A6080
:10178800484B0022DA60474B00221A61454B012280
:101798005A61444B04229A61424B00221A77414B0A
:1017A80000225A773F4B01221A623E4B002283F8EF
:1017B80024203C4B002283F838203A4B0022DA637D
:1017C800384B002283F84020364801F0E5FF0346F5
:1017D800002B01D000F0F6FE0023FB6307F13C0369
:1017E8001946304803F090FF0346002B01D000F063
:1017F800E9FE2D4B3B6009237B600223BB607F23FE
:10180800FB6004233B6100237B6104233B620023CC
:1018180087F82430002387F82530002387F82630FE
:101828008423BB628023FB62002387F830303B4669
:1018380019461C4803F088FA0346002B01D000F033
:10184800C1FE1A4B3B6040F20F137B603B461946C2
:10185800144803F079FA0346002B01D000F0B2FED9
:10186800134B3B6040F215237B603B4619460D48FD
:1018780003F06AFA0346002B01D000F0A3FE0D4BDB
:101888003B6040F21B337B603B461946054803F03A
:101898005BFA0346002B01D000F094FE00BF4837E6
:1018A800BD4680BDA8000020020030040400600886
:1018B800400020198000501D80B588B000AF3B461D
:1018C80020220021184609F0B9FE2C4B2C4A1A6038
:1018D8002A4B4FF400225A60284B00229A60274B6B
:1018E8000022DA60254B00221A61244B00225A613B
:1018F800224B04229A61214B00221A771F4B0022A7
:101908005A771E4B01221A621C4B002283F82420AE
:101918001A4B4FF4B462DA62184B4FF480621A63C0
:10192800164B002283F83820144B0022DA63134B3D
:10193800002283F84020114801F02EFF0346002BB7
:1019480001D000F03FFE0F4B3B6006237B60002375
:10195800BB607F23FB6004233B6100237B613B4624
:101968001946064802F0DAFA0346002B01D000F0C7
:1019780029FE00BF2037BD4680BD00BF14010020EE
:10198800000100500001802180B500AF064B074AD6
:101998001A60054803F05CFF0346002B01D000F0F5
:1019A80011FE00BF80BD00BF80010020000C024076
:1019B80080B58CB000AF3B4630220021184609F0B4
:1019C8003DFE164B164A1A60144804F082F8034686
:1019D800002B01D000F0F6FD02233B6000233B7191
:1019E80000237B710023BB600223FB6000233B6163
:1019F80000237B610123BB610023FB613B4600227E
:101A08001946064804F0ECF80346002B01D000F014
:101A1800D9FD00BF3037BD4680BD00BFA8010020FA
:101A28000008005080B500AF1F4B204A1A601E4BBB
:101A380000225A601C4B00229A601B4B0022DA607D
:101A4800194B00221A74184B00225A74164B0022A4
:101A58009A74154B10225A61134B01229A61124B4A
:101A68000222DA61104B02221A620F4B01225A62DB
:101A78000D4B01229A620C4B0122DA620A4B0122B9
:101A88001A63094B00225A63074B00229A63064BDC
:101A98000022DA63044804F015FB0346002B01D04A
:101AA80000F090FD00BF80BDBC0100200064004034
:101AB80080B500AF1B4B1C4A1A601A4B4FF4827258
:101AC8005A60184B00229A60164B4FF47062DA6025
:101AD800144B00221A61134B01225A61114B4FF427
:101AE80000729A610F4B1822DA610E4B00221A62BB
:101AF8000C4B00225A620B4B00229A62094B0722B8
:101B0800DA62084B00221A63064B00225A63054822
:101B180005F01EFE0346002B01D000F053FD00BF68
:101B280080BD00BF20020020003C004080B59CB072
:101B380000AF07F1600300221A605A609A60DA6009
:101B480007F1540300221A605A609A6007F13803BB
:101B580000221A605A609A60DA601A615A619A61C2
:101B68003B1D34220021184609F068FD5B4B5C4A96
:101B78001A605A4B07225A60584B20229A60574BDA
:101B88004FF47A72DA60554B00221A61534B0022E7
:101B98005A61524B00229A61504806F0F1FC034604
:101BA800002B01D000F00EFD4FF480533B6607F187
:101BB80060031946494807F0CFFA0346002B01D0C5
:101BC80000F000FD454806F032FD0346002B01D029
:101BD80000F0F8FC70237B654FF4E003BB6500233D
:101BE800FB6507F1540319463C4808F031F90346F0
:101BF800002B01D000F0E6FC6023BB630023FB63ED
:101C080000233B6408237B640023BB640023FB643C
:101C180000233B6507F13803002219462F4807F0D7
:101C280087F90346002B01D000F0CCFC07F13803FC
:101C380004221946294807F07BF90346002B01D0F6
:101C480000F0C0FC07F1380308221946234807F0C2
:101C58006FF90346002B01D000F0B4FC7023BB637E
:101C680040F2DE33FB6300237B6407F138030C2268
:101C780019461A4807F05CF90346002B01D000F01A
:101C8800A1FC00237B600023BB600023FB6046238C
:101C98003B6100237B614FF40053BB610023FB6170
:101CA80000233B6200237B624FF00073BB6200237A
:101CB800FB6200233B6300237B633B1D19460748F7
:101CC80008F048F90346002B01D000F07BFC0348DC
:101CD80000F052FF00BF7037BD4680BD840200206F
:101CE800002C014080B58CB000AF07F10C03242212
:101CF8000021184609F0A2FC3B4600221A605A60EF
:101D08009A60214B4FF080421A601F4B00225A60A4
:101D18001D4B00229A601C4B4FF4FA62DA601A4B92
:101D280000221A61184B00229A610123FB600023EC
:101D38003B6101237B610023BB610A23FB61002314
:101D48003B6201237B620023BB620A23FB6207F12B
:101D58000C0319460C4806F017FE0346002B01D069
:101D680000F030FC20233B600023BB603B46194653
:101D7800054808F06DF80346002B01D000F022FC5E
:101D880000BF3037BD4680BDD002002080B584B08A
:101D980000AF3B1D00221A605A609A60144B154A26
:101DA8001A60134B10225A60114B00229A60104B94
:101DB80040F2E732DA600E4B00229A610C4806F0D6
:101DC800DFFB0346002B01D000F0FCFB00237B6007
:101DD8000023FB603B1D1946054808F039F8034607
:101DE800002B01D000F0EEFB00BF1037BD4680BDD0
:101DF8001C0300200010004080B500AF0F4B104AB4
:101E08001A600E4B00225A600C4B00229A600B4B52
:101E18004FF6FF72DA60094B00221A61074B002265
:101E28005A61064B00229A61044806F0A9FB034652
:101E3800002B01D000F0C6FB00BF80BD6803002066
:101E48000048014080B500AF224B234A1A60214B5D
:101E58004FF416525A601F4B00229A601D4B002205
:101E6800DA601C4B00221A611A4B0C225A61194B7A
:101E780000229A61174B0022DA61164B00221A627F
:101E8800144B00225A62134B00229A62114808F040
:101E98006CF90346002B01D000F094FB00210D489B
:101EA80009F001FB0346002B01D000F08BFB002159
:101EB800084809F036FB0346002B01D000F082FBEE
:101EC800044809F0B7FA0346002B01D000F07AFB6A
:101ED80000BF80BDB40300200038014080B58AB03F
:101EE80000AF07F1140300221A605A609A60DA60A2
:101EF8001A613F4BDB6C3E4A43F00403D3643C4B0E
:101F0800DB6C03F004033B613B69394BDB6C384AFB
:101F180043F02003D364364BDB6C03F02003FB60F3
:101F2800FB68334BDB6C324A43F00103D364304B1C
:101F3800DB6C03F00103BB60BB682D4BDB6C2C4AE8
:101F480043F00203D3642A4BDB6C03F002037B608B
:101F58007B68274BDB6C264A43F00803D364244B89
:101F6800DB6C03F008033B603B68002220214FF044
:101F7800904004F0D9FB002204211E4804F0D4FB51
:101F88004FF400537B614FF48813BB610023FB615E
:101F980007F114031946184804F044FA20237B611A
:101FA8000123BB610023FB6100233B6207F114039B
:101FB80019464FF0904004F035FA04237B61012361
:101FC800BB610023FB6100233B6207F11403194640
:101FD800084804F027FA00220021282003F045FDD4
:101FE800282003F05CFD00BF2837BD4680BD00BF38
:101FF80000100240000C00480008004800000000E3
:10200800B0B586B002AF78604FF090435B694FF08F
:10201800904243F020035361094B1B78002B2ED1CB
:10202800084B4FF47A725A63064B4FF47A729A63EC
:10203800044B4FF47A72DA630023FB6018E000BFA8
:1020480050040020002C01400921AF4802F01CFE7A
:1020580003469AB2AD4B1A8040F21B31AA4802F0EF
:1020680013FE03469AB2A94B9A80FB680133FB60C2
:10207800FB68A74A9342E7DDA64B01221A700921A3
:10208800A14802F001FE03469AB2A34B1A8040F21F
:102098000F119D4802F0F8FD03469AB29E4B5A80F4
:1020A80040F21521984802F0EFFD03469AB29A4B88
:1020B8009A8040F21B31944802F0E6FD03469AB23A
:1020C800954BDA80914B1A88934B1B88D31A9AB296
:1020D800924B1A808D4B9A888F4BDB88D31A9AB211
:1020E8008F4B1A808C4B5A888E4B1A808E4B1B88CC
:1020F8009AB28E4B1A80002204218D4804F014FBFA
:102108000023009301238B4A88498B4805F069FE18
:1021180001220421864804F007FB864B1B889BB2EA
:10212800C3F30D039AB2854B11461980844B1A806C
:10213800FEF782FD794B1B889BB21AB2814B1A803D
:10214800764B1B889BB21A46754B1B889BB25B006B
:1021580013441846FEF7D8FA69A3D3E90023FEF71B
:1021680057F802460B4610461946FEF737FB03465A
:102178001AB2754B1A80744B1B881BB207EE903A43
:10218800B8EEE77A714B1B889BB2714AA2FB031227
:10219800920A4FF4876101FB02F29B1A9BB26D4AC7
:1021A8009B001344D3ED007A27EE277A654B1B88F2
:1021B8001BB207EE903AF8EEE76A644B1B889BB2B5
:1021C800634AA2FB0312920A4FF4876101FB02F2F1
:1021D8009B1A9BB2604A9B001344D3ED007A66EECB
:1021E800A77A77EE677AFDEEE77A17EE903A1AB299
:1021F8005A4B1A80534B1B881BB207EE903AB8EE25
:10220800E77A524B1B889BB2514AA2FB0312920AEF
:102218004FF4876101FB02F29B1A9BB24D4A9B0067
:102228001344D3ED007A27EE277A474B1B881BB25D
:1022380007EE903AF8EEE76A444B1B889BB2444A93
:10224800A2FB0312920A4FF4876101FB02F29B1A68
:102258009BB2414A9B001344D3ED007A66EEA77AFD
:1022680077EE277AFDEEE77A17EE903A1AB23C4BF2
:102278001A803A4B1B8819B23A4B1B681AB23A4B70
:102288003A48FEF771FC364B1B8819B2384B1B686D
:102298001AB2384B3848FEF767FC364B1B6807EE16
:1022A800903AB8EEE77A294B1B889BB2284AA2FBE2
:1022B8000312920A4FF4876101FB02F29B1A9BB248
:1022C800244A9B001344D3ED007A27EE277A264B45
:1022D8001B6807EE903AF8EEE76A1C4B1B889BB226
:1022E8001B4AA2FB0312920A4FF4876101FB02F218
:1022F8009B1A9BB2184A9B0013443FE0AFF300803F
:10230800105839B4C876E23FA80000209800002091
:102318003F420F0050040020900000207E00002063
:102328008000002082000020040000200800002017
:10233800000C00484804002020020020480000202B
:102348004404002056040020580400204A000020BD
:1023580049D6B9F23C1500205C0400206400002036
:10236800660000205C00002058000020282600207D
:10237800600000205400002050260020D3ED007A91
:1023880066EEA77A77EE677AFDEEE77A17EE902A7F
:10239800794B1A60794B1B6807EE903AB8EEE77AEA
:1023A800774B1B889BB2774AA2FB0312920A4FF421
:1023B800876101FB02F29B1A9BB2734A9B0013448C
:1023C800D3ED007A27EE277A704B1B6807EE903A18
:1023D800F8EEE76A6A4B1B889BB26A4AA2FB0312B3
:1023E800920A4FF4876101FB02F29B1A9BB2684A7A
:1023F8009B001344D3ED007A66EEA77A77EE277A2E
:10240800FDEEE77A17EE902A624B1A605A4B1B686A
:10241800614A13605F4B1B681846FEF775F954A3B1
:10242800D3E90023FDF7F4FE02460B4614461D4689
:10243800514B1B681846FEF767F902460B462046C3
:102448002946FEF713F802460B46104619464FF088
:102458000002524BFDF7DCFE02460B4610461946B9
:10246800FEF7BCF903464E4A13604A4B1B685B42B1
:102478001846FEF749F93EA3D3E90023FDF7C8FE45
:1024880002460B4614461D463B4B1B681846FEF792
:102498003BF902460B4620462946FDF7E7FF024670
:1024A8000B46104619464FF000023C4BFDF7B0FEB4
:1024B80002460B4610461946FEF790F90346394A7C
:1024C80013602D4B1868334B1968374B0093374B03
:1024D800374AFEF789FC304B1B68DA0F13445B1050
:1024E8009BB203F5FA739AB2324B1A802C4B1B68D5
:1024F800DA0F13445B109BB203F5FA739AB22E4BB2
:102508001A80284B1B68DA0F13445B109BB203F543
:10251800FA739AB2294B1A80254BB3F900309BB253
:1025280003F5FA739AB2234B1A80204BB3F90030A3
:102538009BB203F5FA739AB21F4B1A801A4BB3F980
:1025480000309BB203F5FA739AB21C4B1A80FEF75F
:10255800C1FB1B4B00221A804FF090435B694FF080
:10256800904223F03F03536100BF1037BD46B0BD12
:10257800AE47E17A14AEFB3F680000205800002007
:102588004A00002049D6B9F23C150020540000202A
:102598005C0400206C000020700000200000E03F78
:1025A80074000020780000208800002086000020A9
:1025B800840000208A0000208C0000208E0000206B
:1025C8004804002080B400AF72B600BFFEE70000E8
:1025D80080B582B000AF0F4B1B6E0E4A43F001036B
:1025E80013660C4B1B6E03F001037B607B68094B81
:1025F8009B6D084A43F080539365064B9B6D03F02F
:1026080080533B603B6804F06FF900BF0837BD4654
:1026180080BD00BF0010024080B59EB000AF78605A
:1026280007F1640300221A605A609A60DA601A613E
:1026380007F1200344220021184608F0FFFF7B68B9
:102648001B68B3F1A04F5ED14FF400433B624FF0DB
:102658000053FB6507F12003184604F089FE034682
:10266800002B01D0FFF7AEFF4E4B1B6801334D4ADC
:1026780013604C4B1B68012B0BD14B4BDB6C4A4A4C
:1026880043F40053D364484BDB6C03F40053FB6101
:10269800FB69454BDB6C444A43F00403D364424B6B
:1026A800DB6C03F00403BB61BB693F4BDB6C3E4A48
:1026B80043F00103D3643C4BDB6C03F001037B6103
:1026C8007B6903237B660323BB660023FB6607F154
:1026D80064031946354803F0A5FE03237B660323EC
:1026E800BB660023FB6607F1640319464FF0904070
:1026F80003F098FE00220021122003F0B6F9122000
:1027080003F0CDF949E07B681B68294A934244D11C
:102718004FF400433B624FF00053FB6507F1200381
:10272800184604F025FE0346002B01D0FFF74AFFA8
:102738001C4B1B6801331B4A13601A4B1B68012B87
:102748000BD1194BDB6C184A43F40053D364164B76
:10275800DB6C03F400533B613B69134BDB6C124A9F
:1027680043F00403D364104BDB6C03F00403FB60F9
:10277800FB6804237B660323BB660023FB6607F123
:1027880064031946094803F04DFE00220021122077
:1027980003F06BF9122003F082F900BF7837BD46C9
:1027A80080BD00BF782600200010024000080048C5
:1027B8000001005080B485B000AF78607B681B686A
:1027C8000A4A93420BD10A4B9B6C094A43F008030F
:1027D8009364074B9B6C03F00803FB60FB6800BF26
:1027E8001437BD465DF8047B704700BF000C0240FB
:1027F8000010024080B58AB000AF786007F114037A
:1028080000221A605A609A60DA601A617B681B6855
:10281800194A93422CD1194BDB6C184A43F4803384
:10282800D364164BDB6C03F480333B613B69134B79
:10283800DB6C124A43F00103D364104BDB6C03F0EA
:102848000103FB60FB6810237B610323BB6100234A
:10285800FB6107F1140319464FF0904003F0E2FDC5
:1028680000220021362003F000F9362003F017F982
:1028780000BF2837BD4680BD000800500010024048
:1028880080B59AB000AF786007F1540300221A604F
:102898005A609A60DA601A6107F110034422002135
:1028A800184608F0CBFE7B681B68204A934239D152
:1028B8004FF480533B614FF000733B6407F1100302
:1028C800184604F055FD0346002B01D0FFF77AFEA9
:1028D800174B9B6D164A43F000739365144B9B6D21
:1028E80003F00073FB60FB68114BDB6C104A43F08C
:1028F8000103D3640E4BDB6C03F00103BB60BB68C0
:102908004FF4C0537B650223BB650023FB6500239E
:102918003B6609237B6607F1540319464FF0904044
:1029280003F080FD00BF6837BD4680BD00640040ED
:102938000010024080B58AB000AF786007F1140338
:1029480000221A605A609A60DA601A617B681B6814
:10295800174A934228D1174B9B6D164A43F40043FC
:102968009365144B9B6D03F400433B613B69114B2A
:10297800DB6C104A43F00403D3640E4BDB6C03F0AA
:102988000403FB60FB684FF4E0537B610223BB61E7
:102998000023FB6100233B6206237B6207F11403DB
:1029A8001946054803F03EFD00BF2837BD4680BDE7
:1029B800003C0040001002400008004880B586B086
:1029C80000AF78607B681B68334A93422CD1334B45
:1029D8001B6E324A43F400631366304B1B6E03F4DC
:1029E80000637B617B6900220021182003F03DF819
:1029F800182003F054F800220021192003F035F8BC
:102A0800192003F04CF8002200211A2003F02DF8B9
:102A18001A2003F044F8002200211B2003F025F8B7
:102A28001B2003F03CF832E07B681B681C4A934289
:102A380014D11A4B9B6D194A43F010039365174B39
:102A48009B6D03F010033B613B6900220021362097
:102A580003F00BF8362003F022F818E07B681B68B7
:102A6800104A934213D10D4B1B6E0C4A43F480233A
:102A780013660A4B1B6E03F48023FB60FB6800227D
:102A880000211A2002F0F1FF1A2003F008F800BF15
:102A98001837BD4680BD00BF002C01400010024021
:102AA800001000400048014080B58AB000AF78604F
:102AB80007F1140300221A605A609A60DA601A61FA
:102AC8007B681B68B3F1804F4DD1294B9B6D284A19
:102AD80043F001039365264B9B6D03F001033B61B3
:102AE8003B69234BDB6C224A43F00103D364204B40
:102AF800DB6C03F00103FB60FB681D4BDB6C1C4ABD
:102B080043F00203D3641A4BDB6C03F00203BB608F
:102B1800BB684FF400437B610223BB610023FB6168
:102B280000233B6201237B6207F1140319464FF02F
:102B3800904003F077FC08237B610223BB610023EC
:102B4800FB6100233B6201237B6207F114031946F2
:102B5800084803F067FC002200211C2002F085FFD2
:102B68001C2002F09CFF00BF2837BD4680BD00BF77
:102B7800001002400004004880B58AB000AF7860B9
:102B880007F1140300221A605A609A60DA601A6129
:102B98007B681B68204A934239D1204BDB6C1F4A63
:102BA80043F00103D3641D4BDB6C03F001033B616D
:102BB8003B691A4BDB6C194A43F00203D364174B89
:102BC800DB6C03F00203FB60FB684FF4F0637B618E
:102BD8000223BB610023FB6100233B6206237B6267
:102BE80007F1140319464FF0904003F01BFC032330
:102BF8007B610223BB610023FB6100233B62062348
:102C08007B6207F114031946054803F00BFC00BF6B
:102C18002837BD4680BD00BF002C0140001002408F
:102C28000004004880B59AB000AF786007F15403FB
:102C380000221A605A609A60DA601A6107F110037C
:102C480044220021184608F0F9FC7B681B68224AD8
:102C580093423DD101233B6100237B6107F11003BF
:102C6800184604F085FB0346002B01D0FFF7AAFCA9
:102C78001A4B1B6E194A43F480431366174B1B6E9D
:102C880003F48043FB60FB68144BDB6C134A43F08E
:102C98000403D364114BDB6C03F00403BB60BB6813
:102CA80030237B650223BB650023FB6500233B665D
:102CB80007237B6607F154031946094803F0B2FB62
:102CC80000220021252002F0D0FE252002F0E7FE98
:102CD80000BF6837BD4680BD003801400010024083
:102CE8000008004880B400AFFEE780B400AFFEE7FC
:102CF80080B400AFFEE780B400AFFEE780B400AF59
:102D0800FEE780B400AF00BFBD465DF8047B7047A6
:102D180080B400AF00BFBD465DF8047B704780B447
:102D280000AF00BFBD465DF8047B704780B500AFBB
:102D3800684BB3F900309BB201339BB21AB2654BB2
:102D48001A80654B1B8801339AB2634B1A80634B18
:102D5800B3F900309BB201339BB21AB25F4B1A80B1
:102D68005D4B1B88052B40F054815D4B1B78DBB213
:102D7800012B40F04B815B4B1B889BB21AB25A4B1C
:102D88001A805A4B1B889BB2002B65D1584B1B8865
:102D98001BB21A46544B1B881BB2D31A0A2B0ADCE7
:102DA800534B1B881BB21A464F4B1B881BB2D31AB6
:102DB80013F10A0F50DA4C4B1B881AB24C4B1B8884
:102DC8001BB29A4217DD484B1B881BB21A46484B68
:102DD8001B881BB2D31A07EE903AF8EEE77A9FEDFC
:102DE800457A67EE877AFDEEE77A17EE903A1AB2DF
:102DF800414B1A8020E03C4B1B881AB23C4B1B8885
:102E08001BB29A4218DA3A4B1B881BB2C3F57F53A0
:102E18003F33354A128812B2134407EE903AF8EE5F
:102E2800E77A9FED347A67EE877AFDEEE77A17EE58
:102E3800903A1AB2304B1A802B4B1B881AB22C4B83
:102E48001B881BB29A4240F088802C4B00221A80C3
:102E5800294B00221A8080E0244B1B889BB2102B40
:102E68007BD1234B1B881BB21A461F4B1B881BB2F6
:102E7800D31A0A2B0ADC1E4B1B881BB21A461A4BA4
:102E88001B881BB2D31A13F10A0F66DA164B1B887C
:102E98001AB2174B1B881BB29A4231DD124B1B88A2
:102EA8001BB2C3F57F533F33114A128812B2134441
:102EB8005B4207EE903AF8EEE77A9FED0E7A67EEFE
:102EC800877AFDEEE77A17EE903A1AB20A4B1A8023
:102ED80035E000BFC426002046000020C62600209A
:102EE8001000002048000020540400201E26002066
:102EF80052040020EC51383F7C0000204C00002098
:102F08005A4B1B881AB25A4B1B881BB29A4216DAC4
:102F1800564B1B881BB21A46554B1B881BB2D31A3B
:102F280007EE903AF8EEE77A9FED527A67EE877AE5
:102F3800FDEEE77A17EE903A1AB24F4B1A804B4BD8
:102F48001B881AB24A4B1B881BB29A4205D14B4BBD
:102F580000221A80484B00221A80444B1B881AB260
:102F6800434B1A80464B1B889BB21AB2454B1A80BA
:102F7800444BB3F9003098B2434BB3F9003099B2DF
:102F8800424B1B889BB2424AFDF7CAFE03461A46CB
:102F9800404B1A80404BB3F90030012B07D13C4B12
:102FA80019683E4B1A683E4B3E48FEF705FA384B07
:102FB8001B681AB23C4B1A80324BB3F90020324BD3
:102FC8001A803A4B00221A802B4B1B881BB241F205
:102FD8007072934202DD284B00221A80264B1B8810
:102FE8001BB2334A934202DA234B00221A80314B38
:102FF8001B78DBB2012B09D11F4B1B8819B22E4B52
:103008001B881AB2264B2D48FDF7AEFD2C4B00222B
:103018001A802C4BB3F900309BB201339BB21AB221
:10302800284B1A80284BB3F900309BB201339BB26E
:103038001AB2254B1A80234BB3F900300A2B05D15D
:10304800224B01221A801F4B00221A801E4BB3F913
:103058000030642B05D11E4B01221A801A4B002226
:103068001A8000F029F900BF80BD00BF5404002079
:1030780052040020EC51383F7C0000204C00002016
:1030880048000020C8260020CA2600201C26002050
:10309800202600207C2600207E26002050000020CC
:1030A8005C00002080260020CC260020C6260020B8
:1030B80090E8FFFF44000020020000209C2600202A
:1030C80046000020CE260020D026002024260020FE
:1030D8002626002080B500AF034800F0E7FC03482F
:1030E80000F0E4FC00BF80BDA8000020140100200F
:1030F80080B500AF024805F09BFD00BF80BD00BF52
:103108008402002080B500AF024805F091FD00BFA1
:1031180080BD00BF8402002080B500AF034805F0E1
:1031280087FD034805F084FD00BF80BD84020020B0
:103138006803002080B500AF024805F079FD00BFA4
:1031480080BD00BF8402002080B500AF024805F0B2
:103158006FFD00BF80BD00BFD002002080B500AF6A
:10316800024807F0E9F800BF80BD00BFB4030020A3
:1031780080B500AF4FF4005003F0EEFA00BF80BDF9
:1031880080B500AF034805F053FD034802F0C3FCC7
:1031980000BF80BD1C030020A801002080B400AF40
:1031A800064BD3F88830054A43F47003C2F88830D8
:1031B80000BFBD465DF8047B704700BF00ED00E02E
:1031C8000D4885460D480E490E4A002302E0D458A2
:1031D800C4500433C4188C42F9D30B4A0B4C002357
:1031E80001E013600432A242FBD3FFF7D7FF08F0D7
:1031F8002DFAFEF76DF9FEE70080002000000020A0
:103208002800002004B7000828000020D826002045
:10321800FEE780B582B000AF0023FB71032002F007
:1032280019FC002000F00EF80346002B02D0012301
:10323800FB7101E0FFF7CCF9FB7918460837BD466A
:1032480080BD000080B584B000AF78600023FB73B8
:10325800164B1B68002B22D0154B1A68134B1B68A2
:103268004FF47A71B1FBF3F3B2FBF3F3184602F0B3
:1032780024FC0346002B0FD17B680F2B09D80022B2
:1032880079684FF0FF3002F0F0FB0A4A7B68136060
:1032980007E00123FB7304E00123FB7301E0012332
:1032A800FB73FB7B18461037BD4680BD2400002009
:1032B8001C0000202000002080B400AF054B1A68D5
:1032C800054B1B681344034A136000BFBD465DF8F5
:1032D800047B7047D42600202400002080B400AF6F
:1032E800034B1B681846BD465DF8047B704700BF5A
:1032F800D426002080B584B000AF7860FFF7EEFFD9
:10330800B8607B68FB60FB68B3F1FF3F04D0094BF2
:103318001B68FA681344FB6000BFFFF7DFFF024633
:10332800BB68D31AFA689A42F7D800BF00BF1037B3
:10333800BD4680BD2400002080B483B000AF786013
:1033480039607B689B6823F47C123B681A437B686E
:103358009A6000BF0C37BD465DF8047B704780B4A7
:1033680083B000AF786039607B689B6823F0E072B7
:103378003B681A437B689A6000BF0C37BD465DF80E
:10338800047B704780B483B000AF78607B689B682B
:1033980003F0E07318460C37BD465DF8047B7047B0
:1033A80080B487B000AFF860B9607A603B60FB68B2
:1033B80060331A46BB689B0013447B617B691A68BB
:1033C800084B13407A6802F0F8413A680A431343FD
:1033D80043F000427B691A6000BF1C37BD465DF8A8
:1033E800047B704700F0FF0380B485B000AF7860BD
:1033F80039607B6860331A463B689B001344FB6066
:10340800FB681B6803F0F84318461437BD465DF89F
:10341800047B704780B487B000AFF860B9607A6009
:10342800FB6860331A46BB689B0013447B617B6969
:103438001B6823F000427B681A437B691A6000BF4F
:103448001C37BD465DF8047B704780B487B000AF79
:10345800F860B9607A60FB6860331A46BB689B0005
:1034680013447B617B691B6823F080727B681A4375
:103478007B691A6000BF1C37BD465DF8047B704746
:1034880080B487B000AFF860B9607A60FB686033D9
:103498001A46BB689B0013447B617B691B6823F059
:1034A80000727B681A437B691A6000BF1C37BD46EF
:1034B8005DF8047B704780B483B000AF78603960F2
:1034C8007B685B6923F000423B681A437B685A615A
:1034D80000BF0C37BD465DF8047B704780B483B0ED
:1034E80000AF78607B68DB6803F44063002B01D190
:1034F800012300E0002318460C37BD465DF8047B25
:10350800704780B487B000AFF860B9607A60FB6834
:1035180030331A46BB681B0A9B0003F00C031344A4
:103528007B617B691A68BB6803F01F031F2101FADE
:1035380003F3DB431A407B689B0E03F01F01BB6853
:1035480003F01F0301FA03F31A437B691A6000BFF3
:103558001C37BD465DF8047B704780B483B000AF6C
:1035680078607B68DB6C03F4C073002B01D1012306
:1035780000E0002318460C37BD465DF8047B704711
:1035880080B487B000AFF860B9607A60FB68143324
:103598001A46BB685B0E9B0003F0040313447B616F
:1035A8007B691A68BB681B0D03F01F03072101FA2A
:1035B80003F3DB431A40BB681B0D03F01F03796854
:1035C80001FA03F31A437B691A6000BF1C37BD4632
:1035D8005DF8047B7047000080B485B000AFF860E8
:1035E800B9607A607B680F4A93420AD1FB68D3F8C6
:1035F800B020BB68C3F312031A43FB68C3F8B020BA
:103608000AE0FB68D3F8B020BB68C3F31203DB43BE
:103618001A40FB68C3F8B02000BF1437BD465DF8F8
:10362800047B704700007F4080B483B000AF7860AF
:103638007B689B6803F01F0318460C37BD465DF88E
:10364800047B704780B483B000AF78607B689B6868
:1036580003F4604318460C37BD465DF8047B704799
:1036680080B483B000AF78607B689B6823F0204308
:1036780023F03F037A68936000BF0C37BD465DF8BE
:10368800047B704780B483B000AF78607B689B6828
:1036980003F00053B3F1005F01D1012300E00023E0
:1036A80018460C37BD465DF8047B704780B483B07C
:1036B80000AF78607B689B6823F0104323F03F03DA
:1036C80043F080527B689A6000BF0C37BD465DF8B6
:1036D800047B704780B483B000AF78607B689B68D8
:1036E80003F08053B3F1805F01D1012300E0002390
:1036F80018460C37BD465DF8047B704780B483B02C
:1037080000AF78607B689B6823F0004323F03F0399
:1037180043F001027B689A6000BF0C37BD465DF834
:10372800047B704780B483B000AF78607B689B6887
:1037380003F00103012B01D1012300E00023184607
:103748000C37BD465DF8047B704780B483B000AF8A
:1037580078607B689B6803F00403042B01D1012384
:1037680000E0002318460C37BD465DF8047B70471F
:1037780080B483B000AF78607B689B6803F008036F
:10378800082B01D1012300E0002318460C37BD4661
:103798005DF8047B7047000090B589B000AF786091
:1037A8000023FB770023BB607B68002B01D101233A
:1037B80077E17B685B69002B7B68DB6D002B09D1A7
:1037C8007868FEF729FF7B6800221A667B6800226A
:1037D80083F858207B681B681846FFF753FF034699
:1037E800002B04D07B681B681846FFF739FF7B68FD
:1037F8001B681846FFF76EFF0346002B15D17B6840
:103808001B681846FFF752FF9C4B1B689B099C4A94
:10381800A2FB03239B0901335B00BB6002E0BB688A
:10382800013BBB60BB68002BF9D17B681B6818465D
:10383800FFF750FF0346002B0DD17B68DB6D43F08B
:1038480010027B68DA657B681B6E43F001027B68B7
:103858001A660123FB777B681B681846FFF775FF1C
:1038680078617B68DB6D03F01003002B40F010815A
:103878007B69002B40F00C817B68DB6D23F481733E
:1038880043F002027B68DA657B681B681846FFF71D
:1038980049FF0346002B11D14FF0A040FFF742FF2C
:1038A80004467848FFF73EFF03462343002B05D123
:1038B8007B685B6819467448FFF73EFD7B685B7F51
:1038C8005A037B68DB6B1A437B68DB681A437B68A7
:1038D8009B681A437B6893F824301B041343BB612D
:1038E8007B6893F82430012B06D17B689B6A013BE7
:1038F8005B04BA691343BB617B68DB6A002B09D0A0
:103908007B68DB6A03F478727B681B6B1343BA69C4
:103918001343BB617B681B68DA685C4B13407A68A9
:103928001268B9690B43D3607B681B681B6923F075
:1039380040617B685A6B7B681B680A431A617B6825
:103948001B681846FFF701FF38617B681B6818463B
:10395800FFF70EFFF8603B69002B6DD1FB68002B69
:103968006AD17B681B7F9A037B6893F838305B00C9
:103978001343BB617B681B68DB6823F4804323F037
:1039880002037A681268B9690B43D3607B681B69C4
:10399800002B17D07B681B681A697B681B6842F488
:1039A80080321A617B681B68D3F8C03023F47F53D8
:1039B80023F03F037A6811697A6812680B43C2F8EA
:1039C800C03013E07B681B681A697B681B6822F4A7
:1039D80080321A617B681B68D3F8C0307A68126835
:1039E80023F47F5323F03F03C2F8C0307B6893F879
:1039F8004030012B18D17B681B681B6923F4FF63D7
:103A080023F004037A68516C7A68926C11437A68DF
:103A1800D26C11437A68126D0A431A437B681B689B
:103A280042F001021A6107E07B681B681A697B682B
:103A38001B6822F001021A617B685B69012B0CD1BB
:103A48007B681B681B6B23F00F017B681B6A5A1E7F
:103A58007B681B680A431A6307E07B681B681A6B5C
:103A68007B681B6822F00F021A637B68DB6D23F00A
:103A7800030343F001027B68DA6511E01C000020B3
:103A8800632D3E0500010050000300500740F0FF81
:103A98007B68DB6D43F010027B68DA650123FB77F6
:103AA800FB7F18462437BD4690BD00BF80B58AB05D
:103AB80000AF786000237B627B681B681B68FB6132
:103AC8007B681B685B68BB618348FFF7ADFD786165
:103AD800FB6903F00203002B17D0BB6903F0020354
:103AE800002B12D07B68DB6D03F01003002B05D18F
:103AF8007B68DB6D43F400627B68DA65786801F007
:103B080019F97B681B6802221A60FB6903F0040339
:103B1800002B04D0BB6903F00403002B0AD1FB6916
:103B280003F00803002B00F08580BB6903F008034D
:103B3800002B7FD07B68DB6D03F01003002B05D1D1
:103B48007B68DB6D43F400727B68DA657B681B6811
:103B58001846FFF7C3FC0346002B64D07B681B683C
:103B68005E4A934202D07B681B6801E04FF0A04395
:103B78007A681268934208D07B69002B05D07B696C
:103B8800052B02D07B69092B04D17B681B68DB6895
:103B98003B620DE07B681B68504A934202D07B6809
:103BA8001B6801E04FF0A0433B613B69DB683B6267
:103BB8003B6A03F40053002B35D17B681B681B68F4
:103BC80003F00803082B2ED17B681B681846FFF703
:103BD800BCFD0346002B1AD17B681B685A687B68BA
:103BE8001B6822F00C025A607B68DB6D23F480723C
:103BF8007B68DA657B68DB6D03F48053002B12D198
:103C08007B68DB6D43F001027B68DA650BE07B685B
:103C1800DB6D43F010027B68DA657B681B6E43F04E
:103C280001027B681A66786800F05AF97B681B689D
:103C38000C221A60FB6903F02003002B04D0BB6937
:103C480003F02003002B0BD1FB6903F04003002B8A
:103C580000F09E80BB6903F04003002B00F09880C1
:103C68007B68DB6D03F01003002B05D17B68DB6DEF
:103C780043F400527B68DA657B681B681846FFF7D7
:103C88006CFCF8607B681B681846FFF727FCB86077
:103C98007B681B68114A934202D07B681B6801E06D
:103CA8004FF0A0437A681268934208D07B69002BD2
:103CB80005D07B69062B02D07B69072B04D17B6872
:103CC8001B68DB683B6211E07B681B68034A934210
:103CD80006D07B681B6805E0000300500001005017
:103CE8004FF0A0433B613B69DB683B62FB68002BFC
:103CF80047D03B6A03F00073002B07D0BB68002B4A
:103D08003FD03B6A03F40053002B3AD17B681B6811
:103D18001B6803F04003402B33D13B6A03F40013C4
:103D2800002B2ED17B681B681846FFF721FD034640
:103D3800002B1AD17B681B685A687B681B6822F0C5
:103D480060025A607B68DB6D23F480527B68DA6519
:103D58007B68DB6D03F48073002B12D17B68DB6D0D
:103D680043F001027B68DA650BE07B68DB6D43F0AA
:103D780010027B68DA657B681B6E43F001027B6882
:103D88001A667868FEF73CF97B681B6860221A603F
:103D9800FB6903F08003002B11D0BB6903F080039B
:103DA800002B0CD07B68DB6D43F480327B68DA65CE
:103DB800786800F09FF87B681B6880221A60FB69AE
:103DC80003F48073002B12D0BB6903F48073002BBB
:103DD8000DD07B68DB6D43F400327B68DA65786868
:103DE80000F094FF7B681B684FF480721A60FB69CF
:103DF80003F40073002B12D0BB6903F40073002B8B
:103E08000DD07B68DB6D43F480227B68DA657868C7
:103E180000F086FF7B681B684FF400721A60FB692C
:103E280003F01003002B36D0BB6903F01003002BFE
:103E380031D07B68DB6B002B02D101237B6214E05D
:103E48007B69002B08D02548FFF7FCFB0346002BB5
:103E58000BD001237B6208E07B681B68DB6803F0FA
:103E68000103002B01D001237B627B6A012B0ED159
:103E78007B68DB6D43F480627B68DA657B681B6E68
:103E880043F002027B681A66786800F03DF87B68A8
:103E98001B6810221A60FB6903F48063002B18D09A
:103EA800BB6903F48063002B13D07B68DB6D43F49C
:103EB80080427B68DA657B681B6E43F008027B688A
:103EC8001A667B681B684FF480621A60786800F095
:103ED80013FF00BF2837BD4680BD00BF0003005058
:103EE80080B483B000AF786000BF0C37BD465DF882
:103EF800047B704780B483B000AF786000BF0C3794
:103F0800BD465DF8047B704780B483B000AF78602D
:103F180000BF0C37BD465DF8047B704780B5B6B06E
:103F280000AF78603960002387F8D7300023FB6042
:103F38007B6893F85830012B01D10223C8E37B68D2
:103F4800012283F858207B681B681846FFF7FDFBA1
:103F58000346002B40F0AD837B6818683B685968BE
:103F68003B681B681A46FFF7CCFA7B681B68184643
:103F7800FFF7EBFBC7F8D0007B681B681846FFF714
:103F8800F7FBC7F8CC00D7F8D030002B40F0D98128
:103F9800D7F8CC30002B40F0D4813B689B68B3F154
:103FA800004F0FD17B6818683B681B6800221946D0
:103FB800FFF7E6FA7B681B684FF000411846FFF7E9
:103FC8007AFA0EE07B6818683B6819683B689B685A
:103FD8001A46FFF7D5FA7B681B6800211846FFF7D9
:103FE8006AFA3B685A697B681B68DB68DB0803F080
:103FF80003035B0002FA03F3C7F8C8303B681B6988
:10400800042B22D07B6818683B6819693B681A68DA
:10401800D7F8C830FFF7C4F97B6818683B68196996
:104028003B689B691A46FFF710FA7B6818683B687B
:1040380019693B681B7F012B02D14FF0007300E028
:1040480000231A46FFF71CFA7BE17B681B680021F6
:104058001846FFF7C9F90346C3F31203002B0AD128
:104068007B681B6800211846FFF7BEF903469B0EC4
:1040780003F01F021EE07B681B6800211846FFF74B
:10408800B3F90346C7F8BC30D7F8BC3093FAA3F3AA
:10409800C7F8B830D7F8B830C7F8C030D7F8C0304C
:1040A800002B01D1202304E0D7F8C030B3FA83F302
:1040B800DBB21A463B681B68C3F31203002B05D119
:1040C8003B681B689B0E03F01F0318E03B681B68E6
:1040D800C7F8B030D7F8B03093FAA3F3C7F8AC30CC
:1040E800D7F8AC30C7F8B430D7F8B430002B01D1CA
:1040F800202304E0D7F8B430B3FA83F3DBB29A4252
:1041080006D17B681B68002200211846FFF782F958
:104118007B681B6801211846FFF766F90346C3F35D
:104128001203002B0AD17B681B6801211846FFF790
:104138005BF903469B0E03F01F021EE07B681B68B9
:1041480001211846FFF750F90346C7F8A430D7F8FD
:10415800A43093FAA3F3C7F8A030D7F8A030C7F873
:10416800A830D7F8A830002B01D1202304E0D7F8D5
:10417800A830B3FA83F3DBB21A463B681B68C3F373
:104188001203002B05D13B681B689B0E03F01F032D
:1041980018E03B681B68C7F89830D7F8983093FA4E
:1041A800A3F3C7F89430D7F89430C7F89C30D7F801
:1041B8009C30002B01D1202304E0D7F89C30B3FABF
:1041C80083F3DBB29A4206D17B681B680022012187
:1041D8001846FFF71FF97B681B6802211846FFF78E
:1041E80003F90346C3F31203002B0AD17B681B684B
:1041F80002211846FFF7F8F803469B0E03F01F024A
:104208001EE07B681B6802211846FFF7EDF803469D
:10421800C7F88C30D7F88C3093FAA3F3C7F88830F6
:10422800D7F88830C7F89030D7F89030002B01D1F4
:10423800202304E0D7F89030B3FA83F3DBB21A46B0
:104248003B681B68C3F31203002B05D13B681B684E
:104258009B0E03F01F0316E03B681B68C7F880300D
:10426800D7F8803093FAA3F3FB67FB6FC7F8843065
:10427800D7F88430002B01D1202304E0D7F884300C
:10428800B3FA83F3DBB29A4206D17B681B6800223B
:1042980002211846FFF7BEF87B681B680321184601
:1042A800FFF7A2F80346C3F31203002B0AD17B6879
:1042B8001B6803211846FFF797F803469B0E03F087
:1042C8001F0217E07B681B6803211846FFF78CF86C
:1042D80003467B677B6F93FAA3F33B673B6FBB6730
:1042E800BB6F002B01D1202303E0BB6FB3FA83F32C
:1042F800DBB21A463B681B68C3F31203002B05D1D7
:104308003B681B689B0E03F01F0311E03B681B68AA
:10431800BB66BB6E93FAA3F37B667B6EFB66FB6E94
:10432800002B01D1202303E0FB6EB3FA83F3DBB249
:104338009A4206D17B681B68002203211846FFF7C2
:1043480069F87B681B681846FFF7ECF90346002BF1
:1043580040F040817B6818683B6819683B68DB68F7
:104368001A46FFF739F93B68DB688F4A934240F0F9
:1043780031817B6818683B681B68C3F31203002B04
:104388000BD13B681B689B0E013303F01F03092BFD
:1043980094BF01230023DBB219E03B681B68FB656F
:1043A800FB6D93FAA3F3BB65BB6D3B663B6E002BBD
:1043B80001D1202303E03B6EB3FA83F3DBB2013370
:1043C80003F01F03092B94BF01230023DBB2002B4A
:1043D80079D03B681B68C3F31203002B07D13B68F5
:1043E8001B689B0E01339B0603F0F84215E03B68FF
:1043F8001B683B653B6D93FAA3F3FB64FB6C7B6521
:104408007B6D002B01D1202303E07B6DB3FA83F38E
:10441800DBB201339B0603F0F8423B681B68C3F329
:104428001203002B09D13B681B689B0E013303F074
:104438001F03012101FA03F317E03B681B687B6443
:104448007B6C93FAA3F33B643B6CBB64BB6C002BA3
:1044580001D1202303E0BB6CB3FA83F3DBB2013351
:1044680003F01F03012101FA03F342EA03013B6849
:104478001B68C3F31203002B0AD13B681B689B0E11
:10448800013303F01F0213465B0013441B0518E0B9
:104498003B681B68BB63BB6B93FAA3F37B637B6BC3
:1044A800FB63FB6B002B01D1202303E0FB6BB3FA0A
:1044B80083F3DBB2013303F01F0213465B0013449E
:1044C8001B050B4381E03B681B68C3F31203002BF9
:1044D80007D13B681B689B0E01339B0603F0F8422B
:1044E80015E03B681B68FB62FB6A93FAA3F3BB62A7
:1044F800BB6A3B633B6B002B01D1202303E03B6B82
:10450800B3FA83F3DBB201339B0603F0F8423B684E
:104518001B68C3F31203002B09D13B681B689B0E71
:10452800013303F01F03012101FA03F317E03B688D
:104538001B683B623B6A93FAA3F3FB61FB697B62EE
:104548007B6A002B01D1202303E07B6AB3FA83F353
:10455800DBB2013303F01F03012101FA03F342EA3E
:1045680003013B681B68C3F31203002B0DD13B68A2
:104578001B689B0E013303F01F0213465B001344B4
:104588001E3B1B0543F000731EE03B681B687B6104
:104598007B6993FAA3F33B613B69BB61BB69002B61
:1045A80004D1202306E000BF00007F40BB69B3FAB6
:1045B80083F3DBB2013303F01F0213465B0013449D
:1045C8001E3B1B0543F000730B433A68926819467B
:1045D800FEF7D6FF3B681A683F4B1340002B71D09B
:1045E8003E48FEF7CFFEC7F8C4003B681B683C4A4C
:1045F800934204D03B681B683A4A934227D1D7F8C4
:10460800C43003F40003002B21D17B681B68B3F18D
:10461800A04F57D1D7F8C43043F4000319462F48A8
:10462800FEF79DFE304B1B689B09304AA2FB032313
:104638009B095A1C13465B0013449B00FB6002E075
:10464800FB68013BFB60FB68002BF9D13AE03B6853
:104658001B68274A934213D1D7F8C43003F08073FC
:10466800002B0DD17B681B68224A93422AD0D7F8C9
:10467800C43043F0807319461848FEF770FE21E0F5
:104688003B681B681C4A93421CD1D7F8C43003F41A
:104698008003002B16D17B681B68164A934211D001
:1046A800D7F8C43043F4800319460C48FEF757FE88
:1046B80008E07B68DB6D43F020027B68DA65012344
:1046C80087F8D7307B68002283F8582097F8D730CE
:1046D8001846D837BD4680BD00000880000300504A
:1046E800000021C31000C0901C000020632D3E056F
:1046F800000052C700010050000084CB80B584B090
:1047080000AF78607B681B681846FFF70BF8034614
:10471800002B4DD17B681B689A68284B1340002BEF
:104728000DD07B68DB6D43F010027B68DA657B682F
:104738001B6E43F001027B681A66012339E07B682F
:104748001B681846FEF7DAFFFEF7C8FDF86028E098
:104758007B681B681846FEF7E5FF0346002B04D16B
:104768007B681B681846FEF7C9FFFEF7B7FD0246CF
:10477800FB68D31A022B14D97B681B681B6803F0EB
:104788000103012B0DD07B68DB6D43F010027B68C1
:10479800DA657B681B6E43F001027B681A660123A9
:1047A80007E07B681B681B6803F00103012BCFD16E
:1047B800002318461037BD4680BD00BF3F0000806B
:1047C80080B483B000AF786039607B689B6823F061
:1047D800E0723B681A437B689A6000BF0C37BD469D
:1047E8005DF8047B704780B483B000AF78607B6865
:1047F8009B6803F0E07318460C37BD465DF8047BF0
:104808007047000080B487B000AFF860B9607A6084
:104818003B60FB6860331A46BB689B0013447B61AE
:104828007B691A68084B13407A6802F0F8413A68C5
:104838000A43134343F000427B691A6000BF1C37E8
:10484800BD465DF8047B704700F0FF0380B485B077
:1048580000AF786039607B6860331A463B689B001C
:104868001344FB60FB681B6803F0F84318461437D1
:10487800BD465DF8047B704780B487B000AFF86030
:10488800B9607A60FB6860331A46BB689B001344C2
:104898007B617B691B6823F000427B681A437B6954
:1048A8001A6000BF1C37BD465DF8047B704780B4B2
:1048B80087B000AFF860B9607A60FB6860331A4669
:1048C800BB689B0013447B617B691B6823F0807283
:1048D8007B681A437B691A6000BF1C37BD465DF8C8
:1048E800047B704780B487B000AFF860B9607A6025
:1048F800FB6860331A46BB689B0013447B617B6985
:104908001B6823F000727B681A437B691A6000BF3A
:104918001C37BD465DF8047B704780B483B000AF98
:10492800786039607B685B6923F000423B681A4312
:104938007B685A6100BF0C37BD465DF8047B704741
:1049480080B483B000AF78607B68DB6803F00073E5
:1049580018460C37BD465DF8047B704780B487B0B5
:1049680000AFF860B9607A60FB6814331A46BB6818
:104978005B0E9B0003F0040313447B617B691A6898
:10498800BB681B0D03F01F03072101FA03F3DB4388
:104998001A40BB681B0D03F01F03796801FA03F383
:1049A8001A437B691A6000BF1C37BD465DF8047B5B
:1049B8007047000080B485B000AFF860B9607A60D5
:1049C8007B680F4A93420AD1FB68D3F8B020BB68D2
:1049D800C3F312031A43FB68C3F8B0200AE0FB686C
:1049E800D3F8B020BB68C3F31203DB431A40FB685B
:1049F800C3F8B02000BF1437BD465DF8047B70478C
:104A080000007F4080B483B000AF78607B689B680B
:104A180003F01F0318460C37BD465DF8047B70474A
:104A280080B483B000AF78607B689B6803F00103B3
:104A3800012B01D1012300E0002318460C37BD46A5
:104A48005DF8047B704780B483B000AF78607B6802
:104A58009B6803F00403042B01D1012300E0002329
:104A680018460C37BD465DF8047B704780B483B0A8
:104A780000AF78607B689B6823F0004323F03F0316
:104A880043F008027B689A6000BF0C37BD465DF8AA
:104A9800047B704780B483B000AF78607B689B6804
:104AA80003F00803082B01D1012300E00023184676
:104AB8000C37BD465DF8047B7047000080B586B0B2
:104AC80000AF78606E48FFF79DFF78617B681B68D0
:104AD8001846FFF7DFFF0346002B01D00223CAE088
:104AE8007B681B68DB6803F000433B617B681B68DD
:104AF800DB6C03F4C073002B0AD13B69002B07D190
:104B08007B68DB6D43F020027B68DA650123B2E045
:104B18007B6893F85830012B01D10223ABE07B6806
:104B2800012283F858207868FFF7E8FD0346FB73F5
:104B3800FB7B002B40F09A807B68DB6D03F480736D
:104B4800002B06D07B681B6E23F008027B681A6670
:104B580002E07B6800221A667B68DB6D23F4405311
:104B680023F0010343F480527B68DA657B681B6895
:104B7800444A934202D07B681B6801E04FF0A0438F
:104B88007A681268934202D07B69002B05D17B6852
:104B9800DB6D23F480127B68DA657B681B68602212
:104BA8001A607B68002283F858207B681B68DB68E2
:104BB80003F40013002B07D07B681B685A687B68D6
:104BC8001B6842F480625A607B689B69082B10D18D
:104BD8007B681B685A687B681B6822F020025A6051
:104BE8007B681B685A687B681B6842F040025A6001
:104BF80010E07B681B685A687B681B6822F04002DB
:104C08005A607B681B685A687B681B6842F0200200
:104C18005A6000BF7B681B681A4A934202D07B68BF
:104C28001B6801E04FF0A0437A681268934208D0ED
:104C38007B69002B05D07B69062B02D07B69072B8B
:104C48000DD17B681B681846FFF77AFE0346002BD8
:104C580010D17B681B681846FFF708FF0AE07B68DD
:104C6800DB6D43F480127B68DA6503E07B68002221
:104C780083F85820FB7B18461837BD4680BD00BF17
:104C8800000300500001005080B485B000AF786088
:104C980039603B6840F21B3293420ED03B68B3F553
:104CA800477F1CD23B6840F20F12934211D03B68F9
:104CB80040F21522934206D011E07B681B68D3F8B6
:104CC8008C30FB6011E07B681B68D3F88830FB6090
:104CD8000BE07B681B68D3F88430FB6005E07B68D9
:104CE8001B68D3F88030FB6000BFFB681846143798
:104CF800BD465DF8047B704780B483B000AF786030
:104D080000BF0C37BD465DF8047B704780B483B0A4
:104D180000AF786000BF0C37BD465DF8047B704774
:104D280080B483B000AF786000BF0C37BD465DF833
:104D3800047B704780B483B000AF786000BF0C3745
:104D4800BD465DF8047B704780B5B6B000AF7860AB
:104D58003960002387F8D7300023BB600023C7F8E9
:104D6800D0307B6893F85830012B02D1022300F031
:104D7800B5BC7B68012283F858207B685B69002BEF
:104D880003D03B681B6A012B30D13B685B68092B59
:104D980079D13B689B6A002B10D03B681B689B0E3F
:104DA8005B0203F478523B689B6A03F07C031A4366
:104DB8003B68DB6A1343C7F8D03007E03B681B68E1
:104DC8009B0E5B0203F47853C7F8D0307B681B68EE
:104DD800DA6C844B13407A681268D7F8D0100B430A
:104DE800D3647B68D7F8D0205A664CE07B689B6E0A
:104DF800002B1DD13B681A6A7B689A667B68002283
:104E08005A663B689B6A002B0DD03B681B6A5A1E8A
:104E18003B689B6A03F07C031A433B68DB6A1343D5
:104E2800C7F8D03004E03B681B6A013BC7F8D030B4
:104E38003B681B689B0E03F01F023B685B6803F02E
:104E48001F0302FA03F3D7F8D0201343C7F8D03072
:104E58007B689B6E5A1E7B689A667B685A6ED7F889
:104E6800D0301A437B685A667B689B6E002B0AD148
:104E78007B681B68DA6C5B4B13407A68516E7A6802
:104E880012680B43D3647B681B681846FFF702FE61
:104E98000346002B24D13B6893F82530002B12D110
:104EA8007B681B68DB6823F440113B6893F8263065
:104EB8005A053B6893F824301B051A437B681B6826
:104EC8000A43DA600CE07B681B68DB6823F4401156
:104ED8003B6893F826305A057B681B680A43DA60FA
:104EE8007B681B681846FFF7AEFDC7F8CC007B68E7
:104EF8001B681846FFF7CEFDC7F8C800D7F8CC30B6
:104F0800002B40F02E82D7F8C830002B40F02982C1
:104F18003B689B6A002B03D03B68DB6A002B16D1E9
:104F28003B6893F82530012B08D17B681B68DA6849
:104F38007B681B6842F00072DA601FE07B681B68C0
:104F4800DA687B681B6822F00072DA6016E03B685A
:104F580093F82530012B09D17B68DB6D43F02002E3
:104F68007B68DA65012387F8D73007E07B681B6820
:104F7800DA687B681B6822F00072DA603B6893F895
:104F88003030012B10D17B681B681B6923F4FF723A
:104F98003B68596B3B689B6B0B431A437B681B68E8
:104FA80042F002021A6107E07B681B681A697B6895
:104FB8001B6822F002021A613B689B68B3F1004F3C
:104FC80012D17B6818683B681B6800221946FFF7F6
:104FD800C5FC7B681B684FF000411846FFF79DFC35
:104FE80011E000BF004010047B6818683B6819682E
:104FF8003B689B681A46FFF7B1FC7B681B68002179
:105008001846FFF78AFC3B685A697B681B68DB68AF
:10501800DB0803F003035B0002FA03F3C7F8C430AC
:105028003B681B69042B22D07B6818683B681969A8
:105038003B681A68D7F8C430FFF7E4FB7B68186848
:105048003B6819693B689B691A46FFF730FC7B6827
:1050580018683B6819693B681B7F012B02D14FF028
:10506800007300E000231A46FFF73CFC79E17B68F7
:105078001B6800211846FFF7E9FB0346C3F3120338
:10508800002B0AD17B681B6800211846FFF7DEFB5E
:1050980003469B0E03F01F021EE07B681B6800217D
:1050A8001846FFF7D3FB0346C7F8B830D7F8B8302F
:1050B80093FAA3F3C7F8B430D7F8B430C7F8BC30C4
:1050C800D7F8BC30002B01D1202304E0D7F8BC303E
:1050D800B3FA83F3DBB21A463B681B68C3F31203C7
:1050E800002B05D13B681B689B0E03F01F0318E0DB
:1050F8003B681B68C7F8AC30D7F8AC3093FAA3F319
:10510800C7F8A830D7F8A830C7F8B030D7F8B0300B
:10511800002B01D1202304E0D7F8B030B3FA83F391
:10512800DBB29A4206D17B681B6800220021184630
:10513800FFF7A2FB7B681B6801211846FFF786FB77
:105148000346C3F31203002B0AD17B681B680121B5
:105158001846FFF77BFB03469B0E03F01F021EE079
:105168007B681B6801211846FFF770FB0346C7F8E8
:10517800A030D7F8A03093FAA3F3C7F89C30D7F83B
:105188009C30C7F8A430D7F8A430002B01D12023D5
:1051980004E0D7F8A430B3FA83F3DBB21A463B68CD
:1051A8001B68C3F31203002B05D13B681B689B0ED9
:1051B80003F01F0318E03B681B68C7F89430D7F862
:1051C800943093FAA3F3C7F89030D7F89030C7F823
:1051D8009830D7F89830002B01D1202304E0D7F875
:1051E8009830B3FA83F3DBB29A4206D17B681B6826
:1051F800002201211846FFF73FFB7B681B6802214C
:105208001846FFF723FB0346C3F31203002B0AD10A
:105218007B681B6802211846FFF718FB03469B0EA4
:1052280003F01F021EE07B681B6802211846FFF787
:105238000DFB0346C7F88830D7F8883093FAA3F3F4
:10524800C7F88430D7F88430C7F88C30D7F88C305A
:10525800002B01D1202304E0D7F88C30B3FA83F374
:10526800DBB21A463B681B68C3F31203002B05D157
:105278003B681B689B0E03F01F0314E03B681B6828
:10528800FB67FB6F93FAA3F3BB67BB6FC7F880306C
:10529800D7F88030002B01D1202304E0D7F88030E4
:1052A800B3FA83F3DBB29A4206D17B681B6800220B
:1052B80002211846FFF7E0FA7B681B6803211846AD
:1052C800FFF7C4FA0346C3F31203002B0AD17B6825
:1052D8001B6803211846FFF7B9FA03469B0E03F033
:1052E8001F0217E07B681B6803211846FFF7AEFA18
:1052F80003463B673B6F93FAA3F3FB66FB6E7B6742
:105308007B6F002B01D1202303E07B6FB3FA83F37B
:10531800DBB21A463B681B68C3F31203002B05D1A6
:105328003B681B689B0E03F01F0311E03B681B687A
:105338007B667B6E93FAA3F33B663B6EBB66BB6EE4
:10534800002B01D1202303E0BB6EB3FA83F3DBB259
:105358009A4206D17B681B68002203211846FFF792
:105368008BFA7B681B681846FFF75AFB0346002B2D
:1053780040F040817B6818683B6819683B68DB68C7
:105388001A46FFF717FB3B68DB688F4A934240F0E9
:1053980031817B6818683B681B68C3F31203002BD4
:1053A8000BD13B681B689B0E013303F01F03092BCD
:1053B80094BF01230023DBB219E03B681B68BB657F
:1053C800BB6D93FAA3F37B657B6DFB65FB6D002BCF
:1053D80001D1202303E0FB6DB3FA83F3DBB2013381
:1053E80003F01F03092B94BF01230023DBB2002B1A
:1053F80079D03B681B68C3F31203002B07D13B68C5
:105408001B689B0E01339B0603F0F84215E03B68CE
:105418001B68FB64FB6C93FAA3F3BB64BB6C3B6532
:105428003B6D002B01D1202303E03B6DB3FA83F3DE
:10543800DBB201339B0603F0F8423B681B68C3F3F9
:105448001203002B09D13B681B689B0E013303F044
:105458001F03012101FA03F317E03B681B683B6453
:105468003B6C93FAA3F3FB63FB6B7B647B6C002BB5
:1054780001D1202303E07B6CB3FA83F3DBB2013361
:1054880003F01F03012101FA03F342EA03013B6819
:105498001B68C3F31203002B0AD13B681B689B0EE1
:1054A800013303F01F0213465B0013441B0518E089
:1054B8003B681B687B637B6B93FAA3F33B633B6B93
:1054C800BB63BB6B002B01D1202303E0BB6BB3FA9A
:1054D80083F3DBB2013303F01F0213465B0013446E
:1054E8001B050B4381E03B681B68C3F31203002BC9
:1054F80007D13B681B689B0E01339B0603F0F842FB
:1055080015E03B681B68BB62BB6A93FAA3F37B6236
:105518007B6AFB62FB6A002B01D1202303E0FB6A54
:10552800B3FA83F3DBB201339B0603F0F8423B681E
:105538001B68C3F31203002B09D13B681B689B0E41
:10554800013303F01F03012101FA03F317E03B685D
:105558001B68FB61FB6993FAA3F3BB61BB693B6200
:105568003B6A002B01D1202303E03B6AB3FA83F3A3
:10557800DBB2013303F01F03012101FA03F342EA0E
:1055880003013B681B68C3F31203002B0DD13B6872
:105598001B689B0E013303F01F0213465B00134484
:1055A8001E3B1B0543F000731EE03B681B683B6114
:1055B8003B6993FAA3F3FB60FB687B617B69002B73
:1055C80004D1202306E000BF00007F407B69B3FAC6
:1055D80083F3DBB2013303F01F0213465B0013446D
:1055E8001E3B1B0543F000730B433A68926819464B
:1055F800FFF7B4F93B681A683A4B1340002B67D0A1
:105608003948FFF7F0F8C7F8C0003B681B68374A0D
:10561800934204D03B681B68354A934227D1D7F898
:10562800C03003F40003002B21D17B681B68B3F161
:10563800A04F4DD1D7F8C03043F4000319462A488B
:10564800FFF7BEF82B4B1B689B092B4AA2FB0323D1
:105658009A0913465B0013449B001833BB6002E0B1
:10566800BB68013BBB60BB68002BF9D130E03B68ED
:105678001B68224A934213D1D7F8C03003F08073D5
:10568800002B0DD17B681B681D4A934220D0D7F8A8
:10569800C03043F0807319461348FFF791F817E0BC
:1056A8003B681B68174A934212D1D7F8C03003F4FD
:1056B8008003002B0CD17B681B68114A934207D0EA
:1056C800D7F8C03043F4800319460748FFF778F845
:1056D8007B68002283F8582097F8D7301846D837C7
:1056E800BD4680BD0000088000030050000021C3B3
:1056F8001000C0901C000020632D3E05000052C71A
:1057080000010050000084CB90B5A1B000AF7860D4
:105718003960002387F87F307B6893F85830012B75
:1057280001D102238BE07B68012283F858200023F3
:105738007B660023BB667B681B68B3F1A04F02D170
:10574800414BBB6001E00023BB60BB68002B0BD161
:105758007B68DB6D43F020027B68DA657B6800229A
:1057680083F8582001236AE0BB681846FFF76BF9F5
:10577800B8677B681B681846FFF765F90346002B76
:105788004CD1BB6F002B49D1304B7B673B681B6802
:10579800002B28D07B6F9B6823F460423B685968D4
:1057A8007B6893F838305B030B431A437B6F9A602E
:1057B8004FF0A040FFF734F904462348FFF730F9CB
:1057C80003462343002B33D17B6F9B6823F471631B
:1057D80023F00F033A6811683A6892680A431A433B
:1057E8007B6F9A6024E07B6F9B6823F460427B6F39
:1057F8009A604FF0A040FFF713F904461248FFF7EC
:105808000FF903462343002B12D17B6F9B6823F4C7
:10581800716323F00F037A6F936009E07B68DB6D97
:1058280043F020027B68DA65012387F87F3000E0C7
:1058380000BF7B68002283F8582097F87F3018460D
:105848008437BD4690BD00BF0001005000030050E2
:1058580080B582B000AF78607B68002B01D101234E
:1058680023E07B6893F82130DBB2002B06D17B68FC
:10587800002283F820207868FCF79CFF7B680022D0
:105888005A627B6800225A607B6800229A607B68B3
:105898000022DA607B6800221A617B6800225A6164
:1058A8007B68012283F82120002318460837BD466B
:1058B80080BD000080B485B000AF78607B6803F0DD
:1058C8000703FB600C4BDB68BB60BA684FF6FF034D
:1058D8001340BB60FB681A02BB68134343F0BF6305
:1058E80043F40033BB60044ABB68D36000BF14377D
:1058F800BD465DF8047B704700ED00E080B400AF62
:10590800044BDB681B0A03F007031846BD465DF825
:10591800047B704700ED00E080B483B000AF03461D
:10592800FB7197F90730002B0BDBFB7903F01F02A3
:10593800074997F907305B09012000FA02F241F89C
:10594800232000BF0C37BD465DF8047B704700BFBD
:1059580000E100E080B483B000AF03463960FB711A
:1059680097F90730002B0ADB3B68DAB20C4997F944
:1059780007301201D2B20B4483F800230AE03B68D7
:10598800DAB20849FB7903F00F03043B1201D2B2E3
:105998000B441A7600BF0C37BD465DF8047B704790
:1059A80000E100E000ED00E080B489B000AFF860ED
:1059B800B9607A60FB6803F00703FB61FB69C3F118
:1059C8000703042B28BF0423BB61FB690433062BA0
:1059D80002D9FB69033B00E000237B614FF0FF32F3
:1059E800BB6902FA03F3DA43BB681A407B699A4041
:1059F8004FF0FF317B6901FA03F3D9437B680B4011
:105A0800134318462437BD465DF8047B70470000F1
:105A180080B582B000AF78607B68013BB3F1807FCE
:105A280001D301230FE00A4A7B68013B53600F2131
:105A38004FF0FF30FFF78EFF054B00229A60044BB2
:105A480007221A60002318460837BD4680BD00BFEC
:105A580010E000E080B582B000AF78607868FFF7AA
:105A680029FF00BF0837BD4680BD80B586B000AFAE
:105A78000346B9607A60FB73FFF740FF78617A6884
:105A8800B9687869FFF790FF024697F90F30114619
:105A98001846FFF75FFF00BF1837BD4680BD80B5C9
:105AA80082B000AF0346FB7197F907301846FFF73D
:105AB80033FF00BF0837BD4680BD80B582B000AF58
:105AC80078607868FFF7A4FF034618460837BD4694
