:020000040800F2
:100000000080002079320008712D0008772D00084B
:100010007D2D0008832D0008892D000800000000B8
:100020000000000000000000000000008F2D00080C
:100030009D2D000800000000AB2D0008B92D000820
:10004000C9320008C9320008C9320008C9320008A4
:10005000C9320008C9320008C9320008C932000894
:10006000C9320008C9320008C9320008C932000884
:10007000C9320008C9320008C9320008C932000874
:10008000C9320008000000008D310008C9320008A4
:10009000C9320008C9320008C9320008C932000854
:1000A000A9310008BD310008D1310008ED31000848
:1000B00001320008C9320008C9320008C9320008FC
:1000C000C9320008C9320008C9320008C932000824
:1000D000C932000815320008C9320008C9320008C8
:1000E00029320008C9320008C9320008C9320008A4
:1000F000C9320008C9320008C932000800000000F7
:1001000000000000C932000800000000C9320008E9
:10011000C93200080000000039320008C932000866
:10012000C9320008C9320008C9320008C9320008C3
:10013000C93200080000000000000000C9320008B9
:10014000C9320008C93200080000000000000000A9
:10015000000000000000000000000000000000009F
:10016000000000000000000000000000C93200088C
:10017000C93200080000000000000000000000007C
:1001800000000000C932000800000000000000006C
:10019000000000000000000000000000000000005F
:1001A0000000000000000000C9320008C932000849
:1001B000C9320008C9320008C93200080000000036
:1001C00000000000C932000800000000000000002C
:0801D000C9320008C932000821
:1001D80010B5054C237833B9044B13B10448AFF379
:1001E80000800123237010BD2800002000000000BB
:1001F8004CB7000808B5034B1BB103490348AFF3DC
:10020800008008BD000000002C0000204CB700084A
:1002180070B54FF0FF0C4CF4E06C1CEA11541DBF94
:100228001CEA135594EA0C0F95EA0C0F00F0DEF85F
:100238002C4481EA030621EA4C5123EA4C5350EA44
:10024800013518BF52EA033541F4801143F4801395
:1002580038D0A0FB02CE4FF00005E1FB02E506F026
:100268000042E0FB03E54FF00006E1FB03569CF07B
:10027800000F18BF4EF0010EA4F1FF04B6F5007F81
:1002880064F5407404D25FEA4E0E6D4146EB0606F3
:1002980042EAC62141EA55514FEAC52040EA5E507C
:1002A8004FEACE2EB4F1FD0C88BFBCF5E06F1ED826
:1002B800BEF1004F08BF5FEA500E50F1000041EB5D
:1002C800045170BD06F0004646EA010140EA02000A
:1002D80081EA0301B4EB5C04C2BFD4EB0C0541EA2C
:1002E800045170BD41F480114FF0000E013C00F341
:1002F800AB8014F1360FDEBF002001F0004170BD65
:10030800C4F10004203C35DA0C341BDC04F114047D
:10031800C4F1200500FA05F320FA04F001FA05F209
:1003280040EA020001F0004221F0004110EBD370D6
:1003380021FA04F642EB06015EEA430E08BF20EA02
:10034800D37070BDC4F10C04C4F1200500FA04F3A5
:1003580020FA05F001FA04F240EA020001F0004137
:1003680010EBD37041F100015EEA430E08BF20EAAA
:10037800D37070BDC4F1200500FA05F24EEA020EF2
:1003880020FA04F301FA05F243EA020321FA04F021
:1003980001F0004121FA04F220EA020000EBD370D8
:1003A8005EEA430E08BF20EAD37070BD94F0000FD8
:1003B8000FD101F00046400041EB010111F4801F0C
:1003C80008BF013CF7D041EA060195F0000F18BFBD
:1003D800704703F00046520043EB030313F4801FF9
:1003E80008BF013DF7D043EA0603704794EA0C0FB3
:1003F8000CEA135518BF95EA0C0F0CD050EA4106C9
:1004080018BF52EA4306D1D181EA030101F0004145
:100418004FF0000070BD50EA410606BF104619466D
:1004280052EA430619D094EA0C0F02D150EA013679
:1004380013D195EA0C0F05D152EA03361CBF1046BA
:1004480019460AD181EA030101F0004141F0FE4159
:1004580041F470014FF0000070BD41F0FE4141F4DD
:10046800780170BD81F0004102E000BF83F00043D5
:1004780030B54FEA41044FEA430594EA050F08BF37
:1004880090EA020F1FBF54EA000C55EA020C7FEAFB
:10049800645C7FEA655C00F0E2804FEA5454D4EB78
:1004A8005555B8BF6D420CDD2C4480EA020281EA42
:1004B800030382EA000083EA010180EA020281EA7A
:1004C8000303362D88BF30BD11F0004F4FEA0131CC
:1004D8004FF4801C4CEA113102D0404261EB4101DB
:1004E80013F0004F4FEA03334CEA133302D0524261
:1004F80063EB430394EA050F00F0A780A4F101041D
:10050800D5F1200E0DDB02FA0EFC22FA05F2801856
:1005180041F1000103FA0EF2801843FA05F359413C
:100528000EE0A5F120050EF1200E012A03FA0EFCBB
:1005380028BF4CF0020C43FA05F3C01851EBE371E5
:1005480001F0004507D54FF0000EDCF1000C7EEB02
:1005580000006EEB0101B1F5801F1BD3B1F5001F40
:100568000CD349085FEA30004FEA3C0C04F101045F
:100578004FEA445212F5800F80F09A80BCF1004F88
:1005880008BF5FEA500C50F1000041EB045141EA0A
:10059800050130BD5FEA4C0C404141EB0101013CD3
:1005A80028BFB1F5801FE9D291F0000F04BF0146C2
:1005B8000020B1FA81F308BF2033A3F10B03B3F194
:1005C80020020CDA0C3208DD02F1140CC2F10C0224
:1005D80001FA0CF021FA02F10CE002F11402D8BF82
:1005E800C2F1200C01FA02F120FA0CFCDCBF41EA4E
:1005F8000C019040E41AA2BF01EB0451294330BD1D
:100608006FEA04041F3C1CDA0C340EDC04F11404F9
:10061800C4F1200220FA04F001FA02F340EA0300D0
:1006280021FA04F345EA030130BDC4F10C04C4F116
:10063800200220FA02F001FA04F340EA03002946F6
:1006480030BD21FA04F0294630BD94F0000F83F440
:10065800801306BF81F480110134013D4EE77FEA23
:10066800645C18BF7FEA655C29D094EA050F08BF6F
:1006780090EA020F05D054EA000C04BF1946104650
:1006880030BD91EA030F1EBF0021002030BD5FEA94
:10069800545C05D14000494128BF41F0004130BDBC
:1006A80014F580043CBF01F5801130BD01F0004510
:1006B80045F0FE4141F470014FF0000030BD7FEA83
:1006C800645C1ABF194610467FEA655C1CBF0B467E
:1006D800024650EA013406BF52EA033591EA030F95
:1006E80041F4002130BD00BF90F0000F04BF00218D
:1006F800704730B54FF4806404F132044FF00005C0
:100708004FF0000150E700BF90F0000F04BF002138
:10071800704730B54FF4806404F1320410F000459E
:1007280048BF40424FF000013EE700BF42004FEA99
:10073800E2014FEA31014FEA02701FBF12F07F4316
:1007480093F07F4F81F06051704732F07F4208BFCD
:10075800704793F07F4F04BF41F40021704730B5D4
:100768004FF4607401F0004521F000411CE700BF20
:1007780050EA010208BF704730B54FF000050AE0A3
:1007880050EA010208BF704730B511F0004502D5A4
:10079800404261EB41014FF4806404F132045FEAA6
:1007A800915C3FF4D8AE4FF003025FEADC0C18BF4F
:1007B80003325FEADC0C18BF033202EBDC02C2F141
:1007C800200300FA03FC20FA02F001FA03FE40EAD3
:1007D8000E0021FA02F11444BDE600BF4FEA4102BF
:1007E80012F5001215D211D56FF47873B3EB62527B
:1007F80012D94FEAC12343F0004343EA505311F0A2
:10080800004F23FA02F018BF404270474FF0000033
:10081800704750EA013005D111F0004008BF6FF071
:10082800004070474FF00000704700BF4A0011D2E7
:1008380012F5001211D20DD56FF47873B3EB625232
:100848000ED44FEAC12343F0004343EA505323FA3E
:1008580002F070474FF00000704750EA013002D1B3
:100868004FF0FF3070474FF00000704753B94AB956
:10087800002908BF00281CBF4FF0FF314FF0FF30A0
:1008880000F070B9ADF1080C6DE904CE00F006F87F
:10089800DDF804E0DDE9022304B070472DE9F047F4
:1008A800089E0D4604460F46002B4AD18A429446BC
:1008B80065D9B2FA82F343B102FA03FCC3F120020C
:1008C8009F4020FA02F217439C404FEA1C4E1FFA41
:1008D8008CF5B7FBFEF1220C0EFB117742EA0742BA
:1008E80001FB05F090420AD91CEB020201F1FF3727
:1008F80080F01C81904240F2198102396244121A38
:10090800A4B2B2FBFEF00EFB102244EA024400FB44
:1009180005F5A5420AD91CEB040400F1FF3280F06A
:100928000781A54240F204816444023840EA01404C
:10093800641B00211EB1DC400023C6E90043BDE86A
:10094800F0878B4208D9002E00F0ED800021C6E91F
:1009580000050846BDE8F087B3FA83F1002949D1BC
:10096800AB4202D3824200F2F880841A65EB03029C
:1009780001201746002EE2D0C6E90047DFE702B99A
:10098800FFDEB2FA82F3002B40F090808A1A4FEA19
:100998001C471FFA8CFE0121B2FBF7F507FB152057
:1009A800220C42EA00420EFB05F0904208D91CEBEB
:1009B800020205F1FF3802D2904200F2CB80454690
:1009C800121AA4B2B2FBF7F007FB102244EA024461
:1009D8000EFB00FEA64508D91CEB040400F1FF320B
:1009E80002D2A64500F2BB801046A4EB0E0440EAF2
:1009F80005409FE7C1F120078B4022FA07FC4CEA2B
:100A0800030C05FA01F420FA07F3FD404FEA1C49EC
:100A18002343B5FBF9F81FFA8CFE09FB18551C0C8B
:100A280044EA054408FB0EF5A54202FA01F200FA71
:100A380001F00BD91CEB040408F1FF3A80F0888020
:100A4800A54240F28580A8F102086444641B9DB267
:100A5800B4FBF9F309FB134445EA044403FB0EFE17
:100A6800A64508D91CEB040403F1FF356CD2A64552
:100A78006AD9023B644443EA0843A3FB0295A4EB0A
:100A88000E04AC42C846AE4656D353D056B1B0EB6E
:100A9800080264EB0E0404FA07F7CA40CC40174377
:100AA800C6E9007418460021BDE8F087C3F12001AB
:100AB80002FA03FC20FA01F225FA01F19D402A43CB
:100AC8004FEA1C471FFA8CFEB1FBF7F007FB101525
:100AD800110C41EA054100FB0EF58D4204FA03F4BE
:100AE80008D91CEB010100F1FF382FD28D422DD916
:100AF80002386144491B92B2B1FBF7F507FB1511A7
:100B080042EA014205FB0EF1914208D91CEB0202B0
:100B180005F1FF3816D2914214D9023D6244521AA7
:100B280045EA004138E73146304608E73946E6E607
:100B38001046FBE64845A9D2B9EB020865EB0C0E56
:100B4800013BA3E74546EAE72B4694E74046D1E751
:100B5800D0467BE7023D624432E708460AE7644430
:100B6800023842E7704700BF80B485B000AFF86034
:100B78007B600B467B8113463B813A897B89D31A7C
:100B88009BB21AB2FB681A80FB685B68FA68B2F914
:100B980000201A44FB685A60FB685B68204A93424D
:100BA80002DDFB681E4A5A60FB685B681D4A934277
:100BB80002DAFB681B4A5A60FB689B891A46FB6885
:100BC800B3F9003003FB02F2FB68DB891946FB68C6
:100BD8005B6801FB03F31A44FB689A60FB689B6837
:100BE800114A934202DDFB680F4A9A60FB689B68D2
:100BF8000E4A934202DAFB680C4A9A60FB689B68CB
:100C08000B4A82FB03121213DB17D31A1BB21A46C4
:100C18007B681A6000BF1437BD465DF8047B7047D7
:100C280040420F00C0BDF0FF80969800806967FFC2
:100C3800AD8BDB680000000080B582B000AF224BAE
:100C48001B889AB2214B9BB213449BB2FB80B7F925
:100C58000630002B16DAB7F9063003F5804318463C
:100C6800FFF742FD16A3D3E90023FFF7D1FA0246A6
:100C78000B4610461946FFF7D9FD03469AB2144BA6
:100C88001A8017E0104B1B889BB21A460F4B13446F
:100C98001846FFF739FD0AA3D3E90023FFF7B8FA8E
:100CA80002460B4610461946FFF7C0FD03469AB2A6
:100CB800074B1A8000BF0837BD4680BDAFF30080E0
:100CC8008B6CE7FBA9F1A23F480000208AFDFFFFDB
:100CD8004A0000200000000080B584B000AFBA6070
:100CE8007B600346FB810B46BB81BB68FA891A808F
:100CF800B7F90E20B7F90C305B0013441846FFF71C
:100D080003FD09A3D3E90023FFF782FA02460B4645
:100D180010461946FFF762FD03461AB27B681A802F
:100D280000BF1037BD4680BD105839B4C876E23FC1
:100D380080B487B000AF7B600346FB810B46BB8164
:100D480013467B810023FB82B7F90A302D4A82FBC8
:100D580003129111DA178A1AC82101FB02F29B1AB1
:100D68001BB2FB82B7F90C3007EE903AB8EEE77A7F
:100D7800FB8A254A9B001344D3ED007A27EE277A95
:100D8800B7F90E3007EE903AF8EEE76AFB8A1F4A89
:100D98009B001344D3ED007A66EEA77A77EE677A64
:100DA800FDEEE77A17EE903A1AB27B681A80B7F927
:100DB8000E3007EE903AB8EEE77AFB8A124A9B00AB
:100DC8001344D3ED007A27EE277AB7F90C3007EEF3
:100DD800903AF8EEE76AFB8A0C4A9B001344D3ED7D
:100DE800007A66EEA77A77EE277AFDEEE77A17EEB5
:100DF800903A1AB23B6A1A8000BF1C37BD465DF8AC
:100E0800047B70471F85EB5184BA000864B700085B
:100E180080B487B000AFF860B9603B601346FB80D0
:100E28000023FB82B7F906302A4A82FB031291118C
:100E3800DA178A1AC82101FB02F29B1A1BB2FB823D
:100E4800FB6807EE903AB8EEE77AFB8A224A9B00E5
:100E58001344D3ED007A27EE277ABB6807EE903A61
:100E6800F8EEE76AFB8A1D4A9B001344D3ED007A2B
:100E780066EEA77A77EE677AFDEEE77A17EE902AA4
:100E88003B681A60BB6807EE903AB8EEE77AFB8ACF
:100E9800114A9B001344D3ED007A27EE277AFB68AA
:100EA80007EE903AF8EEE76AFB8A0C4A9B00134477
:100EB800D3ED007A66EEA77A77EE277AFDEEE77A29
:100EC80017EE902A3B6A1A6000BF1C37BD465DF8D2
:100ED800047B70471F85EB5184BA000864B700088B
:100EE80080B400AF0C4B1B78DBB2012B0ED10B4B3F
:100EF8001B889AB20A4B5A630A4B1B889AB2084B52
:100F08009A63094B1B889AB2054BDA6300BFBD464A
:100F18005DF8047B704700BF000000208A000020B5
:100F2800002C01408C0000208E00002080B487B087
:100F380000AFBA601A460346FB810B46BB811346D5
:100F4800FB80BA89FB89D31A9BB2BB82BA89FB8919
:100F5800D31A002BB8BF5B42142B41DDBA89FB8939
:100F68009A4208D9FB88102B05D1FA89BB89D31A74
:100F78009BB2FB822DE0BA89FB899A420CD2FB888E
:100F8800102B09D1FA89BB89D31A9BB2A3F58043E8
:100F9800013B9BB2FB821CE0BA89FB899A420CD9BF
:100FA800FB88002B09D1FA89BB89D31A9BB203F5B8
:100FB800804301339BB2FB820BE0BA89FB899A42DA
:100FC80007D2FB88002B04D1FA89BB89D31A9BB2BC
:100FD800FB82BB681A68B7F916301A44BB681A60F6
:100FE800B7F9163018461C37BD465DF8047B7047C4
:100FF800B0B58CB000AFF860B9607A603B60F86853
:10100800FFF782FBB2A3D3E90023FFF701F90246F9
:101018000B4614461D46B868FFF776FB02460B469A
:1010280020462946FFF722FA02460B461046194683
:101038004FF00002A84BFFF7EBF802460B461046AC
:101048001946FFF7CBFB0346BB62BB687B62FB68B4
:101058005B421846FFF758FB9DA3D3E90023FFF72F
:10106800D7F802460B4614461D46B868FFF74CFBF6
:1010780002460B4620462946FFF7F8F902460B467A
:10108800104619464FF00002934BFFF7C1F802468D
:101098000B4610461946FFF7A1FB03463B62BB6AA5
:1010A800002B09DD7B6A002B06DD3B6A002B03DA87
:1010B800012387F82F303FE07B6A002B09DD3B6A6C
:1010C800002B06DABB6A002B03DA022387F82F30DD
:1010D80032E07B6A002B09DD3B6A002B06DDBB6A28
:1010E800002B03DA032387F82F3025E07B6A002BD7
:1010F80009DA3B6A002B06DDBB6A002B03DA0423FE
:1011080087F82F3018E07B6A002B09DA3B6A002B3E
:1011180006DDBB6A002B03DD052387F82F300BE0C3
:101128007B6A002B08DA3B6A002B05DABB6A002BC6
:1011380002DD062387F82F3097F82F30013B052B67
:1011480000F2388201A252F823F000BF6D110008A6
:1011580021120008E512000899130008511400082C
:1011680005150008BB6AFB617B6ABB61FB69C3F1BB
:101178000102BB69D31A7B61FA69BB69134418463B
:10118800FFF7C2FA04460D467869FFF7BDFA4FF03B
:101198000002514BFFF73CF802460B462046294611
:1011A800FFF766F902460B4610461946FFF716FB8D
:1011B80003461AB27B681A80B869FFF7A5FA044695
:1011C8000D467869FFF7A0FA4FF00002424BFFF78F
:1011D8001FF802460B4620462946FFF749F9024602
:1011E8000B4610461946FFF7F9FA03461AB23B6850
:1011F8001A807869FFF788FA4FF00002364BFFF73C
:1012080007F802460B4610461946FFF7E7FA034669
:101218001AB23B6C1A80CDE13B6A5B42FB61BB6A48
:101228005B42BB61FB69C3F10102BB69D31A7B61F5
:10123800F869FFF769FA04460D467869FFF764FA1A
:101248004FF00002244BFEF7E3FF02460B46204610
:101258002946FFF70DF902460B4610461946FFF7D7
:10126800BDFA03461AB27B681A80FA69BB6913444F
:101278001846FFF749FA04460D467869FFF744FA1D
:101288004FF00002144BFEF7C3FF02460B46204600
:101298002946FFF7EDF802460B4610461946FFF7B8
:1012A8009DFA03461AB23B681A807869FFF72CFA50
:1012B8004FF00002084BFEF7ABFF02460B46104604
:1012C8001946FFF78BFA03461AB23B6C1A8071E194
:1012D800AE47E17A14AEFB3F0000E03F7B6AFB615A
:1012E8003B6ABB61FB69C3F10102BB69D31A7B612D
:1012F8007869FFF709FA4FF00002B04BFEF788FF54
:1013080002460B4610461946FFF768FA03461AB21A
:101318007B681A80FA69BB6913441846FFF7F4F929
:1013280004460D467869FFF7EFF94FF00002A34B2A
:10133800FEF76EFF02460B4620462946FFF798F84F
:1013480002460B4610461946FFF748FA03461AB2FA
:101358003B681A80B869FFF7D7F904460D467869E3
:10136800FFF7D2F94FF00002944BFEF751FF024607
:101378000B4620462946FFF77BF802460B461046E7
:101388001946FFF72BFA03461AB23B6C1A8011E193
:10139800BB6A5B42FB617B6A5B42BB61FB69C3F171
:1013A8000102BB69D31A7B617869FFF7ADF94FF089
:1013B8000002824BFEF72CFF02460B4610461946E8
:1013C800FFF70CFA03461AB27B681A80F869FFF730
:1013D8009BF904460D467869FFF796F94FF000022D
:1013E800764BFEF715FF02460B4620462946FFF7C7
:1013F8003FF802460B4610461946FFF7EFF9034639
:101408001AB23B681A80FA69BB6913441846FFF799
:101418007BF904460D467869FFF776F94FF000022C
:10142800664BFEF7F5FE02460B4620462946FFF7B7
:101438001FF802460B4610461946FFF7CFF9034638
:101448001AB23B6C1A80B5E03B6AFB61BB6ABB61B0
:10145800FB69C3F10102BB69D31A7B61B869FFF765
:1014680053F904460D467869FFF74EF94FF000022C
:10147800524BFEF7CDFE02460B4620462946FEF7A4
:10148800F7FF02460B4610461946FFF7A7F9034631
:101498001AB27B681A807869FFF736F94FF00002B4
:1014A800464BFEF7B5FE02460B4610461946FFF7B7
:1014B80095F903461AB23B681A80FA69BB69134466
:1014C8001846FFF721F904460D467869FFF71CF91D
:1014D8004FF00002394BFEF79BFE02460B462046B2
:1014E8002946FEF7C5FF02460B4610461946FFF788
:1014F80075F903461AB23B6C1A805BE07B6A5B4263
:10150800FB613B6A5B42BB61FB69C3F10102BB69DA
:10151800D31A7B61FA69BB6913441846FFF7F4F8DC
:1015280004460D467869FFF7EFF84FF00002234BA9
:10153800FEF76EFE02460B4620462946FEF798FF48
:1015480002460B4610461946FFF748F903461AB2F9
:101558007B681A807869FFF7D7F84FF00002174BBD
:10156800FEF756FE02460B4610461946FFF736F9B7
:1015780003461AB23B681A80F869FFF7C5F80446B3
:101588000D467869FFF7C0F84FF000020B4BFEF7E5
:101598003FFE02460B4620462946FEF769FF0246F3
:1015A8000B4610461946FFF719F903461AB23B6C69
:1015B8001A8000BF00BF3037BD46B0BD0000E03F15
:1015C80080B485B000AFF860B9607A603B607A6833
:1015D800BB68D21AFB681A60FB685A68FB681B680C
:1015E8001A44FB685A60FB681A68344B1B68D21AA5
:1015F800FB689A60FB685B68314A934202DDFB68CE
:101608002F4A5A60FB685B682E4A934202DAFB68ED
:101618002C4A5A60FB6893ED047AFB681B6807EE56
:10162800903AF8EEE77A27EE277AFB68D3ED056A59
:10163800FB685B6807EE903AF8EEE77A66EEA77A01
:1016480037EE277AFB68D3ED066AFB689B6807EEDE
:10165800903AF8EEE77A66EEA77A77EE277AFDEE0B
:10166800E77A17EE902AFB68DA60FB68DB68164AAF
:10167800934202DDFB68144ADA60FB68DB68134AB0
:10168800934202DAFB68114ADA60FB681B680B4A6E
:101698001360FB68DB680E4A82FB03125213DB17E8
:1016A800D31A0C4A13600B4B1A683B681A6000BFC8
:1016B8001437BD465DF8047B704700BFA0000020CA
:1016C80080969800806967FF80F0FA02800F05FD18
:1016D80089B5F814A400002080B485B000AFF86084
:1016E8000B4687ED010A7B81D7ED017AFDEEE77A9B
:1016F80017EE903A1AB2FB685A8000BF1437BD46FD
:101708005DF8047B704780B483B000AF78603960BF
:101718007B68B3F900309AB27B68B3F9023099B2AA
:101728007B68B3F9003018463B68C31A9BB211FBBB
:1017380003F39BB2D31A9BB21AB27B681A807B68F8
:10174800B3F9003018460C37BD465DF8047B704786
:1017580080B500AF624B42F210729A81604BC8228A
:10176800DA81604B42F210729A815E4BC822DA81AC
:1017780001F0A7FD00F0DEF800F0F0FC00F026F91B
:1017880000F0D6FA00F012FB00F040FC00F074FC08
:1017980000F0D2F900F04CFA00F0E4FB00F034FA63
:1017A80000F090FC00F07EFA4F4806F029F800217E
:1017B8004E4806F0F5FF04214C4806F0F1FF0821D9
:1017C8004A4806F0EDFF0C21484806F0E9FF0021E1
:1017D800464808F08DFA0421444808F089FA08219F
:1017E800424808F085FA0021414807F0CBF9042166
:1017F8003F4807F0C7F9012001F0D4FD3D4B1B8895
:101808009AB23D4B1A80002204213C4804F0E4FFC0
:10181800022301223849344806F09DF801220421A8
:10182800364804F0D9FF344B00221A8000220421E4
:10183800324804F0D1FF0223012231492A4806F038
:10184800F8F9012204212D4804F0C6FF2C4B1B880F
:101858009BB2C3F30D039AB22A4B114619802A4B47
:101868001A80274B00221A80284803F07FF9284B5A
:10187800284A1A61264B4FF07E525A61244B264A59
:101888009A61264B1B889BB2012B19D1244B1B88CC
:101898001BB21B121BB2DAB2224B5A70204B1B88A8
:1018A8001BB2DAB21F4B9A701E4B55221A700123D5
:1018B80003221C491C4808F000FD184B00221A801E
:1018C8004FF080431B689BB203F010039AB2174B8A
:1018D8001A80164B1B889AB2154B1A80D1E700BFA5
:1018E80068040020900400202002002084020020C8
:1018F800D00200200400002008000020000C00484E
:10190800480400204800002044040020A8000020CB
:10191800C404002000409C4600D8564866040020B5
:101928007C00002014000020B40300205C04002088
:101938005A04002080B594B000AF07F1180338228C
:101948000021184609F0D2FE3B1D00221A605A6099
:101958009A60DA601A61002004F07AFF0223BB6102
:101968004FF480737B624023BB6202237B630223B4
:10197800BB630423FB6355233B6402237B6402237C
:10198800BB640223FB6407F11803184605F014F83A
:101998000346002B01D000F057FE0F237B60032382
:1019A800BB600023FB6000233B6100237B613B1D80
:1019B8000421184605F018FB0346002B01D000F05F
:1019C80043FE00BF5037BD4680BD000080B592B0D1
:1019D80000AF07F13C0300221A605A609A603B4648
:1019E8003C220021184609F081FE4E4B4FF0A042E0
:1019F8001A604C4B4FF400225A604A4B00229A60FE
:101A0800484B0022DA60474B00221A61454B0122FD
:101A18005A61444B04229A61424B00221A77414B87
:101A280000225A773F4B01221A623E4B002283F86C
:101A380024203C4B002283F838203A4B0022DA63FA
:101A4800384B002283F84020364801F0FDFE03465B
:101A5800002B01D000F0F8FD0023FB6307F13C03E5
:101A68001946304803F0A8FE0346002B01D000F0C9
:101A7800EBFD2D4B3B6009237B600223BB607F237A
:101A8800FB6004233B6100237B6104233B6200234A
:101A980087F82430002387F82530002387F826307C
:101AA8008423BB628023FB62002387F830303B46E7
:101AB80019461C4803F0A0F90346002B01D000F09A
:101AC800C3FD1A4B3B6040F20F137B603B4619463F
:101AD800144803F091F90346002B01D000F0B4FD3F
:101AE800134B3B6040F215237B603B4619460D487B
:101AF80003F082F90346002B01D000F0A5FD0D4B41
:101B08003B6040F21B337B603B461946054803F0B7
:101B180073F90346002B01D000F096FD00BF48374B
:101B2800BD4680BDA8000020020030040400600803
:101B3800400020198000501D80B588B000AF3B469A
:101B480020220021184609F0D1FD2C4B2C4A1A609E
:101B58002A4B4FF400225A60284B00229A60274BE8
:101B68000022DA60254B00221A61244B00225A61B8
:101B7800224B04229A61214B00221A771F4B002224
:101B88005A771E4B01221A621C4B002283F824202C
:101B98001A4B4FF4B462DA62184B4FF480621A633E
:101BA800164B002283F83820144B0022DA63134BBB
:101BB800002283F84020114801F046FE0346002B1E
:101BC80001D000F041FD0F4B3B6006237B600023F2
:101BD800BB607F23FB6004233B6100237B613B46A2
:101BE8001946064802F0F2F90346002B01D000F02E
:101BF8002BFD00BF2037BD4680BD00BF140100206B
:101C0800000100500001802180B500AF064B074A53
:101C18001A60054803F074FE0346002B01D000F05B
:101C280013FD00BF80BD00BF80010020000C0240F2
:101C380080B58CB000AF3B4630220021184609F031
:101C480055FD164B164A1A60144803F09AFF0346CE
:101C5800002B01D000F0F8FC02233B6000233B710D
:101C680000237B710023BB600223FB6000233B61E0
:101C780000237B610123BB610023FB613B460022FB
:101C88001946064804F004F80346002B01D000F07A
:101C9800DBFC00BF3037BD4680BD00BFA801002077
:101CA8000008005080B500AF1F4B204A1A601E4B39
:101CB80000225A601C4B00229A601B4B0022DA60FB
:101CC800194B00221A74184B00225A74164B002222
:101CD8009A74154B10225A61134B01229A61124BC8
:101CE8000222DA61104B02221A620F4B01225A6259
:101CF8000D4B01229A620C4B0122DA620A4B012237
:101D08001A63094B00225A63074B00229A63064B59
:101D18000022DA63044804F02DFA0346002B01D0B0
:101D280000F092FC00BF80BDBC01002000640040B0
:101D380080B500AF1B4B1C4A1A601A4B4FF48272D5
:101D48005A60184B00229A60164B4FF47062DA60A2
:101D5800144B00221A61134B01225A61114B4FF4A4
:101D680000729A610F4B1822DA610E4B00221A6238
:101D78000C4B00225A620B4B00229A62094B072235
:101D8800DA62084B00221A63064B00225A630548A0
:101D980005F036FD0346002B01D000F055FC00BFCE
:101DA80080BD00BF20020020003C004080B59CB0F0
:101DB80000AF07F1600300221A605A609A60DA6087
:101DC80007F1540300221A605A609A6007F1380339
:101DD80000221A605A609A60DA601A615A619A6140
:101DE8003B1D34220021184609F080FC5B4B5C4AFD
:101DF8001A605A4B07225A60584B20229A60574B58
:101E08004FF47A72DA60554B00221A61534B002264
:101E18005A61524B00229A61504806F009FC034669
:101E2800002B01D000F010FC4FF480533B6607F103
:101E380060031946494807F0E7F90346002B01D02B
:101E480000F002FC454806F04AFC0346002B01D08E
:101E580000F0FAFB70237B654FF4E003BB650023B9
:101E6800FB6507F1540319463C4808F049F8034656
:101E7800002B01D000F0E8FB6023BB630023FB6369
:101E880000233B6408237B640023BB640023FB64BA
:101E980000233B6507F13803002219462F4807F055
:101EA8009FF80346002B01D000F0CEFB07F1380362
:101EB80004221946294807F093F80346002B01D05D
:101EC80000F0C2FB07F1380308221946234807F03F
:101ED80087F80346002B01D000F0B6FB7023BB63E4
:101EE80040F2DE33FB6300237B6407F138030C22E6
:101EF80019461A4807F074F80346002B01D000F081
:101F0800A3FB00237B600023BB600023FB60462308
:101F18003B6100237B614FF40053BB610023FB61ED
:101F280000233B6200237B624FF00073BB620023F7
:101F3800FB6200233B6300237B633B1D1946074874
:101F480008F060F80346002B01D000F07DFB034841
:101F580000F054FE00BF7037BD4680BD84020020EB
:101F6800002C014080B58CB000AF07F10C0324228F
:101F78000021184609F0BAFB3B4600221A605A6055
:101F88009A60214B4FF080421A601F4B00225A6022
:101F98001D4B00229A601C4B4FF4FA62DA601A4B10
:101FA80000221A61184B00229A610123FB6000236A
:101FB8003B6101237B610023BB610A23FB61002392
:101FC8003B6201237B620023BB620A23FB6207F1A9
:101FD8000C0319460C4806F02FFD0346002B01D0D0
:101FE80000F032FB20233B600023BB603B461946D0
:101FF800054807F085FF0346002B01D000F024FBBD
:1020080000BF3037BD4680BDD002002080B584B007
:1020180000AF3B1D00221A605A609A60144B154AA3
:102028001A60134B10225A60114B00229A60104B11
:1020380040F2E732DA600E4B00229A610C4806F053
:10204800F7FA0346002B01D000F0FEFA00237B606C
:102058000023FB603B1D1946054807F051FF034666
:10206800002B01D000F0F0FA00BF1037BD4680BD4C
:102078001C0300200010004080B500AF0F4B104A31
:102088001A600E4B00225A600C4B00229A600B4BD0
:102098004FF6FF72DA60094B00221A61074B0022E3
:1020A8005A61064B00229A61044806F0C1FA0346B9
:1020B800002B01D000F0C8FA00BF80BD68030020E3
:1020C8000048014080B500AF224B234A1A60214BDB
:1020D8004FF416525A601F4B00229A601D4B002283
:1020E800DA601C4B00221A611A4B0C225A61194BF8
:1020F80000229A61174B0022DA61164B00221A62FD
:10210800144B00225A62134B00229A62114808F0BD
:1021180084F80346002B01D000F096FA00210D4800
:1021280009F019FA0346002B01D000F08DFA0021BE
:10213800084809F04EFA0346002B01D000F084FA53
:10214800044809F0CFF90346002B01D000F07CFACF
:1021580000BF80BDB40300200038014080B58AB0BC
:1021680000AF07F1140300221A605A609A60DA601F
:102178001A613F4BDB6C3E4A43F00403D3643C4B8B
:10218800DB6C03F004033B613B69394BDB6C384A79
:1021980043F02003D364364BDB6C03F02003FB6071
:1021A800FB68334BDB6C324A43F00103D364304B9A
:1021B800DB6C03F00103BB60BB682D4BDB6C2C4A66
:1021C80043F00203D3642A4BDB6C03F002037B6009
:1021D8007B68274BDB6C264A43F00803D364244B07
:1021E800DB6C03F008033B603B68002220214FF0C2
:1021F800904004F0F1FA002204211E4804F0ECFAA1
:102208004FF400537B614FF48813BB610023FB61DB
:1022180007F114031946184804F05CF920237B6180
:102228000123BB610023FB6100233B6207F1140318
:1022380019464FF0904004F04DF904237B610123C7
:10224800BB610023FB6100233B6207F114031946BD
:10225800084804F03FF900220021282003F05DFC23
:10226800282003F074FC00BF2837BD4680BD00BF9E
:1022780000100240000C0048000800480000000060
:10228800B0B586B002AF78604FF090435B694FF00D
:10229800904243F020035361094B1B78002B2ED149
:1022A800084B4FF47A725A63064B4FF47A729A636A
:1022B800044B4FF47A72DA630023FB6018E000BF26
:1022C80050040020002C01400921A74802F034FDE9
:1022D80003469AB2A54B1A8040F21B31A24802F07D
:1022E8002BFD03469AB2A14B9A80FB680133FB6031
:1022F800FB689F4A9342E7DD9E4B01221A70092131
:10230800994802F019FD03469AB29B4B1A8040F295
:102318000F11954802F010FD03469AB2964B5A8069
:1023280040F21521904802F007FD03469AB2924BFD
:102338009A8040F21B318C4802F0FEFC03469AB2A8
:102348008D4BDA80894B1A888B4B1B88D31A9AB22B
:102358008A4B1A80854B9A88874BDB88D31A9AB2A6
:10236800874B1A80844B5A88864B1A80864B1B8869
:102378009AB2864B1A8000220421854804F02CFA70
:10238800002300930123834A8049834805F081FD97
:10239800012204217E4804F01FFA7E4B1B889BB261
:1023A800C3F30D039AB27D4B114619807C4B1A80FA
:1023B800FEF742FC714B1B889BB218B2704B1B880E
:1023C8009BB219B2774B784AFEF786FC764B1B888E
:1023D80018B2744B1B8819B2744B1B889BB21AB283
:1023E800734B0093734BFEF7A3FC724B1B8819B217
:1023F800714B1B681AB2714B7148FEF7B5FB6C4BF9
:102408001B8819B26F4B1B681AB26F4B6F48FEF7E7
:10241800ABFB6D4B1868694B1968644B1B889BB202
:102428001AB26B4B00936B4BFEF7F2FC694B1B68BF
:10243800694A1360664B1B681846FEF765F948A39E
:10244800D3E90023FDF7E4FE02460B4614461D4679
:10245800604B1B681846FEF757F902460B462046A4
:102468002946FEF703F802460B46104619464FF078
:1024780000025A4BFDF7CCFE02460B4610461946A1
:10248800FEF7ACF90346564A1360514B1B685B4292
:102498001846FEF739F932A3D3E90023FDF7B8FE51
:1024A80002460B4614461D464A4B1B681846FEF763
:1024B8002BF902460B4620462946FDF7D7FF024670
:1024C8000B46104619464FF00002444BFDF7A0FE9C
:1024D80002460B4610461946FEF780F90346414A64
:1024E80013603C4B18683A4B19683F4B00933F4BBD
:1024F8003F4AFEF77DFD384B1B68DA0F13445B102B
:102508009BB203F5FA739AB23A4B1A80344B1B68A4
:10251800DA0F13445B109BB203F5FA739AB2364B89
:102528001A80304B1B68DA0F13445B109BB203F51B
:10253800FA739AB2314B1A802D4BB3F900309BB223
:1025480003F5FA739AB22B4B1A80284BB3F9003073
:102558009BB203F5FA739AB252E000BFAFF3008062
:10256800AE47E17A14AEFB3FA80000209800002097
:102578003F420F0050040020900000207E00002001
:1025880080000020820000200400002008000020B5
:10259800000C0048480400202002002048000020C9
:1025A8004404002058040020560400204A0000205B
:1025B80066000020640000205C0000205800002015
:1025C80068040020600000205400002090040020CF
:1025D8006C00002068000020700000200000E03F30
:1025E8007400002078000020880000208600002069
:1025F800840000208A0000208C0000208E0000202B
:102608000D4B1A800D4BB3F900309BB203F5FA73EA
:102618009AB20B4B1A80FEF763FC0A4B00221A8011
:102628004FF090435B694FF0904223F03F035361B2
:1026380000BF1037BD46B0BD8C00002088000020C8
:102648008E0000204804002080B400AF72B600BF9E
:10265800FEE7000080B582B000AF0F4B1B6E0E4A3C
:1026680043F0010313660C4B1B6E03F001037B6000
:102678007B68094B9B6D084A43F080539365064B72
:102688009B6D03F080533B603B6804F085F900BF05
:102698000837BD4680BD00BF0010024080B59EB01F
:1026A80000AF786007F1640300221A605A609A60EC
:1026B800DA601A6107F1200344220021184609F064
:1026C80015F87B681B68B3F1A04F5ED14FF4004347
:1026D8003B624FF00053FB6507F12003184604F0F6
:1026E8009FFE0346002B01D0FFF7AEFF4E4B1B6841
:1026F80001334D4A13604C4B1B68012B0BD14B4BDC
:10270800DB6C4A4A43F40053D364484BDB6C03F454
:102718000053FB61FB69454BDB6C444A43F00403FF
:10272800D364424BDB6C03F00403BB61BB693F4BD2
:10273800DB6C3E4A43F00103D3643C4BDB6C03F093
:1027480001037B617B6903237B660323BB6600234C
:10275800FB6607F164031946354803F0BBFE032303
:102768007B660323BB660023FB6607F164031946F7
:102778004FF0904003F0AEFE00220021122003F03B
:10278800CCF9122003F0E3F949E07B681B68294A79
:10279800934244D14FF400433B624FF00053FB6532
:1027A80007F12003184604F03BFE0346002B01D036
:1027B800FFF74AFF1C4B1B6801331B4A13601A4B77
:1027C8001B68012B0BD1194BDB6C184A43F40053DF
:1027D800D364164BDB6C03F400533B613B69134B2A
:1027E800DB6C124A43F00403D364104BDB6C03F038
:1027F8000403FB60FB6804237B660323BB6600239A
:10280800FB6607F164031946094803F063FE0022DA
:102818000021122003F081F9122003F098F900BF7B
:102828007837BD4680BD00BFB804002000100240C4
:10283800000800480001005080B485B000AF7860FF
:102848007B681B680A4A93420BD10A4B9B6C094A66
:1028580043F008039364074B9B6C03F00803FB6089
:10286800FB6800BF1437BD465DF8047B704700BFA6
:10287800000C02400010024080B58AB000AF7860BA
:1028880007F1140300221A605A609A60DA601A612C
:102898007B681B68194A93422CD1194BDB6C184A88
:1028A80043F48033D364164BDB6C03F480333B6111
:1028B8003B69134BDB6C124A43F00103D364104BA2
:1028C800DB6C03F00103FB60FB6810237B610323CF
:1028D800BB610023FB6107F1140319464FF09040D8
:1028E80003F0F8FD00220021362003F016F9362007
:1028F80003F02DF900BF2837BD4680BD0008005001
:102908000010024080B59AB000AF786007F1540318
:1029180000221A605A609A60DA601A6107F110039F
:1029280044220021184608F0E1FE7B681B68204A13
:10293800934239D14FF480533B614FF000733B64AD
:1029480007F11003184604F06BFD0346002B01D075
:10295800FFF77AFE174B9B6D164A43F00073936599
:10296800144B9B6D03F00073FB60FB68114BDB6C31
:10297800104A43F00103D3640E4BDB6C03F00103F0
:10298800BB60BB684FF4C0537B650223BB65002363
:10299800FB6500233B6609237B6607F15403194650
:1029A8004FF0904003F096FD00BF6837BD4680BDEC
:1029B800006400400010024080B58AB000AF786023
:1029C80007F1140300221A605A609A60DA601A61EB
:1029D8007B681B68174A934228D1174B9B6D164A90
:1029E80043F400439365144B9B6D03F400433B6130
:1029F8003B69114BDB6C104A43F00403D3640E4B64
:102A0800DB6C03F00403FB60FB684FF4E0537B616D
:102A18000223BB610023FB6100233B6206237B6228
:102A280007F114031946054803F054FD00BF283781
:102A3800BD4680BD003C0040001002400008004830
:102A480080B586B000AF78607B681B68334A9342D4
:102A58002CD1334B1B6E324A43F400631366304B60
:102A68001B6E03F400637B617B6900220021182040
:102A780003F053F8182003F06AF800220021192007
:102A880003F04BF8192003F062F8002200211A2005
:102A980003F043F81A2003F05AF8002200211B2003
:102AA80003F03BF81B2003F052F832E07B681B6808
:102AB8001C4A934214D11A4B9B6D194A43F01003D8
:102AC8009365174B9B6D03F010033B613B69002234
:102AD8000021362003F021F8362003F038F818E0FA
:102AE8007B681B68104A934213D10D4B1B6E0C4A2E
:102AF80043F4802313660A4B1B6E03F48023FB60A8
:102B0800FB68002200211A2003F007F81A2003F0BE
:102B18001EF800BF1837BD4680BD00BF002C01401D
:102B280000100240001000400048014080B58AB003
:102B380000AF786007F1140300221A605A609A60A7
:102B4800DA601A617B681B68B3F1804F4DD1294B5D
:102B58009B6D284A43F001039365264B9B6D03F058
:102B680001033B613B69234BDB6C224A43F00103C1
:102B7800D364204BDB6C03F00103FB60FB681D4B47
:102B8800DB6C1C4A43F00203D3641A4BDB6C03F082
:102B98000203BB60BB684FF400437B610223BB6147
:102BA8000023FB6100233B6201237B6207F11403CE
:102BB80019464FF0904003F08DFC08237B610223F7
:102BC800BB610023FB6100233B6201237B6207F1A9
:102BD80014031946084803F07DFC002200211C203C
:102BE80002F09BFF1C2002F0B2FF00BF2837BD4651
:102BF80080BD00BF001002400004004880B58AB0C4
:102C080000AF786007F1140300221A605A609A60D6
:102C1800DA601A617B681B68204A934239D1204BDD
:102C2800DB6C1F4A43F00103D3641D4BDB6C03F0DC
:102C380001033B613B691A4BDB6C194A43F0020301
:102C4800D364174BDB6C03F00203FB60FB684FF4A3
:102C5800F0637B610223BB610023FB6100233B62BD
:102C680006237B6207F1140319464FF0904003F0E6
:102C780031FC03237B610223BB610023FB6100233A
:102C88003B6206237B6207F114031946054803F0EB
:102C980021FC00BF2837BD4680BD00BF002C014085
:102CA800001002400004004880B59AB000AF786078
:102CB80007F1540300221A605A609A60DA601A61B8
:102CC80007F1100344220021184608F00FFD7B6825
:102CD8001B68224A93423DD101233B6100237B615B
:102CE80007F11003184604F09BFB0346002B01D0A4
:102CF800FFF7AAFC1A4B1B6E194A43F4804313666C
:102D0800174B1B6E03F48043FB60FB68144BDB6CB2
:102D1800134A43F00403D364114BDB6C03F0040340
:102D2800BB60BB6830237B650223BB650023FB6562
:102D380000233B6607237B6607F1540319460948BD
:102D480003F0C8FB00220021252002F0E6FE252022
:102D580002F0FDFE00BF6837BD4680BD0038014067
:102D6800001002400008004880B400AFFEE780B4BD
:102D780000AFFEE780B400AFFEE780B400AFFEE727
:102D880080B400AFFEE780B400AF00BFBD465DF879
:102D9800047B704780B400AF00BFBD465DF8047B7C
:102DA800704780B400AF00BFBD465DF8047B704734
:102DB80080B500AF684BB3F900309BB201339BB2CA
:102DC8001AB2654B1A80654B1B8801339AB2634B64
:102DD8001A80634BB3F900309BB201339BB21AB22D
:102DE8005F4B1A805D4B1B88052B40F054815D4B6F
:102DF8001B78DBB2012B40F04B815B4B1B889BB2ED
:102E08001AB25A4B1A805A4B1B889BB2002B65D1B9
:102E1800584B1B881BB21A46544B1B881BB2D31A3B
:102E28000A2B0ADC534B1B881BB21A464F4B1B88D4
:102E38001BB2D31A13F10A0F50DA4C4B1B881AB283
:102E48004C4B1B881BB29A4217DD484B1B881BB2A0
:102E58001A46484B1B881BB2D31A07EE903AF8EE75
:102E6800E77A9FED457A67EE877AFDEEE77A17EE07
:102E7800903A1AB2414B1A8020E03C4B1B881AB298
:102E88003C4B1B881BB29A4218DA3A4B1B881BB280
:102E9800C3F57F533F33354A128812B2134407EE05
:102EA800903AF8EEE77A9FED347A67EE877AFDEE8E
:102EB800E77A17EE903A1AB2304B1A802B4B1B88E0
:102EC8001AB22C4B1B881BB29A4240F088802C4BBC
:102ED80000221A80294B00221A8080E0244B1B888C
:102EE8009BB2102B7BD1234B1B881BB21A461F4B5E
:102EF8001B881BB2D31A0A2B0ADC1E4B1B881BB279
:102F08001A461A4B1B881BB2D31A13F10A0F66DA3A
:102F1800164B1B881AB2174B1B881BB29A4231DD1D
:102F2800124B1B881BB2C3F57F533F33114A1288DB
:102F380012B213445B4207EE903AF8EEE77A9FED3F
:102F48000E7A67EE877AFDEEE77A17EE903A1AB2B4
:102F58000A4B1A8035E000BF0C050020460000200F
:102F68000E05002010000020480000205404002016
:102F78005C04002052040020EC51383F7C00002003
:102F88004C000020624B1B881AB2624B1B881BB294
:102F98009A4216DA5E4B1B881BB21A465D4B1B8899
:102FA8001BB2D31A07EE903AF8EEE77A9FED5A7AF9
:102FB80067EE877AFDEEE77A17EE903A1AB2574B2A
:102FC8001A80534B1B881AB2524B1B881BB29A4269
:102FD80005D1534B00221A80504B00221A804C4BCB
:102FE8001B881AB24B4B1A804E4B1B889BB21AB2E5
:102FF8004D4B1A804C4BB3F9003098B24B4BB3F998
:10300800003099B24A4B1B889BB24A4AFDF78EFFA3
:1030180003461A46484B1A80484BB3F90030012B37
:1030280007D1444B1968464B1A68464B4648FEF789
:10303800C7FA404B1B681AB2444B1A803A4BB3F993
:1030480000203A4B1A80424B00221A80334B1B88CF
:103058001BB241F27072934202DD304B00221A809B
:103068002E4B1B881BB23B4A934202DA2B4B0022A1
:103078001A80394B1B78DBB2012B09D1274B1B88EF
:1030880019B2364B1B881AB22E4B3548FDF76CFD2A
:10309800344B00221A80344BB3F900309BB2013311
:1030A8009BB21AB2304B1A80304BB3F900309BB246
:1030B80001339BB21AB22D4B1A802B4BB3F9003057
:1030C8000A2B16D12A4B01221A80274B00221A807C
:1030D8009FED280A00212848FEF7FEFA0F4B1B88AF
:1030E8001BB219462448FEF70EFB03461A46234B2B
:1030F8001A801E4BB3F90030642B05D1204B0122F6
:103108001A801A4B00221A8000F02EF900BF80BDE9
:103118005404002052040020EC51383F7C00002069
:103128004C00002048000020100500201205002057
:103138005A04002060040020BC040020BE040020C3
:10314800500000205C000020C4040020140500206A
:103158000E05002090E8FFFF440000200200002038
:10316800E004002046000020160500201805002075
:10317800640400209A99993F08050020C0040020A3
:103188006604002080B500AF034800F0E7FC034860
:1031980000F0E4FC00BF80BDA8000020140100205E
:1031A80080B500AF024805F09BFD00BF80BD00BFA1
:1031B8008402002080B500AF024805F091FD00BFF1
:1031C80080BD00BF8402002080B500AF034805F031
:1031D80087FD034805F084FD00BF80BD8402002000
:1031E8006803002080B500AF024805F079FD00BFF4
:1031F80080BD00BF8402002080B500AF024805F002
:103208006FFD00BF80BD00BFD002002080B500AFB9
:10321800024807F0E9F800BF80BD00BFB4030020F2
:1032280080B500AF4FF4005003F0EEFA00BF80BD48
:1032380080B500AF034805F053FD034802F0C3FC16
:1032480000BF80BD1C030020A801002080B400AF8F
:10325800064BD3F88830054A43F47003C2F8883027
:1032680000BFBD465DF8047B704700BF00ED00E07D
:103278000D4885460D480E490E4A002302E0D458F1
:10328800C4500433C4188C42F9D30B4A0B4C0023A6
:1032980001E013600432A242FBD3FFF7D7FF08F026
:1032A8002DFAFEF755FAFEE7008000200000002006
:1032B80028000020F4BD0008280000202005002078
:1032C800FEE780B582B000AF0023FB71032002F057
:1032D80019FC002000F00EF80346002B02D0012351
:1032E800FB7101E0FFF7B6F9FB7918460837BD46D0
:1032F80080BD000080B584B000AF78600023FB7308
:10330800164B1B68002B22D0154B1A68134B1B68F1
:103318004FF47A71B1FBF3F3B2FBF3F3184602F002
:1033280024FC0346002B0FD17B680F2B09D8002201
:1033380079684FF0FF3002F0F0FB0A4A7B681360AF
:1033480007E00123FB7304E00123FB7301E0012381
:10335800FB73FB7B18461037BD4680BD2400002058
:103368001C0000202000002080B400AF054B1A6824
:10337800054B1B681344034A136000BFBD465DF844
:10338800047B70471C0500202400002080B400AF97
:10339800034B1B681846BD465DF8047B704700BFA9
:1033A8001C05002080B584B000AF7860FFF7EEFF01
:1033B800B8607B68FB60FB68B3F1FF3F04D0094B42
:1033C8001B68FA681344FB6000BFFFF7DFFF024683
:1033D800BB68D31AFA689A42F7D800BF00BF103703
:1033E800BD4680BD2400002080B483B000AF786063
:1033F80039607B689B6823F47C123B681A437B68BE
:103408009A6000BF0C37BD465DF8047B704780B4F6
:1034180083B000AF786039607B689B6823F0E07206
:103428003B681A437B689A6000BF0C37BD465DF85D
:10343800047B704780B483B000AF78607B689B687A
:1034480003F0E07318460C37BD465DF8047B7047FF
:1034580080B487B000AFF860B9607A603B60FB6801
:1034680060331A46BB689B0013447B617B691A680A
:10347800084B13407A6802F0F8413A680A4313434C
:1034880043F000427B691A6000BF1C37BD465DF8F7
:10349800047B704700F0FF0380B485B000AF78600C
:1034A80039607B6860331A463B689B001344FB60B5
:1034B800FB681B6803F0F84318461437BD465DF8EF
:1034C800047B704780B487B000AFF860B9607A6059
:1034D800FB6860331A46BB689B0013447B617B69B9
:1034E8001B6823F000427B681A437B691A6000BF9F
:1034F8001C37BD465DF8047B704780B487B000AFC9
:10350800F860B9607A60FB6860331A46BB689B0054
:1035180013447B617B691B6823F080727B681A43C4
:103528007B691A6000BF1C37BD465DF8047B704795
:1035380080B487B000AFF860B9607A60FB68603328
:103548001A46BB689B0013447B617B691B6823F0A8
:1035580000727B681A437B691A6000BF1C37BD463E
:103568005DF8047B704780B483B000AF7860396041
:103578007B685B6923F000423B681A437B685A61A9
:1035880000BF0C37BD465DF8047B704780B483B03C
:1035980000AF78607B68DB6803F44063002B01D1DF
:1035A800012300E0002318460C37BD465DF8047B74
:1035B800704780B487B000AFF860B9607A60FB6884
:1035C80030331A46BB681B0A9B0003F00C031344F4
:1035D8007B617B691A68BB6803F01F031F2101FA2E
:1035E80003F3DB431A407B689B0E03F01F01BB68A3
:1035F80003F01F0301FA03F31A437B691A6000BF43
:103608001C37BD465DF8047B704780B483B000AFBB
:1036180078607B68DB6C03F4C073002B01D1012355
:1036280000E0002318460C37BD465DF8047B704760
:1036380080B487B000AFF860B9607A60FB68143373
:103648001A46BB685B0E9B0003F0040313447B61BE
:103658007B691A68BB681B0D03F01F03072101FA79
:1036680003F3DB431A40BB681B0D03F01F037968A3
:1036780001FA03F31A437B691A6000BF1C37BD4681
:103688005DF8047B7047000080B485B000AFF86037
:10369800B9607A607B680F4A93420AD1FB68D3F815
:1036A800B020BB68C3F312031A43FB68C3F8B02009
:1036B8000AE0FB68D3F8B020BB68C3F31203DB430E
:1036C8001A40FB68C3F8B02000BF1437BD465DF848
:1036D800047B704700007F4080B483B000AF7860FF
:1036E8007B689B6803F01F0318460C37BD465DF8DE
:1036F800047B704780B483B000AF78607B689B68B8
:1037080003F4604318460C37BD465DF8047B7047E8
:1037180080B483B000AF78607B689B6823F0204357
:1037280023F03F037A68936000BF0C37BD465DF80D
:10373800047B704780B483B000AF78607B689B6877
:1037480003F00053B3F1005F01D1012300E000232F
:1037580018460C37BD465DF8047B704780B483B0CB
:1037680000AF78607B689B6823F0104323F03F0329
:1037780043F080527B689A6000BF0C37BD465DF805
:10378800047B704780B483B000AF78607B689B6827
:1037980003F08053B3F1805F01D1012300E00023DF
:1037A80018460C37BD465DF8047B704780B483B07B
:1037B80000AF78607B689B6823F0004323F03F03E9
:1037C80043F001027B689A6000BF0C37BD465DF884
:1037D800047B704780B483B000AF78607B689B68D7
:1037E80003F00103012B01D1012300E00023184657
:1037F8000C37BD465DF8047B704780B483B000AFDA
:1038080078607B689B6803F00403042B01D10123D3
:1038180000E0002318460C37BD465DF8047B70476E
:1038280080B483B000AF78607B689B6803F00803BE
:10383800082B01D1012300E0002318460C37BD46B0
:103848005DF8047B7047000090B589B000AF7860E0
:103858000023FB770023BB607B68002B01D1012389
:1038680077E17B685B69002B7B68DB6D002B09D1F6
:103878007868FEF713FF7B6800221A667B680022CF
:1038880083F858207B681B681846FFF753FF0346E8
:10389800002B04D07B681B681846FFF739FF7B684C
:1038A8001B681846FFF76EFF0346002B15D17B688F
:1038B8001B681846FFF752FF9C4B1B689B099C4AE4
:1038C800A2FB03239B0901335B00BB6002E0BB68DA
:1038D800013BBB60BB68002BF9D17B681B681846AD
:1038E800FFF750FF0346002B0DD17B68DB6D43F0DB
:1038F80010027B68DA657B681B6E43F001027B6807
:103908001A660123FB777B681B681846FFF775FF6B
:1039180078617B68DB6D03F01003002B40F01081A9
:103928007B69002B40F00C817B68DB6D23F481738D
:1039380043F002027B68DA657B681B681846FFF76C
:1039480049FF0346002B11D14FF0A040FFF742FF7B
:1039580004467848FFF73EFF03462343002B05D172
:103968007B685B6819467448FFF73EFD7B685B7FA0
:103978005A037B68DB6B1A437B68DB681A437B68F6
:103988009B681A437B6893F824301B041343BB617C
:103998007B6893F82430012B06D17B689B6A013B36
:1039A8005B04BA691343BB617B68DB6A002B09D0EF
:1039B8007B68DB6A03F478727B681B6B1343BA6914
:1039C8001343BB617B681B68DA685C4B13407A68F9
:1039D8001268B9690B43D3607B681B681B6923F0C5
:1039E80040617B685A6B7B681B680A431A617B6875
:1039F8001B681846FFF701FF38617B681B6818468B
:103A0800FFF70EFFF8603B69002B6DD1FB68002BB8
:103A18006AD17B681B7F9A037B6893F838305B0018
:103A28001343BB617B681B68DB6823F4804323F086
:103A380002037A681268B9690B43D3607B681B6913
:103A4800002B17D07B681B681A697B681B6842F4D7
:103A580080321A617B681B68D3F8C03023F47F5327
:103A680023F03F037A6811697A6812680B43C2F839
:103A7800C03013E07B681B681A697B681B6822F4F6
:103A880080321A617B681B68D3F8C0307A68126884
:103A980023F47F5323F03F03C2F8C0307B6893F8C8
:103AA8004030012B18D17B681B681B6923F4FF6326
:103AB80023F004037A68516C7A68926C11437A682F
:103AC800D26C11437A68126D0A431A437B681B68EB
:103AD80042F001021A6107E07B681B681A697B687B
:103AE8001B6822F001021A617B685B69012B0CD10B
:103AF8007B681B681B6B23F00F017B681B6A5A1ECF
:103B08007B681B680A431A6307E07B681B681A6BAB
:103B18007B681B6822F00F021A637B68DB6D23F059
:103B2800030343F001027B68DA6511E01C00002002
:103B3800632D3E0500010050000300500740F0FFD0
:103B48007B68DB6D43F010027B68DA650123FB7745
:103B5800FB7F18462437BD4690BD00BF80B58AB0AC
:103B680000AF786000237B627B681B681B68FB6181
:103B78007B681B685B68BB618348FFF7ADFD7861B4
:103B8800FB6903F00203002B17D0BB6903F00203A3
:103B9800002B12D07B68DB6D03F01003002B05D1DE
:103BA8007B68DB6D43F400627B68DA65786801F056
:103BB80019F97B681B6802221A60FB6903F0040389
:103BC800002B04D0BB6903F00403002B0AD1FB6966
:103BD80003F00803002B00F08580BB6903F008039D
:103BE800002B7FD07B68DB6D03F01003002B05D121
:103BF8007B68DB6D43F400727B68DA657B681B6861
:103C08001846FFF7C3FC0346002B64D07B681B688B
:103C18005E4A934202D07B681B6801E04FF0A043E4
:103C28007A681268934208D07B69002B05D07B69BB
:103C3800052B02D07B69092B04D17B681B68DB68E4
:103C48003B620DE07B681B68504A934202D07B6858
:103C58001B6801E04FF0A0433B613B69DB683B62B6
:103C68003B6A03F40053002B35D17B681B681B6843
:103C780003F00803082B2ED17B681B681846FFF752
:103C8800BCFD0346002B1AD17B681B685A687B6809
:103C98001B6822F00C025A607B68DB6D23F480728B
:103CA8007B68DA657B68DB6D03F48053002B12D1E7
:103CB8007B68DB6D43F001027B68DA650BE07B68AB
:103CC800DB6D43F010027B68DA657B681B6E43F09E
:103CD80001027B681A66786800F05AF97B681B68ED
:103CE8000C221A60FB6903F02003002B04D0BB6987
:103CF80003F02003002B0BD1FB6903F04003002BDA
:103D080000F09E80BB6903F04003002B00F0988010
:103D18007B68DB6D03F01003002B05D17B68DB6D3E
:103D280043F400527B68DA657B681B681846FFF726
:103D38006CFCF8607B681B681846FFF727FCB860C6
:103D48007B681B68114A934202D07B681B6801E0BC
:103D58004FF0A0437A681268934208D07B69002B21
:103D680005D07B69062B02D07B69072B04D17B68C1
:103D78001B68DB683B6211E07B681B68034A93425F
:103D880006D07B681B6805E0000300500001005066
:103D98004FF0A0433B613B69DB683B62FB68002B4B
:103DA80047D03B6A03F00073002B07D0BB68002B99
:103DB8003FD03B6A03F40053002B3AD17B681B6861
:103DC8001B6803F04003402B33D13B6A03F4001314
:103DD800002B2ED17B681B681846FFF721FD034690
:103DE800002B1AD17B681B685A687B681B6822F015
:103DF80060025A607B68DB6D23F480527B68DA6569
:103E08007B68DB6D03F48073002B12D17B68DB6D5C
:103E180043F001027B68DA650BE07B68DB6D43F0F9
:103E280010027B68DA657B681B6E43F001027B68D1
:103E38001A667868FEF724FA7B681B6860221A60A5
:103E4800FB6903F08003002B11D0BB6903F08003EA
:103E5800002B0CD07B68DB6D43F480327B68DA651D
:103E6800786800F09FF87B681B6880221A60FB69FD
:103E780003F48073002B12D0BB6903F48073002B0A
:103E88000DD07B68DB6D43F400327B68DA657868B7
:103E980000F094FF7B681B684FF480721A60FB691E
:103EA80003F40073002B12D0BB6903F40073002BDA
:103EB8000DD07B68DB6D43F480227B68DA65786817
:103EC80000F086FF7B681B684FF400721A60FB697C
:103ED80003F01003002B36D0BB6903F01003002B4E
:103EE80031D07B68DB6B002B02D101237B6214E0AD
:103EF8007B69002B08D02548FFF7FCFB0346002B05
:103F08000BD001237B6208E07B681B68DB6803F049
:103F18000103002B01D001237B627B6A012B0ED1A8
:103F28007B68DB6D43F480627B68DA657B681B6EB7
:103F380043F002027B681A66786800F03DF87B68F7
:103F48001B6810221A60FB6903F48063002B18D0E9
:103F5800BB6903F48063002B13D07B68DB6D43F4EB
:103F680080427B68DA657B681B6E43F008027B68D9
:103F78001A667B681B684FF480621A60786800F0E4
:103F880013FF00BF2837BD4680BD00BF00030050A7
:103F980080B483B000AF786000BF0C37BD465DF8D1
:103FA800047B704780B483B000AF786000BF0C37E3
:103FB800BD465DF8047B704780B483B000AF78607D
:103FC80000BF0C37BD465DF8047B704780B5B6B0BE
:103FD80000AF78603960002387F8D7300023FB6092
:103FE8007B6893F85830012B01D10223C8E37B6822
:103FF800012283F858207B681B681846FFF7FDFBF1
:104008000346002B40F0AD837B6818683B6859680D
:104018003B681B681A46FFF7CCFA7B681B68184692
:10402800FFF7EBFBC7F8D0007B681B681846FFF763
:10403800F7FBC7F8CC00D7F8D030002B40F0D98177
:10404800D7F8CC30002B40F0D4813B689B68B3F1A3
:10405800004F0FD17B6818683B681B68002219461F
:10406800FFF7E6FA7B681B684FF000411846FFF738
:104078007AFA0EE07B6818683B6819683B689B68A9
:104088001A46FFF7D5FA7B681B6800211846FFF728
:104098006AFA3B685A697B681B68DB68DB0803F0CF
:1040A80003035B0002FA03F3C7F8C8303B681B69D7
:1040B800042B22D07B6818683B6819693B681A682A
:1040C800D7F8C830FFF7C4F97B6818683B681969E6
:1040D8003B689B691A46FFF710FA7B6818683B68CB
:1040E80019693B681B7F012B02D14FF0007300E078
:1040F80000231A46FFF71CFA7BE17B681B68002146
:104108001846FFF7C9F90346C3F31203002B0AD177
:104118007B681B6800211846FFF7BEF903469B0E13
:1041280003F01F021EE07B681B6800211846FFF79A
:10413800B3F90346C7F8BC30D7F8BC3093FAA3F3F9
:10414800C7F8B830D7F8B830C7F8C030D7F8C0309B
:10415800002B01D1202304E0D7F8C030B3FA83F351
:10416800DBB21A463B681B68C3F31203002B05D168
:104178003B681B689B0E03F01F0318E03B681B6835
:10418800C7F8B030D7F8B03093FAA3F3C7F8AC301B
:10419800D7F8AC30C7F8B430D7F8B430002B01D119
:1041A800202304E0D7F8B430B3FA83F3DBB29A42A1
:1041B80006D17B681B68002200211846FFF782F9A8
:1041C8007B681B6801211846FFF766F90346C3F3AD
:1041D8001203002B0AD17B681B6801211846FFF7E0
:1041E8005BF903469B0E03F01F021EE07B681B6809
:1041F80001211846FFF750F90346C7F8A430D7F84D
:10420800A43093FAA3F3C7F8A030D7F8A030C7F8C2
:10421800A830D7F8A830002B01D1202304E0D7F824
:10422800A830B3FA83F3DBB21A463B681B68C3F3C2
:104238001203002B05D13B681B689B0E03F01F037C
:1042480018E03B681B68C7F89830D7F8983093FA9D
:10425800A3F3C7F89430D7F89430C7F89C30D7F850
:104268009C30002B01D1202304E0D7F89C30B3FA0E
:1042780083F3DBB29A4206D17B681B6800220121D6
:104288001846FFF71FF97B681B6802211846FFF7DD
:1042980003F90346C3F31203002B0AD17B681B689A
:1042A80002211846FFF7F8F803469B0E03F01F0299
:1042B8001EE07B681B6802211846FFF7EDF80346ED
:1042C800C7F88C30D7F88C3093FAA3F3C7F8883046
:1042D800D7F88830C7F89030D7F89030002B01D144
:1042E800202304E0D7F89030B3FA83F3DBB21A4600
:1042F8003B681B68C3F31203002B05D13B681B689E
:104308009B0E03F01F0316E03B681B68C7F880305C
:10431800D7F8803093FAA3F3FB67FB6FC7F88430B4
:10432800D7F88430002B01D1202304E0D7F884305B
:10433800B3FA83F3DBB29A4206D17B681B6800228A
:1043480002211846FFF7BEF87B681B680321184650
:10435800FFF7A2F80346C3F31203002B0AD17B68C8
:104368001B6803211846FFF797F803469B0E03F0D6
:104378001F0217E07B681B6803211846FFF78CF8BB
:1043880003467B677B6F93FAA3F33B673B6FBB677F
:10439800BB6F002B01D1202303E0BB6FB3FA83F37B
:1043A800DBB21A463B681B68C3F31203002B05D126
:1043B8003B681B689B0E03F01F0311E03B681B68FA
:1043C800BB66BB6E93FAA3F37B667B6EFB66FB6EE4
:1043D800002B01D1202303E0FB6EB3FA83F3DBB299
:1043E8009A4206D17B681B68002203211846FFF712
:1043F80069F87B681B681846FFF7ECF90346002B41
:1044080040F040817B6818683B6819683B68DB6846
:104418001A46FFF739F93B68DB688F4A934240F048
:1044280031817B6818683B681B68C3F31203002B53
:104438000BD13B681B689B0E013303F01F03092B4C
:1044480094BF01230023DBB219E03B681B68FB65BE
:10445800FB6D93FAA3F3BB65BB6D3B663B6E002B0C
:1044680001D1202303E03B6EB3FA83F3DBB20133BF
:1044780003F01F03092B94BF01230023DBB2002B99
:1044880079D03B681B68C3F31203002B07D13B6844
:104498001B689B0E01339B0603F0F84215E03B684E
:1044A8001B683B653B6D93FAA3F3FB64FB6C7B6570
:1044B8007B6D002B01D1202303E07B6DB3FA83F3DE
:1044C800DBB201339B0603F0F8423B681B68C3F379
:1044D8001203002B09D13B681B689B0E013303F0C4
:1044E8001F03012101FA03F317E03B681B687B6493
:1044F8007B6C93FAA3F33B643B6CBB64BB6C002BF3
:1045080001D1202303E0BB6CB3FA83F3DBB20133A0
:1045180003F01F03012101FA03F342EA03013B6898
:104528001B68C3F31203002B0AD13B681B689B0E60
:10453800013303F01F0213465B0013441B0518E008
:104548003B681B68BB63BB6B93FAA3F37B637B6B12
:10455800FB63FB6B002B01D1202303E0FB6BB3FA59
:1045680083F3DBB2013303F01F0213465B001344ED
:104578001B050B4381E03B681B68C3F31203002B48
:1045880007D13B681B689B0E01339B0603F0F8427A
:1045980015E03B681B68FB62FB6A93FAA3F3BB62F6
:1045A800BB6A3B633B6B002B01D1202303E03B6BD1
:1045B800B3FA83F3DBB201339B0603F0F8423B689E
:1045C8001B68C3F31203002B09D13B681B689B0EC1
:1045D800013303F01F03012101FA03F317E03B68DD
:1045E8001B683B623B6A93FAA3F3FB61FB697B623E
:1045F8007B6A002B01D1202303E07B6AB3FA83F3A3
:10460800DBB2013303F01F03012101FA03F342EA8D
:1046180003013B681B68C3F31203002B0DD13B68F1
:104628001B689B0E013303F01F0213465B00134403
:104638001E3B1B0543F000731EE03B681B687B6153
:104648007B6993FAA3F33B613B69BB61BB69002BB0
:1046580004D1202306E000BF00007F40BB69B3FA05
:1046680083F3DBB2013303F01F0213465B001344EC
:104678001E3B1B0543F000730B433A6892681946CA
:10468800FEF7D6FF3B681A683F4B1340002B71D0EA
:104698003E48FEF7CFFEC7F8C4003B681B683C4A9B
:1046A800934204D03B681B683A4A934227D1D7F813
:1046B800C43003F40003002B21D17B681B68B3F1DD
:1046C800A04F57D1D7F8C43043F4000319462F48F8
:1046D800FEF79DFE304B1B689B09304AA2FB032363
:1046E8009B095A1C13465B0013449B00FB6002E0C5
:1046F800FB68013BFB60FB68002BF9D13AE03B68A3
:104708001B68274A934213D1D7F8C43003F080734B
:10471800002B0DD17B681B68224A93422AD0D7F818
:10472800C43043F0807319461848FEF770FE21E044
:104738003B681B681C4A93421CD1D7F8C43003F469
:104748008003002B16D17B681B68164A934211D050
:10475800D7F8C43043F4800319460C48FEF757FED7
:1047680008E07B68DB6D43F020027B68DA65012393
:1047780087F8D7307B68002283F8582097F8D7301D
:104788001846D837BD4680BD000008800003005099
:10479800000021C31000C0901C000020632D3E05BE
:1047A800000052C700010050000084CB80B584B0DF
:1047B80000AF78607B681B681846FFF70BF8034664
:1047C800002B4DD17B681B689A68284B1340002B3F
:1047D8000DD07B68DB6D43F010027B68DA657B687F
:1047E8001B6E43F001027B681A66012339E07B687F
:1047F8001B681846FEF7DAFFFEF7C8FDF86028E0E8
:104808007B681B681846FEF7E5FF0346002B04D1BA
:104818007B681B681846FEF7C9FFFEF7B7FD02461E
:10482800FB68D31A022B14D97B681B681B6803F03A
:104838000103012B0DD07B68DB6D43F010027B6810
:10484800DA657B681B6E43F001027B681A660123F8
:1048580007E07B681B681B6803F00103012BCFD1BD
:10486800002318461037BD4680BD00BF3F000080BA
:1048780080B483B000AF786039607B689B6823F0B0
:10488800E0723B681A437B689A6000BF0C37BD46EC
:104898005DF8047B704780B483B000AF78607B68B4
:1048A8009B6803F0E07318460C37BD465DF8047B3F
:1048B8007047000080B487B000AFF860B9607A60D4
:1048C8003B60FB6860331A46BB689B0013447B61FE
:1048D8007B691A68084B13407A6802F0F8413A6815
:1048E8000A43134343F000427B691A6000BF1C3738
:1048F800BD465DF8047B704700F0FF0380B485B0C7
:1049080000AF786039607B6860331A463B689B006B
:104918001344FB60FB681B6803F0F8431846143720
:10492800BD465DF8047B704780B487B000AFF8607F
:10493800B9607A60FB6860331A46BB689B00134411
:104948007B617B691B6823F000427B681A437B69A3
:104958001A6000BF1C37BD465DF8047B704780B401
:1049680087B000AFF860B9607A60FB6860331A46B8
:10497800BB689B0013447B617B691B6823F08072D2
:104988007B681A437B691A6000BF1C37BD465DF817
:10499800047B704780B487B000AFF860B9607A6074
:1049A800FB6860331A46BB689B0013447B617B69D4
:1049B8001B6823F000727B681A437B691A6000BF8A
:1049C8001C37BD465DF8047B704780B483B000AFE8
:1049D800786039607B685B6923F000423B681A4362
:1049E8007B685A6100BF0C37BD465DF8047B704791
:1049F80080B483B000AF78607B68DB6803F0007335
:104A080018460C37BD465DF8047B704780B487B004
:104A180000AFF860B9607A60FB6814331A46BB6867
:104A28005B0E9B0003F0040313447B617B691A68E7
:104A3800BB681B0D03F01F03072101FA03F3DB43D7
:104A48001A40BB681B0D03F01F03796801FA03F3D2
:104A58001A437B691A6000BF1C37BD465DF8047BAA
:104A68007047000080B485B000AFF860B9607A6024
:104A78007B680F4A93420AD1FB68D3F8B020BB6821
:104A8800C3F312031A43FB68C3F8B0200AE0FB68BB
:104A9800D3F8B020BB68C3F31203DB431A40FB68AA
:104AA800C3F8B02000BF1437BD465DF8047B7047DB
:104AB80000007F4080B483B000AF78607B689B685B
:104AC80003F01F0318460C37BD465DF8047B70479A
:104AD80080B483B000AF78607B689B6803F0010303
:104AE800012B01D1012300E0002318460C37BD46F5
:104AF8005DF8047B704780B483B000AF78607B6852
:104B08009B6803F00403042B01D1012300E0002378
:104B180018460C37BD465DF8047B704780B483B0F7
:104B280000AF78607B689B6823F0004323F03F0365
:104B380043F008027B689A6000BF0C37BD465DF8F9
:104B4800047B704780B483B000AF78607B689B6853
:104B580003F00803082B01D1012300E000231846C5
:104B68000C37BD465DF8047B7047000080B586B001
:104B780000AF78606E48FFF79DFF78617B681B681F
:104B88001846FFF7DFFF0346002B01D00223CAE0D7
:104B98007B681B68DB6803F000433B617B681B682C
:104BA800DB6C03F4C073002B0AD13B69002B07D1DF
:104BB8007B68DB6D43F020027B68DA650123B2E095
:104BC8007B6893F85830012B01D10223ABE07B6856
:104BD800012283F858207868FFF7E8FD0346FB7345
:104BE800FB7B002B40F09A807B68DB6D03F48073BD
:104BF800002B06D07B681B6E23F008027B681A66C0
:104C080002E07B6800221A667B68DB6D23F4405360
:104C180023F0010343F480527B68DA657B681B68E4
:104C2800444A934202D07B681B6801E04FF0A043DE
:104C38007A681268934202D07B69002B05D17B68A1
:104C4800DB6D23F480127B68DA657B681B68602261
:104C58001A607B68002283F858207B681B68DB6831
:104C680003F40013002B07D07B681B685A687B6825
:104C78001B6842F480625A607B689B69082B10D1DC
:104C88007B681B685A687B681B6822F020025A60A0
:104C98007B681B685A687B681B6842F040025A6050
:104CA80010E07B681B685A687B681B6822F040022A
:104CB8005A607B681B685A687B681B6842F0200250
:104CC8005A6000BF7B681B681A4A934202D07B680F
:104CD8001B6801E04FF0A0437A681268934208D03D
:104CE8007B69002B05D07B69062B02D07B69072BDB
:104CF8000DD17B681B681846FFF77AFE0346002B28
:104D080010D17B681B681846FFF708FF0AE07B682C
:104D1800DB6D43F480127B68DA6503E07B68002270
:104D280083F85820FB7B18461837BD4680BD00BF66
:104D3800000300500001005080B485B000AF7860D7
:104D480039603B6840F21B3293420ED03B68B3F5A2
:104D5800477F1CD23B6840F20F12934211D03B6848
:104D680040F21522934206D011E07B681B68D3F805
:104D78008C30FB6011E07B681B68D3F88830FB60DF
:104D88000BE07B681B68D3F88430FB6005E07B6828
:104D98001B68D3F88030FB6000BFFB6818461437E7
:104DA800BD465DF8047B704780B483B000AF78607F
:104DB80000BF0C37BD465DF8047B704780B483B0F4
:104DC80000AF786000BF0C37BD465DF8047B7047C4
:104DD80080B483B000AF786000BF0C37BD465DF883
:104DE800047B704780B483B000AF786000BF0C3795
:104DF800BD465DF8047B704780B5B6B000AF7860FB
:104E08003960002387F8D7300023BB600023C7F838
:104E1800D0307B6893F85830012B02D1022300F080
:104E2800B5BC7B68012283F858207B685B69002B3E
:104E380003D03B681B6A012B30D13B685B68092BA8
:104E480079D13B689B6A002B10D03B681B689B0E8E
:104E58005B0203F478523B689B6A03F07C031A43B5
:104E68003B68DB6A1343C7F8D03007E03B681B6830
:104E78009B0E5B0203F47853C7F8D0307B681B683D
:104E8800DA6C844B13407A681268D7F8D0100B4359
:104E9800D3647B68D7F8D0205A664CE07B689B6E59
:104EA800002B1DD13B681A6A7B689A667B680022D2
:104EB8005A663B689B6A002B0DD03B681B6A5A1EDA
:104EC8003B689B6A03F07C031A433B68DB6A134325
:104ED800C7F8D03004E03B681B6A013BC7F8D03004
:104EE8003B681B689B0E03F01F023B685B6803F07E
:104EF8001F0302FA03F3D7F8D0201343C7F8D030C2
:104F08007B689B6E5A1E7B689A667B685A6ED7F8D8
:104F1800D0301A437B685A667B689B6E002B0AD197
:104F28007B681B68DA6C5B4B13407A68516E7A6851
:104F380012680B43D3647B681B681846FFF702FEB0
:104F48000346002B24D13B6893F82530002B12D15F
:104F58007B681B68DB6823F440113B6893F82630B4
:104F68005A053B6893F824301B051A437B681B6875
:104F78000A43DA600CE07B681B68DB6823F44011A5
:104F88003B6893F826305A057B681B680A43DA6049
:104F98007B681B681846FFF7AEFDC7F8CC007B6836
:104FA8001B681846FFF7CEFDC7F8C800D7F8CC3005
:104FB800002B40F02E82D7F8C830002B40F0298211
:104FC8003B689B6A002B03D03B68DB6A002B16D139
:104FD8003B6893F82530012B08D17B681B68DA6899
:104FE8007B681B6842F00072DA601FE07B681B6810
:104FF800DA687B681B6822F00072DA6016E03B68AA
:1050080093F82530012B09D17B68DB6D43F0200232
:105018007B68DA65012387F8D73007E07B681B686F
:10502800DA687B681B6822F00072DA603B6893F8E4
:105038003030012B10D17B681B681B6923F4FF7289
:105048003B68596B3B689B6B0B431A437B681B6837
:1050580042F002021A6107E07B681B681A697B68E4
:105068001B6822F002021A613B689B68B3F1004F8B
:1050780012D17B6818683B681B6800221946FFF745
:10508800C5FC7B681B684FF000411846FFF79DFC84
:1050980011E000BF004010047B6818683B6819687D
:1050A8003B689B681A46FFF7B1FC7B681B680021C8
:1050B8001846FFF78AFC3B685A697B681B68DB68FF
:1050C800DB0803F003035B0002FA03F3C7F8C430FC
:1050D8003B681B69042B22D07B6818683B681969F8
:1050E8003B681A68D7F8C430FFF7E4FB7B68186898
:1050F8003B6819693B689B691A46FFF730FC7B6877
:1051080018683B6819693B681B7F012B02D14FF077
:10511800007300E000231A46FFF73CFC79E17B6846
:105128001B6800211846FFF7E9FB0346C3F3120387
:10513800002B0AD17B681B6800211846FFF7DEFBAD
:1051480003469B0E03F01F021EE07B681B680021CC
:105158001846FFF7D3FB0346C7F8B830D7F8B8307E
:1051680093FAA3F3C7F8B430D7F8B430C7F8BC3013
:10517800D7F8BC30002B01D1202304E0D7F8BC308D
:10518800B3FA83F3DBB21A463B681B68C3F3120316
:10519800002B05D13B681B689B0E03F01F0318E02A
:1051A8003B681B68C7F8AC30D7F8AC3093FAA3F368
:1051B800C7F8A830D7F8A830C7F8B030D7F8B0305B
:1051C800002B01D1202304E0D7F8B030B3FA83F3E1
:1051D800DBB29A4206D17B681B6800220021184680
:1051E800FFF7A2FB7B681B6801211846FFF786FBC7
:1051F8000346C3F31203002B0AD17B681B68012105
:105208001846FFF77BFB03469B0E03F01F021EE0C8
:105218007B681B6801211846FFF770FB0346C7F837
:10522800A030D7F8A03093FAA3F3C7F89C30D7F88A
:105238009C30C7F8A430D7F8A430002B01D1202324
:1052480004E0D7F8A430B3FA83F3DBB21A463B681C
:105258001B68C3F31203002B05D13B681B689B0E28
:1052680003F01F0318E03B681B68C7F89430D7F8B1
:10527800943093FAA3F3C7F89030D7F89030C7F872
:105288009830D7F89830002B01D1202304E0D7F8C4
:105298009830B3FA83F3DBB29A4206D17B681B6875
:1052A800002201211846FFF73FFB7B681B6802219B
:1052B8001846FFF723FB0346C3F31203002B0AD15A
:1052C8007B681B6802211846FFF718FB03469B0EF4
:1052D80003F01F021EE07B681B6802211846FFF7D7
:1052E8000DFB0346C7F88830D7F8883093FAA3F344
:1052F800C7F88430D7F88430C7F88C30D7F88C30AA
:10530800002B01D1202304E0D7F88C30B3FA83F3C3
:10531800DBB21A463B681B68C3F31203002B05D1A6
:105328003B681B689B0E03F01F0314E03B681B6877
:10533800FB67FB6F93FAA3F3BB67BB6FC7F88030BB
:10534800D7F88030002B01D1202304E0D7F8803033
:10535800B3FA83F3DBB29A4206D17B681B6800225A
:1053680002211846FFF7E0FA7B681B6803211846FC
:10537800FFF7C4FA0346C3F31203002B0AD17B6874
:105388001B6803211846FFF7B9FA03469B0E03F082
:105398001F0217E07B681B6803211846FFF7AEFA67
:1053A80003463B673B6F93FAA3F3FB66FB6E7B6791
:1053B8007B6F002B01D1202303E07B6FB3FA83F3CB
:1053C800DBB21A463B681B68C3F31203002B05D1F6
:1053D8003B681B689B0E03F01F0311E03B681B68CA
:1053E8007B667B6E93FAA3F33B663B6EBB66BB6E34
:1053F800002B01D1202303E0BB6EB3FA83F3DBB2A9
:105408009A4206D17B681B68002203211846FFF7E1
:105418008BFA7B681B681846FFF75AFB0346002B7C
:1054280040F040817B6818683B6819683B68DB6816
:105438001A46FFF717FB3B68DB688F4A934240F038
:1054480031817B6818683B681B68C3F31203002B23
:105458000BD13B681B689B0E013303F01F03092B1C
:1054680094BF01230023DBB219E03B681B68BB65CE
:10547800BB6D93FAA3F37B657B6DFB65FB6D002B1E
:1054880001D1202303E0FB6DB3FA83F3DBB20133D0
:1054980003F01F03092B94BF01230023DBB2002B69
:1054A80079D03B681B68C3F31203002B07D13B6814
:1054B8001B689B0E01339B0603F0F84215E03B681E
:1054C8001B68FB64FB6C93FAA3F3BB64BB6C3B6582
:1054D8003B6D002B01D1202303E03B6DB3FA83F32E
:1054E800DBB201339B0603F0F8423B681B68C3F349
:1054F8001203002B09D13B681B689B0E013303F094
:105508001F03012101FA03F317E03B681B683B64A2
:105518003B6C93FAA3F3FB63FB6B7B647B6C002B04
:1055280001D1202303E07B6CB3FA83F3DBB20133B0
:1055380003F01F03012101FA03F342EA03013B6868
:105548001B68C3F31203002B0AD13B681B689B0E30
:10555800013303F01F0213465B0013441B0518E0D8
:105568003B681B687B637B6B93FAA3F33B633B6BE2
:10557800BB63BB6B002B01D1202303E0BB6BB3FAE9
:1055880083F3DBB2013303F01F0213465B001344BD
:105598001B050B4381E03B681B68C3F31203002B18
:1055A80007D13B681B689B0E01339B0603F0F8424A
:1055B80015E03B681B68BB62BB6A93FAA3F37B6286
:1055C8007B6AFB62FB6A002B01D1202303E0FB6AA4
:1055D800B3FA83F3DBB201339B0603F0F8423B686E
:1055E8001B68C3F31203002B09D13B681B689B0E91
:1055F800013303F01F03012101FA03F317E03B68AD
:105608001B68FB61FB6993FAA3F3BB61BB693B624F
:105618003B6A002B01D1202303E03B6AB3FA83F3F2
:10562800DBB2013303F01F03012101FA03F342EA5D
:1056380003013B681B68C3F31203002B0DD13B68C1
:105648001B689B0E013303F01F0213465B001344D3
:105658001E3B1B0543F000731EE03B681B683B6163
:105668003B6993FAA3F3FB60FB687B617B69002BC2
:1056780004D1202306E000BF00007F407B69B3FA15
:1056880083F3DBB2013303F01F0213465B001344BC
:105698001E3B1B0543F000730B433A68926819469A
:1056A800FFF7B4F93B681A683A4B1340002B67D0F0
:1056B8003948FFF7F0F8C7F8C0003B681B68374A5D
:1056C800934204D03B681B68354A934227D1D7F8E8
:1056D800C03003F40003002B21D17B681B68B3F1B1
:1056E800A04F4DD1D7F8C03043F4000319462A48DB
:1056F800FFF7BEF82B4B1B689B092B4AA2FB032321
:105708009A0913465B0013449B001833BB6002E000
:10571800BB68013BBB60BB68002BF9D130E03B683C
:105728001B68224A934213D1D7F8C03003F0807324
:10573800002B0DD17B681B681D4A934220D0D7F8F7
:10574800C03043F0807319461348FFF791F817E00B
:105758003B681B68174A934212D1D7F8C03003F44C
:105768008003002B0CD17B681B68114A934207D039
:10577800D7F8C03043F4800319460748FFF778F894
:105788007B68002283F8582097F8D7301846D83716
:10579800BD4680BD0000088000030050000021C302
:1057A8001000C0901C000020632D3E05000052C769
:1057B80000010050000084CB90B5A1B000AF786024
:1057C8003960002387F87F307B6893F85830012BC5
:1057D80001D102238BE07B68012283F85820002343
:1057E8007B660023BB667B681B68B3F1A04F02D1C0
:1057F800414BBB6001E00023BB60BB68002B0BD1B1
:105808007B68DB6D43F020027B68DA657B680022E9
:1058180083F8582001236AE0BB681846FFF76BF944
:10582800B8677B681B681846FFF765F90346002BC5
:105838004CD1BB6F002B49D1304B7B673B681B6851
:10584800002B28D07B6F9B6823F460423B68596823
:105858007B6893F838305B030B431A437B6F9A607D
:105868004FF0A040FFF734F904462348FFF730F91A
:1058780003462343002B33D17B6F9B6823F471636A
:1058880023F00F033A6811683A6892680A431A438A
:105898007B6F9A6024E07B6F9B6823F460427B6F88
:1058A8009A604FF0A040FFF713F904461248FFF73B
:1058B8000FF903462343002B12D17B6F9B6823F417
:1058C800716323F00F037A6F936009E07B68DB6DE7
:1058D80043F020027B68DA65012387F87F3000E017
:1058E80000BF7B68002283F8582097F87F3018465D
:1058F8008437BD4690BD00BF000100500003005032
:1059080080B582B000AF78607B68002B01D101239D
:1059180023E07B6893F82130DBB2002B06D17B684B
:10592800002283F820207868FCF786FF7B68002235
:105938005A627B6800225A607B6800229A607B6802
:105948000022DA607B6800221A617B6800225A61B3
:105958007B68012283F82120002318460837BD46BA
:1059680080BD000080B485B000AF78607B6803F02C
:105978000703FB600C4BDB68BB60BA684FF6FF039C
:105988001340BB60FB681A02BB68134343F0BF6354
:1059980043F40033BB60044ABB68D36000BF1437CC
:1059A800BD465DF8047B704700ED00E080B400AFB1
:1059B800044BDB681B0A03F007031846BD465DF875
:1059C800047B704700ED00E080B483B000AF03466D
:1059D800FB7197F90730002B0BDBFB7903F01F02F3
:1059E800074997F907305B09012000FA02F241F8EC
:1059F800232000BF0C37BD465DF8047B704700BF0D
:105A080000E100E080B483B000AF03463960FB7169
:105A180097F90730002B0ADB3B68DAB20C4997F993
:105A280007301201D2B20B4483F800230AE03B6826
:105A3800DAB20849FB7903F00F03043B1201D2B232
:105A48000B441A7600BF0C37BD465DF8047B7047DF
:105A580000E100E000ED00E080B489B000AFF8603C
:105A6800B9607A60FB6803F00703FB61FB69C3F167
:105A78000703042B28BF0423BB61FB690433062BEF
:105A880002D9FB69033B00E000237B614FF0FF3242
:105A9800BB6902FA03F3DA43BB681A407B699A4090
:105AA8004FF0FF317B6901FA03F3D9437B680B4060
:105AB800134318462437BD465DF8047B7047000041
:105AC80080B582B000AF78607B68013BB3F1807F1E
