:020000040800F2
:100000000080002099380008A5330008AB330008B1
:10001000B1330008B7330008BD330008000000000A
:10002000000000000000000000000000C3330008D2
:10003000D133000800000000DF330008F13300086E
:10004000E9380008E9380008E9380008E93800080C
:10005000E9380008E9380008E9380008E9380008FC
:10006000E9380008E9380008E9380008E9380008EC
:10007000E9380008E9380008E9380008E9380008DC
:10008000E938000800000000AD370008E938000832
:10009000E9380008E9380008E9380008E9380008BC
:1000A000C9370008DD370008F13700080D380008AF
:1000B00021380008E9380008E9380008E938000864
:1000C000E9380008E9380008E9380008E93800088C
:1000D000E938000835380008E9380008E938000830
:1000E00049380008E9380008E9380008E93800080C
:1000F000E9380008E9380008E93800080000000085
:1001000000000000E938000800000000E93800089D
:10011000E93800080000000059380008E9380008F4
:10012000E9380008E9380008E9380008E93800082B
:10013000E93800080000000000000000E93800086D
:10014000E9380008E938000800000000000000005D
:10015000000000000000000000000000000000009F
:10016000000000000000000000000000E938000866
:10017000E938000800000000000000000000000056
:1001800000000000E9380008000000000000000046
:10019000000000000000000000000000000000005F
:1001A0000000000000000000E9380008E9380008FD
:1001B000E9380008E9380008E938000800000000C4
:1001C00000000000E9380008000000000000000006
:0801D000E9380008E9380008D5
:1001D80010B5054C237833B9044B13B10448AFF379
:1001E80000800123237010BD48000020000000009B
:1001F80098CE000808B5034B1BB103490348AFF379
:10020800008008BD000000004C00002098CE0008C7
:1002180081F0004102E000BF83F0004330B54FEAAF
:1002280041044FEA430594EA050F08BF90EA020F1C
:100238001FBF54EA000C55EA020C7FEA645C7FEAAF
:10024800655C00F0E2804FEA5454D4EB5555B8BFD2
:100258006D420CDD2C4480EA020281EA030382EA43
:10026800000083EA010180EA020281EA0303362DD5
:1002780088BF30BD11F0004F4FEA01314FF4801CA8
:100288004CEA113102D0404261EB410113F0004FBA
:100298004FEA03334CEA133302D0524263EB430371
:1002A80094EA050F00F0A780A4F10104D5F1200E0F
:1002B8000DDB02FA0EFC22FA05F2801841F100016A
:1002C80003FA0EF2801843FA05F359410EE0A5F13E
:1002D80020050EF1200E012A03FA0EFC28BF4CF06F
:1002E800020C43FA05F3C01851EBE37101F0004525
:1002F80007D54FF0000EDCF1000C7EEB00006EEB32
:100308000101B1F5801F1BD3B1F5001F0CD34908BB
:100318005FEA30004FEA3C0C04F101044FEA445212
:1003280012F5800F80F09A80BCF1004F08BF5FEA99
:10033800500C50F1000041EB045141EA050130BD79
:100348005FEA4C0C404141EB0101013C28BFB1F58B
:10035800801FE9D291F0000F04BF01460020B1FAD6
:1003680081F308BF2033A3F10B03B3F120020CDAA9
:100378000C3208DD02F1140CC2F10C0201FA0CF087
:1003880021FA02F10CE002F11402D8BFC2F1200CEC
:1003980001FA02F120FA0CFCDCBF41EA0C019040A2
:1003A800E41AA2BF01EB0451294330BD6FEA0404EB
:1003B8001F3C1CDA0C340EDC04F11404C4F12002D6
:1003C80020FA04F001FA02F340EA030021FA04F3E8
:1003D80045EA030130BDC4F10C04C4F1200220FA3F
:1003E80002F001FA04F340EA0300294630BD21FA7D
:1003F80004F0294630BD94F0000F83F4801306BF43
:1004080081F480110134013D4EE77FEA645C18BF36
:100418007FEA655C29D094EA050F08BF90EA020FCD
:1004280005D054EA000C04BF1946104630BD91EAC5
:10043800030F1EBF0021002030BD5FEA545C05D1C8
:100448004000494128BF41F0004130BD14F5800407
:100458003CBF01F5801130BD01F0004545F0FE417B
:1004680041F470014FF0000030BD7FEA645C1ABFB0
:10047800194610467FEA655C1CBF0B46024650EAE7
:10048800013406BF52EA033591EA030F41F4002113
:1004980030BD00BF90F0000F04BF0021704730B599
:1004A8004FF4806404F132044FF000054FF000016E
:1004B80050E700BF90F0000F04BF0021704730B52F
:1004C8004FF4806404F1320410F0004548BF404204
:1004D8004FF000013EE700BF42004FEAE2014FEA59
:1004E80031014FEA02701FBF12F07F4393F07F4F34
:1004F80081F06051704732F07F4208BF704793F037
:100508007F4F04BF41F40021704730B54FF4607449
:1005180001F0004521F000411CE700BF50EA01024C
:1005280008BF704730B54FF000050AE050EA0102F5
:1005380008BF704730B511F0004502D5404261EB65
:1005480041014FF4806404F132045FEA915C3FF4A6
:10055800D8AE4FF003025FEADC0C18BF03325FEA43
:10056800DC0C18BF033202EBDC02C2F1200300FAF4
:1005780003FC20FA02F001FA03FE40EA0E0021FA19
:1005880002F11444BDE600BF70B54FF0FF0C4CF407
:10059800E06C1CEA11541DBF1CEA135594EA0C0FB9
:1005A80095EA0C0F00F0DEF82C4481EA030621EAF4
:1005B8004C5123EA4C5350EA013518BF52EA03352F
:1005C80041F4801143F4801338D0A0FB02CE4FF0E1
:1005D8000005E1FB02E506F00042E0FB03E54FF011
:1005E8000006E1FB03569CF0000F18BF4EF0010E09
:1005F800A4F1FF04B6F5007F64F5407404D25FEA05
:100608004E0E6D4146EB060642EAC62141EA5551B7
:100618004FEAC52040EA5E504FEACE2EB4F1FD0CF9
:1006280088BFBCF5E06F1ED8BEF1004F08BF5FEA77
:10063800500E50F1000041EB045170BD06F0004629
:1006480046EA010140EA020081EA0301B4EB5C04D6
:10065800C2BFD4EB0C0541EA045170BD41F48011CE
:100668004FF0000E013C00F3AB8014F1360FDEBFF3
:10067800002001F0004170BDC4F10004203C35DACF
:100688000C341BDC04F11404C4F1200500FA05F352
:1006980020FA04F001FA05F240EA020001F00042F3
:1006A80021F0004110EBD37021FA04F642EB060169
:1006B8005EEA430E08BF20EAD37070BDC4F10C0493
:1006C800C4F1200500FA04F320FA05F001FA04F257
:1006D80040EA020001F0004110EBD37041F1000143
:1006E8005EEA430E08BF20EAD37070BDC4F120054E
:1006F80000FA05F24EEA020E20FA04F301FA05F2B6
:1007080043EA020321FA04F001F0004121FA04F25D
:1007180020EA020000EBD3705EEA430E08BF20EA2D
:10072800D37070BD94F0000F0FD101F00046400067
:1007380041EB010111F4801F08BF013CF7D041EAE9
:10074800060195F0000F18BF704703F000465200ED
:1007580043EB030313F4801F08BF013DF7D043EABE
:100768000603704794EA0C0F0CEA135518BF95EA74
:100778000C0F0CD050EA410618BF52EA4306D1D1FB
:1007880081EA030101F000414FF0000070BD50EA1A
:10079800410606BF1046194652EA430619D094EAA4
:1007A8000C0F02D150EA013613D195EA0C0F05D18E
:1007B80052EA03361CBF104619460AD181EA0301E2
:1007C80001F0004141F0FE4141F470014FF000009A
:1007D80070BD41F0FE4141F4780170BD70B54FF035
:1007E800FF0C4CF4E06C1CEA11541DBF1CEA1355B5
:1007F80094EA0C0F95EA0C0F00F0A7F8A4EB050497
:1008080081EA030E52EA03354FEA013100F088808D
:100818004FEA03334FF0805545EA131343EA126356
:100828004FEA022245EA111545EA10654FEA00260B
:100838000EF000419D4208BF964244F1FD0404F5C4
:10084800407402D25B084FEA3202B61A65EB030520
:100858005B084FEA32024FF480104FF4002CB6EBDD
:10086800020E75EB030E22BFB61A754640EA0C005D
:100878005B084FEA3202B6EB020E75EB030E22BF9D
:10088800B61A754640EA5C005B084FEA3202B6EBDE
:10089800020E75EB030E22BFB61A754640EA9C009D
:1008A8005B084FEA3202B6EB020E75EB030E22BF6D
:1008B800B61A754640EADC0055EA060E18D04FEA2B
:1008C800051545EA16754FEA06164FEAC30343EACB
:1008D80052734FEAC2025FEA1C1CC0D111F4801F98
:1008E8000BD141EA00014FF000004FF0004CB6E791
:1008F80011F4801F04BF01430020B4F1FD0C88BF30
:10090800BCF5E06F3FF6AFAEB5EB030C04BFB6EB3A
:10091800020C5FEA500C50F1000041EB045170BD2D
:100928000EF0004E4EEA113114EB5C04C2BFD4EB5A
:100938000C0541EA045170BD41F480114FF0000EDE
:10094800013C90E645EA060E8DE60CEA135594EA5A
:100958000C0F08BF95EA0C0F3FF43BAF94EA0C0F5D
:100968000AD150EA01347FF434AF95EA0C0F7FF4D2
:1009780025AF104619462CE795EA0C0F06D152EA26
:1009880003353FF4FDAE1046194622E750EA41060A
:1009980018BF52EA43067FF4C5AE50EA41047FF41B
:1009A8000DAF52EA43057FF4EBAE12E74FF0FF3C80
:1009B80006E000BF4FF0010C02E000BF4FF0010C51
:1009C8004DF804CD4FEA410C7FEA6C5C4FEA430CCA
:1009D80018BF7FEA6C5C1BD001B050EA410C0CBF19
:1009E80052EA430C91EA030F02BF90EA020F00207B
:1009F800704710F1000F91EA030F58BF994208BFE2
:100A080090422CBFD8176FEAE37040F0010070479E
:100A18004FEA410C7FEA6C5C02D150EA013C07D1F5
:100A28004FEA430C7FEA6C5CD6D152EA033CD3D040
:100A38005DF8040B704700BF8446104662468C463A
:100A48001946634600E000BF01B5FFF7B7FF00286D
:100A580048BF10F1000F01BD4DF808EDFFF7F4FF96
:100A68000CBF012000205DF808FB00BF4DF808ED21
:100A7800FFF7EAFF34BF012000205DF808FB00BF44
:100A88004DF808EDFFF7E0FF94BF012000205DF866
:100A980008FB00BF4DF808EDFFF7CEFF94BF01201B
:100AA80000205DF808FB00BF4DF808EDFFF7C4FF14
:100AB80034BF012000205DF808FB00BF4FEA410267
:100AC80012F5001215D211D56FF47873B3EB625298
:100AD80012D94FEAC12343F0004343EA505311F0BF
:100AE800004F23FA02F018BF404270474FF0000051
:100AF800704750EA013005D111F0004008BF6FF08F
:100B0800004070474FF00000704700BF4A0011D204
:100B180012F5001211D20DD56FF47873B3EB62524F
:100B28000ED44FEAC12343F0004343EA505323FA5B
:100B380002F070474FF00000704750EA013002D1D0
:100B48004FF0FF3070474FF0000070474FEA410206
:100B5800B2F1E04324BFB3F5001CDCF1FE5C0DD913
:100B680001F0004C4FEAC0024CEA5070B2F1004F5D
:100B780040EB830008BF20F00100704711F0804F60
:100B880021D113F13872BCBF01F00040704741F425
:100B980080114FEA5252C2F11802C2F1200C10FA29
:100BA8000CF320FA02F018BF40F001004FEAC1230D
:100BB8004FEAD32303FA0CFC40EA0C0023FA02F3B1
:100BC8004FEA4303CCE77FEA625307D150EA013387
:100BD8001EBF4FF0FE4040F44000704701F0004057
:100BE80040F0FE4040F40000704700BF53B94AB9D6
:100BF800002908BF00281CBF4FF0FF314FF0FF301D
:100C080000F070B9ADF1080C6DE904CE00F006F8FB
:100C1800DDF804E0DDE9022304B070472DE9F04770
:100C2800089E0D4604460F46002B4AD18A42944638
:100C380065D9B2FA82F343B102FA03FCC3F1200288
:100C48009F4020FA02F217439C404FEA1C4E1FFABD
:100C58008CF5B7FBFEF1220C0EFB117742EA074236
:100C680001FB05F090420AD91CEB020201F1FF37A3
:100C780080F01C81904240F2198102396244121AB4
:100C8800A4B2B2FBFEF00EFB102244EA024400FBC1
:100C980005F5A5420AD91CEB040400F1FF3280F0E7
:100CA8000781A54240F204816444023840EA0140C9
:100CB800641B00211EB1DC400023C6E90043BDE8E7
:100CC800F0878B4208D9002E00F0ED800021C6E99C
:100CD80000050846BDE8F087B3FA83F1002949D139
:100CE800AB4202D3824200F2F880841A65EB030219
:100CF80001201746002EE2D0C6E90047DFE702B917
:100D0800FFDEB2FA82F3002B40F090808A1A4FEA95
:100D18001C471FFA8CFE0121B2FBF7F507FB1520D3
:100D2800220C42EA00420EFB05F0904208D91CEB67
:100D3800020205F1FF3802D2904200F2CB8045460C
:100D4800121AA4B2B2FBF7F007FB102244EA0244DD
:100D58000EFB00FEA64508D91CEB040400F1FF3287
:100D680002D2A64500F2BB801046A4EB0E0440EA6E
:100D780005409FE7C1F120078B4022FA07FC4CEAA7
:100D8800030C05FA01F420FA07F3FD404FEA1C4969
:100D98002343B5FBF9F81FFA8CFE09FB18551C0C08
:100DA80044EA054408FB0EF5A54202FA01F200FAEE
:100DB80001F00BD91CEB040408F1FF3A80F088809D
:100DC800A54240F28580A8F102086444641B9DB2E4
:100DD800B4FBF9F309FB134445EA044403FB0EFE94
:100DE800A64508D91CEB040403F1FF356CD2A645CF
:100DF8006AD9023B644443EA0843A3FB0295A4EB87
:100E08000E04AC42C846AE4656D353D056B1B0EBEA
:100E1800080264EB0E0404FA07F7CA40CC401743F3
:100E2800C6E9007418460021BDE8F087C3F1200127
:100E380002FA03FC20FA01F225FA01F19D402A4347
:100E48004FEA1C471FFA8CFEB1FBF7F007FB1015A1
:100E5800110C41EA054100FB0EF58D4204FA03F43A
:100E680008D91CEB010100F1FF382FD28D422DD992
:100E780002386144491B92B2B1FBF7F507FB151123
:100E880042EA014205FB0EF1914208D91CEB02022D
:100E980005F1FF3816D2914214D9023D6244521A24
:100EA80045EA004138E73146304608E73946E6E684
:100EB8001046FBE64845A9D2B9EB020865EB0C0ED3
:100EC800013BA3E74546EAE72B4694E74046D1E7CE
:100ED800D0467BE7023D624432E708460AE76444AD
:100EE800023842E7704700BF80B400AF434B1B880D
:100EF8001BB21A46424B1B881BB2D31A414A1360D5
:100F0800414B1A683F4B1B6813443F4A13603E4BE2
:100F18001B683E4A934203DD3B4B3C4A1A6007E09C
:100F2800394B1B683A4A934202DA374B384A1A60FF
:100F3800384B1B68334A126803FB02F2364B1B68B6
:100F48003149096801FB03F31344344A1360334BF6
:100F58001B68334A934202DD304B314A1A602F4BEB
:100F68001B68304A934202DA2C4B2E4A1A602B4BEC
:100F78001B682D4A82FB03129213DB17D31A9AB20D
:100F88002A4B1A80294B1B889BB2B3F5FA7F03D9E9
:100F9800264B4FF4FA721A80244B1B889BB2002B05
:100FA80002D1224B00221A80204B1B889BB207EEED
:100FB800903AF8EE677A1E4BC3ED007A174B1B6820
:100FC800194A82FB03129213DB17D31A194A1360CA
:100FD800184B1B68B3F5FA7F03DD164B4FF4FA7212
:100FE8001A60144B1B6813F5FA7F02DA114B124A88
:100FF8001A6000BFBD465DF8047B704720000020E2
:10100800CA000020680000206C000020A0860100B3
:101018006079FEFF04000020080000207400002012
:1010280000E1F505001F0AFA89B5F8147A000020D6
:101038000C000020940000200CFEFFFF80B400AFDD
:101048000C4B1B78DBB2012B0ED10B4B1B889AB2D1
:101058000A4B5A630A4B1B889AB2084B9A63094B8E
:101068001B889AB2054BDA6300BFBD465DF8047B66
:10107800704700BF00000020C0000020002C014085
:10108800C2000020C400002080B400AF634B1B687E
:10109800634A128812B29B1A624A1360624B1A683A
:1010A800604B1B681344604A13605F4B1B685F4AC0
:1010B800934202DD5C4B5D4A1A605B4B1B685C4ADD
:1010C800934202DA584B5A4A1A60574B1B6807EE8C
:1010D800903AB8EEE77A574BD3ED007A67EE277A65
:1010E800FDEEE77A17EE902A534B1A60524B1B68B5
:1010F800524A934202DD504B504A1A604E4B1B68CD
:101108004F4A934202DA4C4B4D4A1A60454B1B68D2
:1011180007EE903AB8EEE77A4A4BD3ED007A27EE1D
:10112800277A454B1B6807EE903AF8EEE77A77EE98
:10113800277AFDEEE77A17EE902A434B1A60424B66
:101148001B683E4A934202DD3F4B3C4A1A603E4BC5
:101158001B683B4A934202DA3B4B394A1A603B4BC5
:101168001B683B4A128812B29B1A3A4A13603A4BE0
:101178001A68384B1B681344374A1360364B1B6890
:1011880007EE903AB8EEE77A344BD3ED007A67EE83
:10119800277AFDEEE77A17EE902A314B1A60304B2A
:1011A8001B68304A934202DD2D4B2E4A1A602C4BA5
:1011B8001B682D4A934202DA294B2B4A1A60254BA9
:1011C8001B6807EE903AB8EEE77A284BD3ED007A21
:1011D80027EE277A224B1B6807EE903AF8EEE77A5B
:1011E80077EE277AFDEEE77A17EE902A204B1A6001
:1011F8001F4B1B68114A934202DD1D4B0F4A1A60B0
:101208001B4B1B680E4A934202DA194B0C4A1A60B0
:1012180000BFBD465DF8047B704700BF9400002006
:10122800A8000020800000208800002020A10700DE
:10123800E05EF8FF1C0000209C0000200065CD1D2A
:10124800009B32E218000020900000209800002047
:10125800AA00002084000020A40000201400002020
:10126800A000002080F0FA02800F05FD1000002089
:101278008C00002080B487B000AFBA601A460346DD
:10128800FB810B46BB811346FB80BA89FB89D31AC5
:101298009BB2BB82BA89FB89D31A002BB8BF5B42C9
:1012A800142B41DDBA89FB899A4208D9FB88102B97
:1012B80005D1FA89BB89D31A9BB2FB822DE0BA8982
:1012C800FB899A420CD2FB88102B09D1FA89BB8979
:1012D800D31A9BB2A3F58043013B9BB2FB821CE06F
:1012E800BA89FB899A420CD9FB88002B09D1FA8963
:1012F800BB89D31A9BB203F5804301339BB2FB82AF
:101308000BE0BA89FB899A4207D2FB88002B04D1EB
:10131800FA89BB89D31A9BB2FB82BB681A68B7F9F2
:1013280016301A44BB681A60B7F9163018461C37CD
:10133800BD465DF8047B7047B0B58CB000AFF8606F
:10134800B9607A603B60F868FFF7B4F8B2A3D3E9F4
:101358000023FFF719F902460B4614461D46B868E4
:10136800FFF7A8F802460B4620462946FEF754FF29
:1013780002460B46104619464FF00002A84BFFF7ED
:1013880003F902460B4610461946FFF797FB03463A
:10139800BB62BB687B62FB685B421846FFF78AF852
:1013A8009DA3D3E90023FFF7EFF802460B46144646
:1013B8001D46B868FFF77EF802460B4620462946C8
:1013C800FEF72AFF02460B46104619464FF0000268
:1013D800934BFFF7D9F802460B4610461946FFF71C
:1013E8006DFB03463B62BB6A002B09DD7B6A002B61
:1013F80006DD3B6A002B03DA012387F82F303FE034
:101408007B6A002B09DD3B6A002B06DABB6A002BDE
:1014180003DA022387F82F3032E07B6A002B09DDDC
:101428003B6A002B06DDBB6A002B03DA032387F82F
:101438002F3025E07B6A002B09DA3B6A002B06DD9A
:10144800BB6A002B03DA042387F82F3018E07B6A85
:10145800002B09DA3B6A002B06DDBB6A002B03DD93
:10146800052387F82F300BE07B6A002B08DA3B6AEC
:10147800002B05DABB6A002B02DD062387F82F3024
:1014880097F82F30013B052B00F2388201A252F861
:1014980023F000BFB5140008691500082D160008D0
:1014A800E1160008991700084D180008BB6AFB618F
:1014B8007B6ABB61FB69C3F10102BB69D31A7B611B
:1014C800FA69BB6913441846FEF7F4FF04460D4653
:1014D8007869FEF7EFFF4FF00002514BFFF754F821
:1014E80002460B4620462946FEF798FE02460B4662
:1014F80010461946FFF7E2FA03461AB27B681A80CB
:10150800B869FEF7D7FF04460D467869FEF7D2FFA3
:101518004FF00002424BFFF737F802460B462046D1
:101528002946FEF77BFE02460B4610461946FFF792
:10153800C5FA03461AB23B681A807869FEF7BAFF03
:101548004FF00002364BFFF71FF802460B461046D5
:101558001946FFF7B3FA03461AB23B6C1A80CDE17D
:101568003B6A5B42FB61BB6A5B42BB61FB69C3F1DF
:101578000102BB69D31A7B61F869FEF79BFF044639
:101588000D467869FEF796FF4FF00002244BFEF7F0
:10159800FBFF02460B4620462946FEF73FFE024661
:1015A8000B4610461946FFF789FA03461AB27B68BC
:1015B8001A80FA69BB6913441846FEF77BFF044694
:1015C8000D467869FEF776FF4FF00002144BFEF7E0
:1015D800DBFF02460B4620462946FEF71FFE024661
:1015E8000B4610461946FFF769FA03461AB23B68DC
:1015F8001A807869FEF75EFF4FF00002084BFEF78D
:10160800C3FF02460B4610461946FFF757FA034632
:101618001AB23B6C1A8071E1AE47E17A14AEFB3F17
:101628000000E03F7B6AFB613B6ABB61FB69C3F179
:101638000102BB69D31A7B617869FEF73BFF4FF063
:101648000002B04BFEF7A0FF02460B4610461946B3
:10165800FFF734FA03461AB27B681A80FA69BB6945
:1016680013441846FEF726FF04460D467869FEF730
:1016780021FF4FF00002A34BFEF786FF02460B4600
:1016880020462946FEF7CAFD02460B461046194673
:10169800FFF714FA03461AB23B681A80B869FEF7D6
:1016A80009FF04460D467869FEF704FF4FF0000273
:1016B800944BFEF769FF02460B4620462946FEF783
:1016C800ADFD02460B4610461946FFF7F7F90346EB
:1016D8001AB23B6C1A8011E1BB6A5B42FB617B6A00
:1016E8005B42BB61FB69C3F10102BB69D31A7B6131
:1016F8007869FEF7DFFE4FF00002824BFEF744FFE9
:1017080002460B4610461946FFF7D8F903461AB2A7
:101718007B681A80F869FEF7CDFE04460D467869A5
:10172800FEF7C8FE4FF00002764BFEF72DFF02468B
:101738000B4620462946FEF771FD02460B46104629
:101748001946FFF7BBF903461AB23B681A80FA69D3
:10175800BB6913441846FEF7ADFE04460D4678698A
:10176800FEF7A8FE4FF00002664BFEF70DFF02469B
:101778000B4620462946FEF751FD02460B46104609
:101788001946FFF79BF903461AB23B6C1A80B5E07D
:101798003B6AFB61BB6ABB61FB69C3F10102BB69C0
:1017A800D31A7B61B869FEF785FE04460D46786951
:1017B800FEF780FE4FF00002524BFEF7E5FE0246B0
:1017C8000B4620462946FEF729FD02460B461046E1
:1017D8001946FFF773F903461AB27B681A807869CD
:1017E800FEF768FE4FF00002464BFEF7CDFE0246BC
:1017F8000B4610461946FFF761F903461AB23B68D3
:101808001A80FA69BB6913441846FEF753FE04466A
:101818000D467869FEF74EFE4FF00002394BFEF791
:10182800B3FE02460B4620462946FEF7F7FC024661
:101838000B4610461946FFF741F903461AB23B6CAE
:101848001A805BE07B6A5B42FB613B6A5B42BB617F
:10185800FB69C3F10102BB69D31A7B61FA69BB69F1
:1018680013441846FEF726FE04460D467869FEF72F
:1018780021FE4FF00002234BFEF786FE02460B4680
:1018880020462946FEF7CAFC02460B461046194672
:10189800FFF714F903461AB27B681A807869FEF7D5
:1018A80009FE4FF00002174BFEF76EFE02460B468C
:1018B80010461946FFF702F903461AB23B681A8028
:1018C800F869FEF7F7FD04460D467869FEF7F2FD64
:1018D8004FF000020B4BFEF757FE02460B46204620
:1018E8002946FEF79BFC02460B4610461946FFF7B1
:1018F800E5F803461AB23B6C1A8000BF00BF3037C8
:10190800BD46B0BD0000E03F80B485B000AFF860D0
:10191800B9607A603B607A68BB68D21AFB681A6063
:10192800FB685A68FB681B681A44FB685A60FB68C6
:101938001A68344B1B68D21AFB689A60FB685B68AC
:10194800314A934202DDFB682F4A5A60FB685B68A4
:101958002E4A934202DAFB682C4A5A60FB6893EDE0
:10196800047AFB681B6807EE903AF8EEE77A27EEF0
:10197800277AFB68D3ED056AFB685B6807EE903A47
:10198800F8EEE77A66EEA77A37EE277AFB68D3EDAA
:10199800066AFB689B6807EE903AF8EEE77A66EE0F
:1019A800A77A77EE277AFDEEE77A17EE902AFB689A
:1019B800DA60FB68DB68164A934202DDFB68144A6A
:1019C800DA60FB68DB68134A934202DAFB68114A63
:1019D800DA60FB681B680B4A1360FB68DB680E4A19
:1019E80082FB03125213DB17D31A0C4A13600B4BFA
:1019F8001A683B681A6000BF1437BD465DF8047B5F
:101A0800704700BFF400002080969800806967FF47
:101A180080F0FA02800F05FD89B5F814F80000205F
:101A280080B485B000AF0346FB8000237B81002390
:101A3800BB810FE0FA88BB8942FA03F31BB203F0BB
:101A480001031AB2B7F90A3053401BB27B81BB8934
:101A58000133BB81BB890E2BECD97B89002B06D0C7
:101A6800FB886FEA43436FEA5343FB8103E0FB883B
:101A7800C3F30E03FB81FB8918461437BD465DF896
:101A8800047B70470000000090B583B002AF01F0FE
:101A980028FF00F0DFF900F0F1FD00F027FA00F070
:101AA800D7FB00F013FC00F041FD00F075FD00F0DD
:101AB800D3FA00F04DFB00F0E5FC00F035FB00F038
:101AC80091FD00F07FFB024B00221A6057E000BF37
:101AD800BC040020AE4B1B681846FEF7EBFCAAA31B
:101AE800D3E90023FEF750FD02460B46104619467F
:101AF8004FF00002A74BFEF771FE02460B4643EC7F
:101B0800172BB0EE470AF0EE670A0AF081F951EC9C
:101B1800100B9F4B1C68FFF719F802469E49A3005B
:101B28000B441A609A4B1B681846FEF7C3FC96A331
:101B3800D3E90023FEF728FD02460B461046194656
:101B48004FF00002934BFEF749FE02460B4643EC6A
:101B5800172BB0EE470AF0EE670A0AF005F951ECC8
:101B6800100B8B4B1C68FEF7F1FF02468B49A30054
:101B78000B441A60864B1B680133854A1360844BFB
:101B88001B6840F2ED229342A4DD854806F048F92F
:101B9800844B1B889BB243F480439BB21846FFF7E3
:101BA8003FFF03461A46804B1A80804B1B889BB226
:101BB80043F480439BB21846FFF732FF03461A46A8
:101BC8007B4B1A807B4B1B889BB243F480439BB2B0
:101BD8001846FFF725FF03461A46774B1A8000215F
:101BE800764807F0EDF80421744807F0E9F8082171
:101BF800724807F0E5F80C21704807F0E1F8002179
:101C08006E4808F085FB04216C4808F081FB082128
:101C18006A4808F07DFB0021694807F0C3FA0421EF
:101C2800674807F0BFFA012001F0CCFE5D4B1B8826
:101C38009AB2644B1A8000220421634805F0DCF84C
:101C4800022301225F49564806F095F90122042132
:101C58005D4805F0D1F85B4B00221A800022042170
:101C6800594805F0C9F80223012258494C4806F0A2
:101C7800F0FA01220421544805F0BEF8534B1B88A2
:101C88009BB2C3F30D039AB2514B11461980464BD0
:101C98001A804E4B00221A804E4803F077FA4E4BBA
:101CA8004E4A1A614C4B4E4A5A614B4B4D4A9A6107
:101CB8004D4B18684D4B19684D4B00934D4B4E4A90
:101CC800FFF73AFB4C4BB3F900309BB203F5FA73BC
:101CD8009AB24A4B1A80474BB3F900309BB203F5CE
:101CE800FA739AB2464B1A80414BB3F900309BB253
:101CF80003F5FA739AB2434B1A80FFF79FF9424BE8
:101D08001B889BB2012B19D1404B1B881BB21B129D
:101D18001BB2DAB23E4B5A703C4B1B881BB2DAB28C
:101D28003B4B9A703A4B55221A70012303223849CB
:101D3800384808F0D2FD344B00221A804FF0804317
:101D48001B689BB203F010039AB2334B1A80324BD4
:101D58001B889AB2314B1A80314B1B78DBB2002BAF
:101D68000BD1304B00221A602F4B00221A602F4BE8
:101D780000221A602E4B00221A602E4B1B881BB2C1
:101D8800002B59E0AFF300801F85EB51B81E0940C6
:101D9800BC04002000806640D40400208C10002081
:101DA80074020020260000209C040020240000204B
:101DB8009A0400202200002098040020D802002065
:101DC8002403002028000020000C0048A004002064
:101DD80078000020FC000020D800002000803B454F
:101DE800CDCC4C3D00409C46AC000020B00000200B
:101DF800D0000020CE000020CC000020C000002031
:101E0800C2000020C40000204E1C0020CA00002090
:101E18003400002008040020461C0020441C002038
:101E28006400002070000020680000206C00002082
:101E380074000020A800002004D1054B41F288322C
:101E48001A8035E7024B4FF47A721A8030E700BFE8
:101E5800D004002080B594B000AF07F118033822F1
:101E68000021184609F052FF3B1D00221A605A60F3
:101E78009A60DA601A61002004F0FAFF0223BB615D
:101E88004FF480737B624023BB6202237B6302238F
:101E9800BB630423FB6355233B6402237B64022357
:101EA800BB640223FB6407F11803184605F094F895
:101EB8000346002B01D000F0E1FE0F237B600323D3
:101EC800BB600023FB6000233B6100237B613B1D5B
:101ED8000421184605F098FB0346002B01D000F0BA
:101EE800CDFE00BF5037BD4680BD000080B592B022
:101EF80000AF07F13C0300221A605A609A603B4623
:101F08003C220021184609F001FF4E4B4FF0A04239
:101F18001A604C4B4FF400225A604A4B00229A60D8
:101F2800484B0022DA60474B00221A61454B0122D8
:101F38005A61444B04229A61424B00221A77414B62
:101F480000225A773F4B01221A623E4B002283F847
:101F580024203C4B002283F838203A4B0022DA63D5
:101F6800384B002283F84020364801F07DFF0346B5
:101F7800002B01D000F082FE0023FB6307F13C0335
:101F88001946304803F028FF0346002B01D000F023
:101F980075FE2D4B3B6009237B600223BB607F23CA
:101FA800FB6004233B6100237B6104233B62002325
:101FB80087F82430002387F82530002387F8263057
:101FC8008423BB628023FB62002387F830303B46C2
:101FD80019461C4803F020FA0346002B01D000F0F4
:101FE8004DFE1A4B3B6040F20F137B603B4619468F
:101FF800144803F011FA0346002B01D000F03EFE0E
:10200800134B3B6040F215237B603B4619460D4855
:1020180003F002FA0346002B01D000F02FFE0D4B0F
:102028003B6040F21B337B603B461946054803F092
:10203800F3F90346002B01D000F020FE00BF48371B
:10204800BD4680BDFC00002002003004040060088A
:10205800400020198000501D80B588B000AF3B4675
:1020680020220021184609F051FE2C4B2C4A1A60F8
:102078002A4B4FF400225A60284B00229A60274BC3
:102088000022DA60254B00221A61244B00225A6193
:10209800224B04229A61214B00221A771F4B0022FF
:1020A8005A771E4B01221A621C4B002283F8242007
:1020B8001A4B4FF4B462DA62184B4FF480621A6319
:1020C800164B002283F83820144B0022DA63134B96
:1020D800002283F84020114801F0C6FE0346002B79
:1020E80001D000F0CBFD0F4B3B6006237B60002343
:1020F800BB607F23FB6004233B6100237B613B467D
:102108001946064802F072FA0346002B01D000F087
:10211800B5FD00BF2037BD4680BD00BF6801002067
:10212800000100500001802180B500AF064B074A2E
:102138001A60054803F0F4FE0346002B01D000F0B6
:102148009DFD00BF80BD00BFD4010020000C0240EF
:1021580080B58CB000AF3B4630220021184609F00C
:10216800D5FD164B164A1A60144804F01AF80346AF
:10217800002B01D000F082FD02233B6000233B715D
:1021880000237B710023BB600223FB6000233B61BB
:1021980000237B610123BB610023FB613B460022D6
:1021A8001946064804F084F80346002B01D000F0D5
:1021B80065FD00BF3037BD4680BD00BFFC01002073
:1021C8000008005080B500AF1F4B204A1A601E4B14
:1021D80000225A601C4B00229A601B4B0022DA60D6
:1021E800194B00221A74184B00225A74164B0022FD
:1021F8009A74154B10225A61134B01229A61124BA3
:102208000222DA61104B02221A620F4B01225A6233
:102218000D4B01229A620C4B0122DA620A4B012211
:102228001A63094B00225A63074B00229A63064B34
:102238000022DA63044804F0ADFA0346002B01D00B
:1022480000F01CFD00BF80BD1002002000640040AB
:1022580080B500AF1B4B1C4A1A601A4B4FF48272B0
:102268005A60184B00229A60164B4FF47062DA607D
:10227800144B00221A61134B01225A61114B4FF47F
:1022880000729A610F4B1822DA610E4B00221A6213
:102298000C4B00225A620B4B00229A62094B072210
:1022A800DA62084B00221A63064B00225A6305487B
:1022B80005F0B6FD0346002B01D000F0DFFC00BF9F
:1022C80080BD00BF74020020003C004080B59CB077
:1022D80000AF07F1600300221A605A609A60DA6062
:1022E80007F1540300221A605A609A6007F1380314
:1022F80000221A605A609A60DA601A615A619A611B
:102308003B1D34220021184609F000FD5B4B5C4A56
:102318001A605A4B07225A60584B20229A60574B32
:102328004FF47A72DA60554B00221A61534B00223F
:102338005A61524B00229A61504806F089FC0346C4
:10234800002B01D000F09AFC4FF480533B6607F154
:1023580060031946494807F067FA0346002B01D085
:1023680000F08CFC454806F0CAFC0346002B01D05F
:1023780000F084FC70237B654FF4E003BB65002309
:10238800FB6507F1540319463C4808F0C9F80346B1
:10239800002B01D000F072FC6023BB630023FB63B9
:1023A80000233B6408237B640023BB640023FB6495
:1023B80000233B6507F13803002219462F4807F030
:1023C8001FF90346002B01D000F058FC07F1380331
:1023D80004221946294807F013F90346002B01D0B7
:1023E80000F04CFC07F1380308221946234807F08F
:1023F80007F90346002B01D000F040FC7023BB63B3
:1024080040F2DE33FB6300237B6407F138030C22C0
:1024180019461A4807F0F4F80346002B01D000F0DB
:102428002DFC00237B600023BB600023FB6032236C
:102438003B6100237B614FF40053BB610023FB61C8
:1024480000233B6200237B624FF00073BB620023D2
:10245800FB6200233B6300237B633B1D194607484F
:1024680008F0E0F80346002B01D000F007FC034811
:1024780000F0DEFE00BF7037BD4680BDD8020020E8
:10248800002C014080B58CB000AF07F10C0324226A
:102498000021184609F03AFC3B4600221A605A60AF
:1024A8009A60214B4FF080421A601F4B00225A60FD
:1024B8001D4B00229A601C4B4FF4FA62DA601A4BEB
:1024C80000221A61184B00229A610123FB60002345
:1024D8003B6101237B610023BB610A23FB6100236D
:1024E8003B6201237B620023BB620A23FB6207F184
:1024F8000C0319460C4806F0AFFD0346002B01D02B
:1025080000F0BCFB20233B600023BB603B46194620
:10251800054808F005F80346002B01D000F0AEFB93
:1025280000BF3037BD4680BD2403002080B584B08D
:1025380000AF3B1D00221A605A609A60144B154A7E
:102548001A60134B10225A60114B00229A60104BEC
:1025580040F2E732DA600E4B00229A610C4806F02E
:1025680077FB0346002B01D000F088FB00237B603B
:102578000023FB603B1D1946054807F0D1FF0346C1
:10258800002B01D000F07AFB00BF1037BD4680BD9C
:10259800700300200010004080B500AF0F4B104AB8
:1025A8001A600E4B00225A600C4B00229A600B4BAB
:1025B8004FF6FF72DA60094B00221A61074B0022BE
:1025C8005A61064B00229A61044806F041FB034613
:1025D800002B01D000F052FB00BF80BDBC030020DF
:1025E8000048014080B500AF224B234A1A60214BB6
:1025F8004FF416525A601F4B00229A601D4B00225E
:10260800DA601C4B00221A611A4B0C225A61194BD2
:1026180000229A61174B0022DA61164B00221A62D7
:10262800144B00225A62134B00229A62114808F098
:1026380004F90346002B01D000F020FB00210D48CF
:1026480009F099FA0346002B01D000F017FB00218E
:10265800084809F0CEFA0346002B01D000F00EFB23
:10266800044809F04FFA0346002B01D000F006FB9E
:1026780000BF80BD080400200038014080B58AB042
:1026880000AF07F1140300221A605A609A60DA60FA
:102698001A613F4BDB6C3E4A43F00403D3643C4B66
:1026A800DB6C03F004033B613B69394BDB6C384A54
:1026B80043F02003D364364BDB6C03F02003FB604C
:1026C800FB68334BDB6C324A43F00103D364304B75
:1026D800DB6C03F00103BB60BB682D4BDB6C2C4A41
:1026E80043F00203D3642A4BDB6C03F002037B60E4
:1026F8007B68274BDB6C264A43F00803D364244BE2
:10270800DB6C03F008033B603B68002220214FF09C
:10271800904004F071FB002204211E4804F06CFB79
:102728004FF400537B614FF48813BB610023FB61B6
:1027380007F114031946184804F0DCF920237B61DB
:102748000123BB610023FB6100233B6207F11403F3
:1027580019464FF0904004F0CDF904237B61012322
:10276800BB610023FB6100233B6207F11403194698
:10277800084804F0BFF900220021282003F0DDFCFE
:10278800282003F0F4FC00BF2837BD4680BD00BFF9
:1027980000100240000C004800080048000000003B
:1027A800B0B586B002AF78604FF090435B694FF0E8
:1027B800904243F020035361094B1B78002B2ED124
:1027C800084B4FF47A725A63064B4FF47A729A6345
:1027D800044B4FF47A72DA630023FB6018E000BF01
:1027E800B8040020002C01400921B14802F0B4FDD2
:1027F80003469AB2AF4B1A8040F21B31AC4802F044
:10280800ABFD03469AB2AB4B9A80FB680133FB6081
:10281800FB68A94A9342E7DDA84B01221A700921F7
:10282800A34802F099FD03469AB2A54B1A8040F2DC
:102838000F119F4802F090FD03469AB2A04B5A80B0
:1028480040F215219A4802F087FD03469AB29C4B44
:102858009A8040F21B31964802F07EFD03469AB2F8
:10286800974BDA80934B1A88954B1B88D31A9BB2E7
:102878001AB2944B1A808F4B9A88914BDB88D31AE3
:102888009BB21AB28F4B5A808D4B5B881AB28D4B14
:102898009A808B4B5A888C4B1A808C4B1B889AB227
:1028A8008B4B1A80002204218A4804F0A5FA0023E1
:1028B80000930123884A8649884805F0FAFD0122D9
:1028C8000421844804F098FA834B1B889BB2C3F315
:1028D8000D039AB2824B11461980824B1A80804BA5
:1028E8001B889BB21846FDF7E5FD6BA3D3E90023CF
:1028F800FDF74AFE02460B4614461D467A4B1B88D6
:102908009BB21846FDF7D6FD02460B4620462946DF
:10291800FDF784FC02460B4610461946FEF7F6F80A
:1029280003469AB2714B1A80664B1B881AB2704BD9
:102938001A80644B1B881BB21A46624B5B881BB219
:102948005B0013441846FDF7B5FD55A3D3E90023F2
:10295800FDF71AFE02460B4610461946FEF7AEF87A
:1029680003461AB2634B1A80624B1B881BB207EEF0
:10297800903AB8EEE77A5D4B1B889BB25E4A9B00A3
:102988001344D3ED007A27EE277A594B1B881BB2E4
:1029980007EE903AF8EEE76A544B1B889BB2574A09
:1029A8009B001344D3ED007A66EEA77A77EE677A38
:1029B800FDEEE77A17EE903A1AB2514B1A804C4B5B
:1029C8001B881BB207EE903AB8EEE77A474B1B8894
:1029D8009BB2494A9B001344D3ED007A27EE277A2D
:1029E800444B1B881BB207EE903AF8EEE76A3F4B60
:1029F8001B889BB2414A9B001344D3ED007A66EED4
:102A0800A77A77EE277AFDEEE77A17EE903A1AB2B0
:102A18003C4B1A80FEF738FB3B4B1B6807EE903A9D
:102A2800B8EEE77A314B1B889BB2334A9B001344BC
:102A3800D3ED007A27EE277A344B1B6807EE903ADD
:102A4800F8EEE76A294B1B889BB22C4A9B0013447B
:102A5800D3ED007A66EEA77A77EE677A17EE900ADA
:102A6800FDF73AFD10A3D3E90023FDF78DFD0246DB
:102A78000B4610461946FEF721F80346244A136010
:102A8800224B1B6807EE903AB8EEE77A174B1B8883
:102A98009BB23FE0AFF30080BA490C022B87A63FF8
:102AA800105839B4C876E23F8DEDB5A0F7C6C03EE0
:102AB800FC000020B00400203F420F00B8040020B2
:102AC800A8040020C8040020C6000020260000201A
:102AD80028000020000C0048A004002074020020F8
:102AE800780000209C040020D20400207E000020F2
:102AF800C4040020C60400208C100020D404002048
:102B0800A8000020AA0000208C00002090000020CF
:102B1800AC0000204E4A9B001344D3ED007A27EE08
:102B2800277A4C4B1B6807EE903AF8EEE76A4A4B57
:102B38001B889BB2494A9B001344D3ED007A66EE8A
:102B4800A77A77EE277A17EE900AFDF7C5FC3CA323
:102B5800D3E90023FDF718FD02460B461046194637
:102B6800FDF7ACFF03463E4A13603E4B1B683E4AE6
:102B780013603B4B1B681846FDF79CFC32A3D3E956
:102B88000023FDF701FD02460B4614461D46354B52
:102B98001B681846FDF78EFC02460B462046294660
:102BA800FDF73AFB02460B46104619464FF0000265
:102BB8002E4BFDF7E9FC02460B4610461946FDF779
:102BC8007DFF03462A4A1360254B1B685B42184663
:102BD800FDF770FC1CA3D3E90023FDF7D5FC0246E2
:102BE8000B4614461D461F4B1B681846FDF762FC32
:102BF80002460B4620462946FDF70EFB02460B46C9
:102C0800104619464FF00002184BFDF7BDFC02466E
:102C18000B4610461946FDF751FF0346154A136047
:102C2800154B00221A804FF090435B694FF0904299
:102C380023F03F03536100BF1037BD46B0BD00BF4E
:102C48008DEDB5A0F7C6C03EAE47E17A14AEFB3FA6
:102C58008C1000208C0000207E000020D40400206E
:102C6800B0000020AC000020B40000200000E03FCD
:102C7800B8000020BC000020A004002080B400AFF1
:102C880072B600BFFEE7000080B582B000AF0F4B00
:102C98001B6E0E4A43F0010313660C4B1B6E03F0C8
:102CA80001037B607B68094B9B6D084A43F08053A6
:102CB8009365064B9B6D03F080533B603B6804F0C3
:102CC8007BF900BF0837BD4680BD00BF0010024039
:102CD80080B59EB000AF786007F1640300221A60E7
:102CE8005A609A60DA601A6107F1200344220021D1
:102CF800184609F00BF87B681B68B3F1A04F5ED14A
:102D08004FF400433B624FF00053FB6507F120038B
:102D1800184604F095FE0346002B01D0FFF7AEFFDE
:102D28004E4B1B6801334D4A13604C4B1B68012BFB
:102D38000BD14B4BDB6C4A4A43F40053D364484BEA
:102D4800DB6C03F40053FB61FB69454BDB6C444AC5
:102D580043F00403D364424BDB6C03F00403BB6110
:102D6800BB693F4BDB6C3E4A43F00103D3643C4BE9
:102D7800DB6C03F001037B617B6903237B66032320
:102D8800BB660023FB6607F164031946354803F068
:102D9800B1FE03237B660323BB660023FB6607F1B2
:102DA800640319464FF0904003F0A4FE002200216E
:102DB800122003F0C2F9122003F0D9F949E07B6828
:102DC8001B68294A934244D14FF400433B624FF0B9
:102DD8000053FB6507F12003184604F031FE034653
:102DE800002B01D0FFF74AFF1C4B1B6801331B4A1D
:102DF80013601A4B1B68012B0BD1194BDB6C184A5B
:102E080043F40053D364164BDB6C03F400533B616B
:102E18003B69134BDB6C124A43F00403D364104B39
:102E2800DB6C03F00403FB60FB6804237B6603236D
:102E3800BB660023FB6607F164031946094803F0E3
:102E480059FE00220021122003F077F9122003F026
:102E58008EF900BF7837BD4680BD00BF501C0020EA
:102E680000100240000800480001005080B485B0FE
:102E780000AF78607B681B680A4A93420BD10A4B03
:102E88009B6C094A43F008039364074B9B6C03F05F
:102E98000803FB60FB6800BF1437BD465DF8047B80
:102EA800704700BF000C02400010024080B58AB095
:102EB80000AF786007F1140300221A605A609A6024
:102EC800DA601A617B681B68194A93422CD1194B46
:102ED800DB6C184A43F48033D364164BDB6C03F481
:102EE80080333B613B69134BDB6C124A43F00103AF
:102EF800D364104BDB6C03F00103FB60FB68102309
:102F08007B610323BB610023FB6107F114031946AE
:102F18004FF0904003F0EEFD00220021362003F030
:102F28000CF9362003F023F900BF2837BD4680BDD1
:102F3800000800500010024080B59AB000AF7860D9
:102F480007F1540300221A605A609A60DA601A6125
:102F580007F1100344220021184608F0D7FE7B68C9
:102F68001B68204A934239D14FF480533B614FF09C
:102F780000733B6407F11003184604F061FD034633
:102F8800002B01D0FFF77AFE174B9B6D164A43F0D2
:102F980000739365144B9B6D03F00073FB60FB6833
:102FA800114BDB6C104A43F00103D3640E4BDB6C0E
:102FB80003F00103BB60BB684FF4C0537B65022379
:102FC800BB650023FB6500233B6609237B6607F18D
:102FD800540319464FF0904003F08CFD00BF68374A
:102FE800BD4680BD006400400010024080B58AB034
:102FF80000AF786007F1140300221A605A609A60E3
:10300800DA601A617B681B68174A934228D1174B0C
:103018009B6D164A43F400439365144B9B6D03F470
:1030280000433B613B69114BDB6C104A43F00403DE
:10303800D3640E4BDB6C03F00403FB60FB684FF4B6
:10304800E0537B610223BB610023FB6100233B62E9
:1030580006237B6207F114031946054803F04AFD6D
:1030680000BF2837BD4680BD003C0040001002402C
:103078000008004880B586B000AF78607B681B68A0
:10308800334A93422CD1334B1B6E324A43F40063CC
:103098001366304B1B6E03F400637B617B6900226F
:1030A8000021182003F049F8182003F060F80022E6
:1030B8000021192003F041F8192003F058F80022E4
:1030C80000211A2003F039F81A2003F050F80022E2
:1030D80000211B2003F031F81B2003F048F832E0F0
:1030E8007B681B681C4A934214D11A4B9B6D194A82
:1030F80043F010039365174B9B6D03F010033B617E
:103108003B6900220021362003F017F8362003F02F
:103118002EF818E07B681B68104A934213D10D4BB8
:103128001B6E0C4A43F4802313660A4B1B6E03F490
:103138008023FB60FB68002200211A2002F0FDFFBB
:103148001A2003F014F800BF1837BD4680BD00BF31
:10315800002C0140001002400010004000480140CF
:1031680080B58AB000AF786007F1140300221A60B6
:103178005A609A60DA601A617B681B68B3F1804F05
:103188004DD1294B9B6D284A43F001039365264B8B
:103198009B6D03F001033B613B69234BDB6C224AC7
:1031A80043F00103D364204BDB6C03F00103FB60A5
:1031B800FB681D4BDB6C1C4A43F00203D3641A4BBB
:1031C800DB6C03F00203BB60BB684FF400437B6118
:1031D8000223BB610023FB6100233B6201237B6266
:1031E80007F1140319464FF0904003F083FC0823BD
:1031F8007B610223BB610023FB6100233B62012347
:103208007B6207F114031946084803F073FC002297
:1032180000211C2002F091FF1C2002F0A8FF00BF33
:103228002837BD4680BD00BF00100240000400489A
:1032380080B58AB000AF786007F1140300221A60E5
:103248005A609A60DA601A617B681B68204A934268
:1032580039D1204BDB6C1F4A43F00103D3641D4B6B
:10326800DB6C03F001033B613B691A4BDB6C194AC9
:1032780043F00203D364174BDB6C03F00203FB60DB
:10328800FB684FF4F0637B610223BB610023FB61A1
:1032980000233B6206237B6207F1140319464FF0B3
:1032A800904003F027FC03237B610223BB610023CA
:1032B800FB6100233B6206237B6207F11403194676
:1032C800054803F017FC00BF2837BD4680BD00BF86
:1032D800002C0140001002400004004880B59AB05C
:1032E80000AF786007F1540300221A605A609A60B0
:1032F800DA601A6107F1100344220021184608F029
:1033080005FD7B681B68224A93423DD101233B613E
:1033180000237B6107F11003184604F091FB034674
:10332800002B01D0FFF7AAFC1A4B1B6E194A43F475
:1033380080431366174B1B6E03F48043FB60FB68E6
:10334800144BDB6C134A43F00403D364114BDB6C5E
:1033580003F00403BB60BB6830237B650223BB65B5
:103368000023FB6500233B6607237B6607F15403B4
:103378001946094803F0BEFB00220021252002F06F
:10338800DCFE252002F0F3FE00BF6837BD4680BD95
:1033980000380140001002400008004880B400AF27
:1033A800FEE780B400AFFEE780B400AFFEE780B46C
:1033B80000AFFEE780B400AFFEE780B400AF00BF07
:1033C800BD465DF8047B704780B400AF00BFBD46C2
:1033D8005DF8047B704780B400AF00BFBD465DF860
:1033E800047B70470000000080B500AF724BB3F952
:1033F80000309BB201339BB21AB26F4B1A806F4BED
:103408001B8801339AB26D4B1A806D4BB3F90030AB
:103418009BB201339BB21AB2694B1A80674B1B8867
:10342800052B40F06181674B1B78DBB2012B40F024
:103438005881654B1B889BB21AB2644B1A80644B47
:103448001B889BB2002B71D1624B1B881BB21A469A
:103458005E4B1B881BB2D31A0A2B0ADC5D4B1B88F8
:103468001BB21A46594B1B881BB2D31A13F10A0F09
:103478005CDA564B1B881AB2564B1B881BB29A4211
:103488001DDD524B1B881BB21A46524B1B881BB2C0
:10349800D31A002BB8BF5B421846FDF70BF844A3BC
:1034A800D3E90023FDF770F802460B46104619468B
:1034B800FDF704FB03461AB2474B1A8026E0434B3C
:1034C8001B881AB2434B1B881BB29A421EDA414B27
:1034D8001B881BB2C3F5804301333C4A128812B2E1
:1034E8001344002BB8BF5B421846FCF7E3FF30A338
:1034F800D3E90023FDF748F802460B461046194663
:10350800FDF7DCFA03461AB2334B1A802F4B1B889F
:103518001AB2304B1B881BB29A4240F091802F4B55
:1035280000221A802C4B00221A8089E0284B1B8825
:103538009BB2102B40F08480264B1B881BB21A4686
:10354800224B1B881BB2D31A0A2B0ADC214B1B887F
:103558001BB21A461D4B1B881BB2D31A13F10A0F54
:103568006EDA1A4B1B881AB21A4B1B881BB29A4286
:1035780036DD164B1B881BB2C3F580430133154A51
:10358800128812B213445B421846FCF793FF08A353
:10359800D3E90023FCF7F8FF02460B46104619460C
:1035A800FDF78CFA03461AB20B4B1A803AE000BFBB
:1035B8000AD7A3703D0AE73F581C00207C00002072
:1035C8005A1C00203000002078000020C20400208F
:1035D800461C0020C0040020CA000020C8000020AB
:1035E800594B1B881AB2594B1B881BB29A4219DADD
:1035F800554B1B881BB21A46544B1B881BB2D31A57
:103608001846FCF757FF4EA3D3E90023FCF7BCFF8D
:1036180002460B4610461946FDF750FA03461AB201
:103628004B4B1A80484B1B881AB2484B1B881BB25D
:103638009A4205D1474B00221A80454B00221A8036
:10364800414B1B881AB2414B1A80434B1B889BB2D3
:103658001AB2424B1A80414BB3F9003098B2404B32
:10366800B3F9003099B23F4B1B889BB23E4AFDF735
:1036780001FE03461A463D4B1A803D4BB3F9003014
:10368800012B07D1384B19683A4B1A683A4B3B481B
:10369800FEF73AF9344B1B681AB2394B1A802F4B94
:1036A800B3F900202E4B1A80364B00221A80284B83
:1036B8001B881BB241F27072934202DD244B002238
:1036C8001A80234B1B881BB22F4A934202DA204BE5
:1036D80000221A802D4B1B78DBB2012B01D1FDF79C
:1036E80003FC2B4B00221A802A4BB3F900309BB203
:1036F80001339BB21AB2274B1A80274BB3F900301B
:103708009BB201339BB21AB2234B1A80214BB3F9F7
:1037180000300A2B05D1214B01221A801D4B0022B3
:103728001A801D4BB3F90030642B05D11C4B0122C4
:103738001A80194B00221A8000F026F900BF80BDBC
:103748000AD7A3703D0AE73FC2040020C004002046
:10375800CA000020C8000020780000205C1C00205F
:103768005E1C0020441C0020481C0020541C002023
:10377800561C0020D400002094000020D80000200F
:10378800601C00205A1C002090E8FFFF6400002005
:103798007C000020621C0020641C00204C1C0020BF
:1037A8004E1C002080B500AF034800F0E7FC03483A
:1037B80000F0E4FC00BF80BDFC0000206801002090
:1037C80080B500AF024805F09BFD00BF80BD00BF7B
:1037D800D802002080B500AF024805F091FD00BF77
:1037E80080BD00BFD802002080B500AF034805F0B7
:1037F80087FD034805F084FD00BF80BDD802002086
:10380800BC03002080B500AF024805F079FD00BF79
:1038180080BD00BFD802002080B500AF024805F087
:103828006FFD00BF80BD00BF2403002080B500AF3E
:10383800024807F0E9F800BF80BD00BF0804002077
:1038480080B500AF4FF4005003F0EEFA00BF80BD22
:1038580080B500AF034805F053FD034802F0C3FCF0
:1038680000BF80BD70030020FC01002080B400AFC1
:10387800064BD3F88830054A43F47003C2F8883001
:1038880000BFBD465DF8047B704700BF00ED00E057
:103898000D4885460D480E490E4A002302E0D458CB
:1038A800C4500433C4188C42F9D30B4A0B4C002380
:1038B80001E013600432A242FBD3FFF7D7FF08F000
:1038C8002DFAFEF7E1F8FEE7008000200000002056
:1038D80048000020D8D00008480000206C1C0020B8
:1038E800FEE780B582B000AF0023FB71032002F031
:1038F80019FC002000F00EF80346002B02D001232B
:10390800FB7101E0FFF7C0F9FB7918460837BD469F
:1039180080BD000080B584B000AF78600023FB73E1
:10392800164B1B68002B22D0154B1A68134B1B68CB
:103938004FF47A71B1FBF3F3B2FBF3F3184602F0DC
:1039480024FC0346002B0FD17B680F2B09D80022DB
:1039580079684FF0FF3002F0F0FB0A4A7B68136089
:1039680007E00123FB7304E00123FB7301E001235B
:10397800FB73FB7B18461037BD4680BD4400002012
:103988003C0000204000002080B400AF054B1A68BE
:10399800054B1B681344034A136000BFBD465DF81E
:1039A800047B7047681C00204400002080B400AFEE
:1039B800034B1B681846BD465DF8047B704700BF83
:1039C800681C002080B584B000AF7860FFF7EEFF78
:1039D800B8607B68FB60FB68B3F1FF3F04D0094B1C
:1039E8001B68FA681344FB6000BFFFF7DFFF02465D
:1039F800BB68D31AFA689A42F7D800BF00BF1037DD
:103A0800BD4680BD4400002080B483B000AF78601C
:103A180039607B689B6823F47C123B681A437B6897
:103A28009A6000BF0C37BD465DF8047B704780B4D0
:103A380083B000AF786039607B689B6823F0E072E0
:103A48003B681A437B689A6000BF0C37BD465DF837
:103A5800047B704780B483B000AF78607B689B6854
:103A680003F0E07318460C37BD465DF8047B7047D9
:103A780080B487B000AFF860B9607A603B60FB68DB
:103A880060331A46BB689B0013447B617B691A68E4
:103A9800084B13407A6802F0F8413A680A43134326
:103AA80043F000427B691A6000BF1C37BD465DF8D1
:103AB800047B704700F0FF0380B485B000AF7860E6
:103AC80039607B6860331A463B689B001344FB608F
:103AD800FB681B6803F0F84318461437BD465DF8C9
:103AE800047B704780B487B000AFF860B9607A6033
:103AF800FB6860331A46BB689B0013447B617B6993
:103B08001B6823F000427B681A437B691A6000BF78
:103B18001C37BD465DF8047B704780B487B000AFA2
:103B2800F860B9607A60FB6860331A46BB689B002E
:103B380013447B617B691B6823F080727B681A439E
:103B48007B691A6000BF1C37BD465DF8047B70476F
:103B580080B487B000AFF860B9607A60FB68603302
:103B68001A46BB689B0013447B617B691B6823F082
:103B780000727B681A437B691A6000BF1C37BD4618
:103B88005DF8047B704780B483B000AF786039601B
:103B98007B685B6923F000423B681A437B685A6183
:103BA80000BF0C37BD465DF8047B704780B483B016
:103BB80000AF78607B68DB6803F44063002B01D1B9
:103BC800012300E0002318460C37BD465DF8047B4E
:103BD800704780B487B000AFF860B9607A60FB685E
:103BE80030331A46BB681B0A9B0003F00C031344CE
:103BF8007B617B691A68BB6803F01F031F2101FA08
:103C080003F3DB431A407B689B0E03F01F01BB687C
:103C180003F01F0301FA03F31A437B691A6000BF1C
:103C28001C37BD465DF8047B704780B483B000AF95
:103C380078607B68DB6C03F4C073002B01D101232F
:103C480000E0002318460C37BD465DF8047B70473A
:103C580080B487B000AFF860B9607A60FB6814334D
:103C68001A46BB685B0E9B0003F0040313447B6198
:103C78007B691A68BB681B0D03F01F03072101FA53
:103C880003F3DB431A40BB681B0D03F01F0379687D
:103C980001FA03F31A437B691A6000BF1C37BD465B
:103CA8005DF8047B7047000080B485B000AFF86011
:103CB800B9607A607B680F4A93420AD1FB68D3F8EF
:103CC800B020BB68C3F312031A43FB68C3F8B020E3
:103CD8000AE0FB68D3F8B020BB68C3F31203DB43E8
:103CE8001A40FB68C3F8B02000BF1437BD465DF822
:103CF800047B704700007F4080B483B000AF7860D9
:103D08007B689B6803F01F0318460C37BD465DF8B7
:103D1800047B704780B483B000AF78607B689B6891
:103D280003F4604318460C37BD465DF8047B7047C2
:103D380080B483B000AF78607B689B6823F0204331
:103D480023F03F037A68936000BF0C37BD465DF8E7
:103D5800047B704780B483B000AF78607B689B6851
:103D680003F00053B3F1005F01D1012300E0002309
:103D780018460C37BD465DF8047B704780B483B0A5
:103D880000AF78607B689B6823F0104323F03F0303
:103D980043F080527B689A6000BF0C37BD465DF8DF
:103DA800047B704780B483B000AF78607B689B6801
:103DB80003F08053B3F1805F01D1012300E00023B9
:103DC80018460C37BD465DF8047B704780B483B055
:103DD80000AF78607B689B6823F0004323F03F03C3
:103DE80043F001027B689A6000BF0C37BD465DF85E
:103DF800047B704780B483B000AF78607B689B68B1
:103E080003F00103012B01D1012300E00023184630
:103E18000C37BD465DF8047B704780B483B000AFB3
:103E280078607B689B6803F00403042B01D10123AD
:103E380000E0002318460C37BD465DF8047B704748
:103E480080B483B000AF78607B689B6803F0080398
:103E5800082B01D1012300E0002318460C37BD468A
:103E68005DF8047B7047000090B589B000AF7860BA
:103E78000023FB770023BB607B68002B01D1012363
:103E880077E17B685B69002B7B68DB6D002B09D1D0
:103E98007868FEF71DFF7B6800221A667B6800229F
:103EA80083F858207B681B681846FFF753FF0346C2
:103EB800002B04D07B681B681846FFF739FF7B6826
:103EC8001B681846FFF76EFF0346002B15D17B6869
:103ED8001B681846FFF752FF9C4B1B689B099C4ABE
:103EE800A2FB03239B0901335B00BB6002E0BB68B4
:103EF800013BBB60BB68002BF9D17B681B68184687
:103F0800FFF750FF0346002B0DD17B68DB6D43F0B4
:103F180010027B68DA657B681B6E43F001027B68E0
:103F28001A660123FB777B681B681846FFF775FF45
:103F380078617B68DB6D03F01003002B40F0108183
:103F48007B69002B40F00C817B68DB6D23F4817367
:103F580043F002027B68DA657B681B681846FFF746
:103F680049FF0346002B11D14FF0A040FFF742FF55
:103F780004467848FFF73EFF03462343002B05D14C
:103F88007B685B6819467448FFF73EFD7B685B7F7A
:103F98005A037B68DB6B1A437B68DB681A437B68D0
:103FA8009B681A437B6893F824301B041343BB6156
:103FB8007B6893F82430012B06D17B689B6A013B10
:103FC8005B04BA691343BB617B68DB6A002B09D0C9
:103FD8007B68DB6A03F478727B681B6B1343BA69EE
:103FE8001343BB617B681B68DA685C4B13407A68D3
:103FF8001268B9690B43D3607B681B681B6923F09F
:1040080040617B685A6B7B681B680A431A617B684E
:104018001B681846FFF701FF38617B681B68184664
:10402800FFF70EFFF8603B69002B6DD1FB68002B92
:104038006AD17B681B7F9A037B6893F838305B00F2
:104048001343BB617B681B68DB6823F4804323F060
:1040580002037A681268B9690B43D3607B681B69ED
:10406800002B17D07B681B681A697B681B6842F4B1
:1040780080321A617B681B68D3F8C03023F47F5301
:1040880023F03F037A6811697A6812680B43C2F813
:10409800C03013E07B681B681A697B681B6822F4D0
:1040A80080321A617B681B68D3F8C0307A6812685E
:1040B80023F47F5323F03F03C2F8C0307B6893F8A2
:1040C8004030012B18D17B681B681B6923F4FF6300
:1040D80023F004037A68516C7A68926C11437A6809
:1040E800D26C11437A68126D0A431A437B681B68C5
:1040F80042F001021A6107E07B681B681A697B6855
:104108001B6822F001021A617B685B69012B0CD1E4
:104118007B681B681B6B23F00F017B681B6A5A1EA8
:104128007B681B680A431A6307E07B681B681A6B85
:104138007B681B6822F00F021A637B68DB6D23F033
:10414800030343F001027B68DA6511E03C000020BC
:10415800632D3E0500010050000300500740F0FFAA
:104168007B68DB6D43F010027B68DA650123FB771F
:10417800FB7F18462437BD4690BD00BF80B58AB086
:1041880000AF786000237B627B681B681B68FB615B
:104198007B681B685B68BB618348FFF7ADFD78618E
:1041A800FB6903F00203002B17D0BB6903F002037D
:1041B800002B12D07B68DB6D03F01003002B05D1B8
:1041C8007B68DB6D43F400627B68DA65786801F030
:1041D80019F97B681B6802221A60FB6903F0040363
:1041E800002B04D0BB6903F00403002B0AD1FB6940
:1041F80003F00803002B00F08580BB6903F0080377
:10420800002B7FD07B68DB6D03F01003002B05D1FA
:104218007B68DB6D43F400727B68DA657B681B683A
:104228001846FFF7C3FC0346002B64D07B681B6865
:104238005E4A934202D07B681B6801E04FF0A043BE
:104248007A681268934208D07B69002B05D07B6995
:10425800052B02D07B69092B04D17B681B68DB68BE
:104268003B620DE07B681B68504A934202D07B6832
:104278001B6801E04FF0A0433B613B69DB683B6290
:104288003B6A03F40053002B35D17B681B681B681D
:1042980003F00803082B2ED17B681B681846FFF72C
:1042A800BCFD0346002B1AD17B681B685A687B68E3
:1042B8001B6822F00C025A607B68DB6D23F4807265
:1042C8007B68DA657B68DB6D03F48053002B12D1C1
:1042D8007B68DB6D43F001027B68DA650BE07B6885
:1042E800DB6D43F010027B68DA657B681B6E43F078
:1042F80001027B681A66786800F05AF97B681B68C7
:104308000C221A60FB6903F02003002B04D0BB6960
:1043180003F02003002B0BD1FB6903F04003002BB3
:1043280000F09E80BB6903F04003002B00F09880EA
:104338007B68DB6D03F01003002B05D17B68DB6D18
:1043480043F400527B68DA657B681B681846FFF700
:104358006CFCF8607B681B681846FFF727FCB860A0
:104368007B681B68114A934202D07B681B6801E096
:104378004FF0A0437A681268934208D07B69002BFB
:1043880005D07B69062B02D07B69072B04D17B689B
:104398001B68DB683B6211E07B681B68034A934239
:1043A80006D07B681B6805E0000300500001005040
:1043B8004FF0A0433B613B69DB683B62FB68002B25
:1043C80047D03B6A03F00073002B07D0BB68002B73
:1043D8003FD03B6A03F40053002B3AD17B681B683B
:1043E8001B6803F04003402B33D13B6A03F40013EE
:1043F800002B2ED17B681B681846FFF721FD03466A
:10440800002B1AD17B681B685A687B681B6822F0EE
:1044180060025A607B68DB6D23F480527B68DA6542
:104428007B68DB6D03F48073002B12D17B68DB6D36
:1044380043F001027B68DA650BE07B68DB6D43F0D3
:1044480010027B68DA657B681B6E43F001027B68AB
:104458001A667868FEF7A4F97B681B6860221A6000
:10446800FB6903F08003002B11D0BB6903F08003C4
:10447800002B0CD07B68DB6D43F480327B68DA65F7
:10448800786800F09FF87B681B6880221A60FB69D7
:1044980003F48073002B12D0BB6903F48073002BE4
:1044A8000DD07B68DB6D43F400327B68DA65786891
:1044B80000F094FF7B681B684FF480721A60FB69F8
:1044C80003F40073002B12D0BB6903F40073002BB4
:1044D8000DD07B68DB6D43F480227B68DA657868F1
:1044E80000F086FF7B681B684FF400721A60FB6956
:1044F80003F01003002B36D0BB6903F01003002B28
:1045080031D07B68DB6B002B02D101237B6214E086
:104518007B69002B08D02548FFF7FCFB0346002BDE
:104528000BD001237B6208E07B681B68DB6803F023
:104538000103002B01D001237B627B6A012B0ED182
:104548007B68DB6D43F480627B68DA657B681B6E91
:1045580043F002027B681A66786800F03DF87B68D1
:104568001B6810221A60FB6903F48063002B18D0C3
:10457800BB6903F48063002B13D07B68DB6D43F4C5
:1045880080427B68DA657B681B6E43F008027B68B3
:104598001A667B681B684FF480621A60786800F0BE
:1045A80013FF00BF2837BD4680BD00BF0003005081
:1045B80080B483B000AF786000BF0C37BD465DF8AB
:1045C800047B704780B483B000AF786000BF0C37BD
:1045D800BD465DF8047B704780B483B000AF786057
:1045E80000BF0C37BD465DF8047B704780B5B6B098
:1045F80000AF78603960002387F8D7300023FB606C
:104608007B6893F85830012B01D10223C8E37B68FB
:10461800012283F858207B681B681846FFF7FDFBCA
:104628000346002B40F0AD837B6818683B685968E7
:104638003B681B681A46FFF7CCFA7B681B6818466C
:10464800FFF7EBFBC7F8D0007B681B681846FFF73D
:10465800F7FBC7F8CC00D7F8D030002B40F0D98151
:10466800D7F8CC30002B40F0D4813B689B68B3F17D
:10467800004F0FD17B6818683B681B6800221946F9
:10468800FFF7E6FA7B681B684FF000411846FFF712
:104698007AFA0EE07B6818683B6819683B689B6883
:1046A8001A46FFF7D5FA7B681B6800211846FFF702
:1046B8006AFA3B685A697B681B68DB68DB0803F0A9
:1046C80003035B0002FA03F3C7F8C8303B681B69B1
:1046D800042B22D07B6818683B6819693B681A6804
:1046E800D7F8C830FFF7C4F97B6818683B681969C0
:1046F8003B689B691A46FFF710FA7B6818683B68A5
:1047080019693B681B7F012B02D14FF0007300E051
:1047180000231A46FFF71CFA7BE17B681B6800211F
:104728001846FFF7C9F90346C3F31203002B0AD151
:104738007B681B6800211846FFF7BEF903469B0EED
:1047480003F01F021EE07B681B6800211846FFF774
:10475800B3F90346C7F8BC30D7F8BC3093FAA3F3D3
:10476800C7F8B830D7F8B830C7F8C030D7F8C03075
:10477800002B01D1202304E0D7F8C030B3FA83F32B
:10478800DBB21A463B681B68C3F31203002B05D142
:104798003B681B689B0E03F01F0318E03B681B680F
:1047A800C7F8B030D7F8B03093FAA3F3C7F8AC30F5
:1047B800D7F8AC30C7F8B430D7F8B430002B01D1F3
:1047C800202304E0D7F8B430B3FA83F3DBB29A427B
:1047D80006D17B681B68002200211846FFF782F982
:1047E8007B681B6801211846FFF766F90346C3F387
:1047F8001203002B0AD17B681B6801211846FFF7BA
:104808005BF903469B0E03F01F021EE07B681B68E2
:1048180001211846FFF750F90346C7F8A430D7F826
:10482800A43093FAA3F3C7F8A030D7F8A030C7F89C
:10483800A830D7F8A830002B01D1202304E0D7F8FE
:10484800A830B3FA83F3DBB21A463B681B68C3F39C
:104858001203002B05D13B681B689B0E03F01F0356
:1048680018E03B681B68C7F89830D7F8983093FA77
:10487800A3F3C7F89430D7F89430C7F89C30D7F82A
:104888009C30002B01D1202304E0D7F89C30B3FAE8
:1048980083F3DBB29A4206D17B681B6800220121B0
:1048A8001846FFF71FF97B681B6802211846FFF7B7
:1048B80003F90346C3F31203002B0AD17B681B6874
:1048C80002211846FFF7F8F803469B0E03F01F0273
:1048D8001EE07B681B6802211846FFF7EDF80346C7
:1048E800C7F88C30D7F88C3093FAA3F3C7F8883020
:1048F800D7F88830C7F89030D7F89030002B01D11E
:10490800202304E0D7F89030B3FA83F3DBB21A46D9
:104918003B681B68C3F31203002B05D13B681B6877
:104928009B0E03F01F0316E03B681B68C7F8803036
:10493800D7F8803093FAA3F3FB67FB6FC7F884308E
:10494800D7F88430002B01D1202304E0D7F8843035
:10495800B3FA83F3DBB29A4206D17B681B68002264
:1049680002211846FFF7BEF87B681B68032118462A
:10497800FFF7A2F80346C3F31203002B0AD17B68A2
:104988001B6803211846FFF797F803469B0E03F0B0
:104998001F0217E07B681B6803211846FFF78CF895
:1049A80003467B677B6F93FAA3F33B673B6FBB6759
:1049B800BB6F002B01D1202303E0BB6FB3FA83F355
:1049C800DBB21A463B681B68C3F31203002B05D100
:1049D8003B681B689B0E03F01F0311E03B681B68D4
:1049E800BB66BB6E93FAA3F37B667B6EFB66FB6EBE
:1049F800002B01D1202303E0FB6EB3FA83F3DBB273
:104A08009A4206D17B681B68002203211846FFF7EB
:104A180069F87B681B681846FFF7ECF90346002B1A
:104A280040F040817B6818683B6819683B68DB6820
:104A38001A46FFF739F93B68DB688F4A934240F022
:104A480031817B6818683B681B68C3F31203002B2D
:104A58000BD13B681B689B0E013303F01F03092B26
:104A680094BF01230023DBB219E03B681B68FB6598
:104A7800FB6D93FAA3F3BB65BB6D3B663B6E002BE6
:104A880001D1202303E03B6EB3FA83F3DBB2013399
:104A980003F01F03092B94BF01230023DBB2002B73
:104AA80079D03B681B68C3F31203002B07D13B681E
:104AB8001B689B0E01339B0603F0F84215E03B6828
:104AC8001B683B653B6D93FAA3F3FB64FB6C7B654A
:104AD8007B6D002B01D1202303E07B6DB3FA83F3B8
:104AE800DBB201339B0603F0F8423B681B68C3F353
:104AF8001203002B09D13B681B689B0E013303F09E
:104B08001F03012101FA03F317E03B681B687B646C
:104B18007B6C93FAA3F33B643B6CBB64BB6C002BCC
:104B280001D1202303E0BB6CB3FA83F3DBB201337A
:104B380003F01F03012101FA03F342EA03013B6872
:104B48001B68C3F31203002B0AD13B681B689B0E3A
:104B5800013303F01F0213465B0013441B0518E0E2
:104B68003B681B68BB63BB6B93FAA3F37B637B6BEC
:104B7800FB63FB6B002B01D1202303E0FB6BB3FA33
:104B880083F3DBB2013303F01F0213465B001344C7
:104B98001B050B4381E03B681B68C3F31203002B22
:104BA80007D13B681B689B0E01339B0603F0F84254
:104BB80015E03B681B68FB62FB6A93FAA3F3BB62D0
:104BC800BB6A3B633B6B002B01D1202303E03B6BAB
:104BD800B3FA83F3DBB201339B0603F0F8423B6878
:104BE8001B68C3F31203002B09D13B681B689B0E9B
:104BF800013303F01F03012101FA03F317E03B68B7
:104C08001B683B623B6A93FAA3F3FB61FB697B6217
:104C18007B6A002B01D1202303E07B6AB3FA83F37C
:104C2800DBB2013303F01F03012101FA03F342EA67
:104C380003013B681B68C3F31203002B0DD13B68CB
:104C48001B689B0E013303F01F0213465B001344DD
:104C58001E3B1B0543F000731EE03B681B687B612D
:104C68007B6993FAA3F33B613B69BB61BB69002B8A
:104C780004D1202306E000BF00007F40BB69B3FADF
:104C880083F3DBB2013303F01F0213465B001344C6
:104C98001E3B1B0543F000730B433A6892681946A4
:104CA800FEF7D6FF3B681A683F4B1340002B71D0C4
:104CB8003E48FEF7CFFEC7F8C4003B681B683C4A75
:104CC800934204D03B681B683A4A934227D1D7F8ED
:104CD800C43003F40003002B21D17B681B68B3F1B7
:104CE800A04F57D1D7F8C43043F4000319462F48D2
:104CF800FEF79DFE304B1B689B09304AA2FB03233D
:104D08009B095A1C13465B0013449B00FB6002E09E
:104D1800FB68013BFB60FB68002BF9D13AE03B687C
:104D28001B68274A934213D1D7F8C43003F0807325
:104D3800002B0DD17B681B68224A93422AD0D7F8F2
:104D4800C43043F0807319461848FEF770FE21E01E
:104D58003B681B681C4A93421CD1D7F8C43003F443
:104D68008003002B16D17B681B68164A934211D02A
:104D7800D7F8C43043F4800319460C48FEF757FEB1
:104D880008E07B68DB6D43F020027B68DA6501236D
:104D980087F8D7307B68002283F8582097F8D730F7
:104DA8001846D837BD4680BD000008800003005073
:104DB800000021C31000C0903C000020632D3E0578
:104DC800000052C700010050000084CB80B584B0B9
:104DD80000AF78607B681B681846FFF70BF803463E
:104DE800002B4DD17B681B689A68284B1340002B19
:104DF8000DD07B68DB6D43F010027B68DA657B6859
:104E08001B6E43F001027B681A66012339E07B6858
:104E18001B681846FEF7DAFFFEF7C8FDF86028E0C1
:104E28007B681B681846FEF7E5FF0346002B04D194
:104E38007B681B681846FEF7C9FFFEF7B7FD0246F8
:104E4800FB68D31A022B14D97B681B681B6803F014
:104E58000103012B0DD07B68DB6D43F010027B68EA
:104E6800DA657B681B6E43F001027B681A660123D2
:104E780007E07B681B681B6803F00103012BCFD197
:104E8800002318461037BD4680BD00BF3F00008094
:104E980080B483B000AF786039607B689B6823F08A
:104EA800E0723B681A437B689A6000BF0C37BD46C6
:104EB8005DF8047B704780B483B000AF78607B688E
:104EC8009B6803F0E07318460C37BD465DF8047B19
:104ED8007047000080B487B000AFF860B9607A60AE
:104EE8003B60FB6860331A46BB689B0013447B61D8
:104EF8007B691A68084B13407A6802F0F8413A68EF
:104F08000A43134343F000427B691A6000BF1C3711
:104F1800BD465DF8047B704700F0FF0380B485B0A0
:104F280000AF786039607B6860331A463B689B0045
:104F38001344FB60FB681B6803F0F84318461437FA
:104F4800BD465DF8047B704780B487B000AFF86059
:104F5800B9607A60FB6860331A46BB689B001344EB
:104F68007B617B691B6823F000427B681A437B697D
:104F78001A6000BF1C37BD465DF8047B704780B4DB
:104F880087B000AFF860B9607A60FB6860331A4692
:104F9800BB689B0013447B617B691B6823F08072AC
:104FA8007B681A437B691A6000BF1C37BD465DF8F1
:104FB800047B704780B487B000AFF860B9607A604E
:104FC800FB6860331A46BB689B0013447B617B69AE
:104FD8001B6823F000727B681A437B691A6000BF64
:104FE8001C37BD465DF8047B704780B483B000AFC2
:104FF800786039607B685B6923F000423B681A433C
:105008007B685A6100BF0C37BD465DF8047B70476A
:1050180080B483B000AF78607B68DB6803F000730E
:1050280018460C37BD465DF8047B704780B487B0DE
:1050380000AFF860B9607A60FB6814331A46BB6841
:105048005B0E9B0003F0040313447B617B691A68C1
:10505800BB681B0D03F01F03072101FA03F3DB43B1
:105068001A40BB681B0D03F01F03796801FA03F3AC
:105078001A437B691A6000BF1C37BD465DF8047B84
:105088007047000080B485B000AFF860B9607A60FE
:105098007B680F4A93420AD1FB68D3F8B020BB68FB
:1050A800C3F312031A43FB68C3F8B0200AE0FB6895
:1050B800D3F8B020BB68C3F31203DB431A40FB6884
:1050C800C3F8B02000BF1437BD465DF8047B7047B5
:1050D80000007F4080B483B000AF78607B689B6835
:1050E80003F01F0318460C37BD465DF8047B704774
:1050F80080B483B000AF78607B689B6803F00103DD
:10510800012B01D1012300E0002318460C37BD46CE
:105118005DF8047B704780B483B000AF78607B682B
:105128009B6803F00403042B01D1012300E0002352
:1051380018460C37BD465DF8047B704780B483B0D1
:1051480000AF78607B689B6823F0004323F03F033F
:1051580043F008027B689A6000BF0C37BD465DF8D3
:10516800047B704780B483B000AF78607B689B682D
:1051780003F00803082B01D1012300E0002318469F
:105188000C37BD465DF8047B7047000080B586B0DB
:1051980000AF78606E48FFF79DFF78617B681B68F9
:1051A8001846FFF7DFFF0346002B01D00223CAE0B1
:1051B8007B681B68DB6803F000433B617B681B6806
:1051C800DB6C03F4C073002B0AD13B69002B07D1B9
:1051D8007B68DB6D43F020027B68DA650123B2E06F
:1051E8007B6893F85830012B01D10223ABE07B6830
:1051F800012283F858207868FFF7E8FD0346FB731F
:10520800FB7B002B40F09A807B68DB6D03F4807396
:10521800002B06D07B681B6E23F008027B681A6699
:1052280002E07B6800221A667B68DB6D23F440533A
:1052380023F0010343F480527B68DA657B681B68BE
:10524800444A934202D07B681B6801E04FF0A043B8
:105258007A681268934202D07B69002B05D17B687B
:10526800DB6D23F480127B68DA657B681B6860223B
:105278001A607B68002283F858207B681B68DB680B
:1052880003F40013002B07D07B681B685A687B68FF
:105298001B6842F480625A607B689B69082B10D1B6
:1052A8007B681B685A687B681B6822F020025A607A
:1052B8007B681B685A687B681B6842F040025A602A
:1052C80010E07B681B685A687B681B6822F0400204
:1052D8005A607B681B685A687B681B6842F020022A
:1052E8005A6000BF7B681B681A4A934202D07B68E9
:1052F8001B6801E04FF0A0437A681268934208D017
:105308007B69002B05D07B69062B02D07B69072BB4
:105318000DD17B681B681846FFF77AFE0346002B01
:1053280010D17B681B681846FFF708FF0AE07B6806
:10533800DB6D43F480127B68DA6503E07B6800224A
:1053480083F85820FB7B18461837BD4680BD00BF40
:10535800000300500001005080B485B000AF7860B1
:1053680039603B6840F21B3293420ED03B68B3F57C
:10537800477F1CD23B6840F20F12934211D03B6822
:1053880040F21522934206D011E07B681B68D3F8DF
:105398008C30FB6011E07B681B68D3F88830FB60B9
:1053A8000BE07B681B68D3F88430FB6005E07B6802
:1053B8001B68D3F88030FB6000BFFB6818461437C1
:1053C800BD465DF8047B704780B483B000AF786059
:1053D80000BF0C37BD465DF8047B704780B483B0CE
:1053E80000AF786000BF0C37BD465DF8047B70479E
:1053F80080B483B000AF786000BF0C37BD465DF85D
:10540800047B704780B483B000AF786000BF0C376E
:10541800BD465DF8047B704780B5B6B000AF7860D4
:105428003960002387F8D7300023BB600023C7F812
:10543800D0307B6893F85830012B02D1022300F05A
:10544800B5BC7B68012283F858207B685B69002B18
:1054580003D03B681B6A012B30D13B685B68092B82
:1054680079D13B689B6A002B10D03B681B689B0E68
:105478005B0203F478523B689B6A03F07C031A438F
:105488003B68DB6A1343C7F8D03007E03B681B680A
:105498009B0E5B0203F47853C7F8D0307B681B6817
:1054A800DA6C844B13407A681268D7F8D0100B4333
:1054B800D3647B68D7F8D0205A664CE07B689B6E33
:1054C800002B1DD13B681A6A7B689A667B680022AC
:1054D8005A663B689B6A002B0DD03B681B6A5A1EB4
:1054E8003B689B6A03F07C031A433B68DB6A1343FF
:1054F800C7F8D03004E03B681B6A013BC7F8D030DE
:105508003B681B689B0E03F01F023B685B6803F057
:105518001F0302FA03F3D7F8D0201343C7F8D0309B
:105528007B689B6E5A1E7B689A667B685A6ED7F8B2
:10553800D0301A437B685A667B689B6E002B0AD171
:105548007B681B68DA6C5B4B13407A68516E7A682B
:1055580012680B43D3647B681B681846FFF702FE8A
:105568000346002B24D13B6893F82530002B12D139
:105578007B681B68DB6823F440113B6893F826308E
:105588005A053B6893F824301B051A437B681B684F
:105598000A43DA600CE07B681B68DB6823F440117F
:1055A8003B6893F826305A057B681B680A43DA6023
:1055B8007B681B681846FFF7AEFDC7F8CC007B6810
:1055C8001B681846FFF7CEFDC7F8C800D7F8CC30DF
:1055D800002B40F02E82D7F8C830002B40F02982EB
:1055E8003B689B6A002B03D03B68DB6A002B16D113
:1055F8003B6893F82530012B08D17B681B68DA6873
:105608007B681B6842F00072DA601FE07B681B68E9
:10561800DA687B681B6822F00072DA6016E03B6883
:1056280093F82530012B09D17B68DB6D43F020020C
:105638007B68DA65012387F8D73007E07B681B6849
:10564800DA687B681B6822F00072DA603B6893F8BE
:105658003030012B10D17B681B681B6923F4FF7263
:105668003B68596B3B689B6B0B431A437B681B6811
:1056780042F002021A6107E07B681B681A697B68BE
:105688001B6822F002021A613B689B68B3F1004F65
:1056980012D17B6818683B681B6800221946FFF71F
:1056A800C5FC7B681B684FF000411846FFF79DFC5E
:1056B80011E000BF004010047B6818683B68196857
:1056C8003B689B681A46FFF7B1FC7B681B680021A2
:1056D8001846FFF78AFC3B685A697B681B68DB68D9
:1056E800DB0803F003035B0002FA03F3C7F8C430D6
:1056F8003B681B69042B22D07B6818683B681969D2
:105708003B681A68D7F8C430FFF7E4FB7B68186871
:105718003B6819693B689B691A46FFF730FC7B6850
:1057280018683B6819693B681B7F012B02D14FF051
:10573800007300E000231A46FFF73CFC79E17B6820
:105748001B6800211846FFF7E9FB0346C3F3120361
:10575800002B0AD17B681B6800211846FFF7DEFB87
:1057680003469B0E03F01F021EE07B681B680021A6
:105778001846FFF7D3FB0346C7F8B830D7F8B83058
:1057880093FAA3F3C7F8B430D7F8B430C7F8BC30ED
:10579800D7F8BC30002B01D1202304E0D7F8BC3067
:1057A800B3FA83F3DBB21A463B681B68C3F31203F0
:1057B800002B05D13B681B689B0E03F01F0318E004
:1057C8003B681B68C7F8AC30D7F8AC3093FAA3F342
:1057D800C7F8A830D7F8A830C7F8B030D7F8B03035
:1057E800002B01D1202304E0D7F8B030B3FA83F3BB
:1057F800DBB29A4206D17B681B680022002118465A
:10580800FFF7A2FB7B681B6801211846FFF786FBA0
:105818000346C3F31203002B0AD17B681B680121DE
:105828001846FFF77BFB03469B0E03F01F021EE0A2
:105838007B681B6801211846FFF770FB0346C7F811
:10584800A030D7F8A03093FAA3F3C7F89C30D7F864
:105858009C30C7F8A430D7F8A430002B01D12023FE
:1058680004E0D7F8A430B3FA83F3DBB21A463B68F6
:105878001B68C3F31203002B05D13B681B689B0E02
:1058880003F01F0318E03B681B68C7F89430D7F88B
:10589800943093FAA3F3C7F89030D7F89030C7F84C
:1058A8009830D7F89830002B01D1202304E0D7F89E
:1058B8009830B3FA83F3DBB29A4206D17B681B684F
:1058C800002201211846FFF73FFB7B681B68022175
:1058D8001846FFF723FB0346C3F31203002B0AD134
:1058E8007B681B6802211846FFF718FB03469B0ECE
:1058F80003F01F021EE07B681B6802211846FFF7B1
:105908000DFB0346C7F88830D7F8883093FAA3F31D
:10591800C7F88430D7F88430C7F88C30D7F88C3083
:10592800002B01D1202304E0D7F88C30B3FA83F39D
:10593800DBB21A463B681B68C3F31203002B05D180
:105948003B681B689B0E03F01F0314E03B681B6851
:10595800FB67FB6F93FAA3F3BB67BB6FC7F8803095
:10596800D7F88030002B01D1202304E0D7F880300D
:10597800B3FA83F3DBB29A4206D17B681B68002234
:1059880002211846FFF7E0FA7B681B6803211846D6
:10599800FFF7C4FA0346C3F31203002B0AD17B684E
:1059A8001B6803211846FFF7B9FA03469B0E03F05C
:1059B8001F0217E07B681B6803211846FFF7AEFA41
:1059C80003463B673B6F93FAA3F3FB66FB6E7B676B
:1059D8007B6F002B01D1202303E07B6FB3FA83F3A5
:1059E800DBB21A463B681B68C3F31203002B05D1D0
:1059F8003B681B689B0E03F01F0311E03B681B68A4
:105A08007B667B6E93FAA3F33B663B6EBB66BB6E0D
:105A1800002B01D1202303E0BB6EB3FA83F3DBB282
:105A28009A4206D17B681B68002203211846FFF7BB
:105A38008BFA7B681B681846FFF75AFB0346002B56
:105A480040F040817B6818683B6819683B68DB68F0
:105A58001A46FFF717FB3B68DB688F4A934240F012
:105A680031817B6818683B681B68C3F31203002BFD
:105A78000BD13B681B689B0E013303F01F03092BF6
:105A880094BF01230023DBB219E03B681B68BB65A8
:105A9800BB6D93FAA3F37B657B6DFB65FB6D002BF8
:105AA80001D1202303E0FB6DB3FA83F3DBB20133AA
:105AB80003F01F03092B94BF01230023DBB2002B43
:105AC80079D03B681B68C3F31203002B07D13B68EE
